:020000040800F2
:1000000000500020A1220008952100089721000837
:10001000992100089B2100089D2100080000000094
:100020000000000000000000000000009F21000808
:10003000A121000800000000A3210008A52100085C
:10004000E9220008E9220008E9220008E922000864
:10005000E9220008E9220008E9220008E922000854
:10006000E9220008E9220008E9220008E922000844
:10007000E9220008E9220008E9220008E922000834
:10008000E9220008E9220008E9220008E922000824
:10009000E9220008E9220008E9220008E922000814
:1000A000E9220008E9220008E9220008E922000804
:1000B000E9220008E9220008A9210008E922000835
:1000C000E9220008E9220008E9220008E9220008E4
:1000D000E9220008E9220008E9220008E9220008D4
:1000E000E9220008E9220008E922000800000000D7
:1000F0000000000000000000000000000000000000
:0C01000000000000000000005FF808F1A3
:10010C0010B5054C237833B9044B13B10448AFF345
:10011C0000800123237010BDD400002000000000DB
:10012C009832000808B5034B1BB103490348AFF3E1
:10013C00008008BD00000000D800002098320008A4
:10014C00074A08B51368032043F01003136000F04E
:10015C002DF8002001F0DCFF01F08AFF002008BD23
:10016C0000200240034A044B11681B780B441360B7
:10017C00704700BF6804002000000020014B186885
:10018C00704700BF6804002038B50446FFF7F6FF3F
:10019C000546631C1EBF044B1B78E418FFF7EEFFEB
:1001AC00401B8442FAD838BD00000020074A0002E8
:1001BC00D36800F4E06023F4E0631B041B0C43F0F1
:1001CC00BF6343F400330343D360704700ED00E09A
:1001DC00174B30B5DC68C4F30224C4F10703251DAA
:1001EC00042B28BF0423062D4FF0010598BF0024D3
:1001FC0005FA03F303F1FF3388BF033C1940A14018
:10020C0005FA04F4013C2240002842EA01024FEABC
:10021C000212AFBF00F16040064B00F00F00D2B2EB
:10022C00A5BFD2B200F561401A5480F8002330BD4E
:10023C0000ED00E014ED00E00123420900F01F0086
:10024C0003FA00F0014B43F82200704700E100E094
:10025C000138B0F1807F0AD2F021064B064A586073
:10026C0082F823100020072298601A607047012042
:10027C00704700BF10E000E000ED00E0044B0428E4
:10028C001A680CBF42F0040222F004021A60704794
:10029C0010E000E0704708B5FFF7FCFF08BD000058
:1002AC0003682DE9F341DB07054610D42B689F0743
:1002BC005ED42B68190700F195802B685A0700F162
:1002CC00BF80EA69002A40F02D81002014E0904C98
:1002DC00636803F00C03042B07D0636803F00C0372
:1002EC00082B0CD16368DE0309D523689C03DDD58C
:1002FC006B68002BDAD1012002B0BDE8F0816B688D
:10030C00B3F5803F10D1236843F480332360FFF7AB
:10031C0035FF064623689803C8D4FFF72FFF801BD0
:10032C006428F7D90320E7E79BB9236823F48033CB
:10033C002360236823F480232360FFF71FFF064606
:10034C0023689903B2D5FFF719FF801B6428F7D9EE
:10035C00E8E7B3F5A02F236803D143F4802323608F
:10036C00D1E723F480332360236823F48023CDE783
:10037C00674C636813F00C0F07D0636803F00C0331
:10038C00082B10D16368DA030DD423689B0702D5C0
:10039C002B69012BAFD123686A6923F0F80343EA78
:1003AC00C203236085E72A695A4B6AB101221A609D
:1003BC00FFF7E4FE064623689F07ECD4FFF7DEFE4A
:1003CC00801B0228F7D9ADE71A60FFF7D7FE064667
:1003DC00236898077FF56DAFFFF7D0FE801B0228CE
:1003EC00F6D99FE7AA694A4C4B4BDAB101221A6045
:1003FC00FFF7C4FE0646636A9B070DD54FF4FA520D
:10040C00464B1B68B3FBF2F3019300BF019B5A1ED2
:10041C000192002BF9D150E7FFF7B0FE801B0228A8
:10042C00E9D97FE71A60FFF7A9FE0646636A9F07C2
:10043C007FF543AFFFF7A2FE801B0228F6D971E7C8
:10044C00334CE369D80024D40127E36943F080538B
:10045C00E361E36903F080530093009B304E3368F3
:10046C00D90518D5EB68012B26D1236A43F001037B
:10047C002362FFF783FE41F288368046236A9B078E
:10048C003FD5002F3FF41DAFE36923F08053E361A8
:10049C0017E70027E2E7336843F480733360FFF714
:1004AC006DFE80463368DA05DCD4FFF767FEA0EBFF
:1004BC0008006428F6D935E7ABB9236A41F28838CD
:1004CC0023F001032362236A23F004032362FFF762
:1004DC0055FE0646236A9807D3D5FFF74FFE801BBF
:1004EC004045F7D91EE7052B236A03D143F00403DB
:1004FC002362BAE723F001032362236A23F0040387
:10050C00B6E7FFF73BFEA0EB0800B042B6D909E70F
:10051C000010024000004242800442426C00002065
:10052C0000700040224C636803F00C03082B3FF46E
:10053C00E2AE00231F4E022A33602BD1FFF71EFEC2
:10054C000746236899011FD42B6AB3F5803F05D168
:10055C006268A96822F400320A436260696A6268C0
:10056C000B4322F474121343636001233360FFF7CF
:10057C0005FE054623689A013FF5A7AEFFF7FEFD81
:10058C00401B0228F6D9CDE6FFF7F8FDC01B022868
:10059C00D7D9C7E6FFF7F2FD054623689B017FF527
:1005AC0094AEFFF7EBFD401B0228F6D9BAE600BF6C
:1005BC00001002406000424230B5194B87B002ACCB
:1005CC0003F11005224618685968083303C2AB4280
:1005DC001446F7D101238DF80430022311498DF80C
:1005EC0005304B6803F00C02082A17D1C3F3834281
:1005FC0006A80244DB0312F8102C0CD54B680A48F1
:10060C00C3F34043504306AA134413F8143CB0FB05
:10061C00F3F007B030BD05485043FAE70248F8E75D
:10062C00B03200080010024000127A0000093D00B0
:10063C004D4A2DE9F0411368054603F007038B4240
:10064C000E4628D32A68910732D4D20738D4464AAA
:10065C00136803F007039E4273D32A68434C12F0CD
:10066C00040F79D1130706D563682A6923F4605304
:10067C0043EAC2036360FFF79FFF63683C4AC3F31E
:10068C000313D35CD8403B4B1860002001F040FDB5
:10069C000020BDE8F081136823F007030B431360BF
:1006AC00136803F007039942CCD00120BDE8F08118
:1006BC002E49A8684B6823F0F00303434B60C4E752
:1006CC006A682A4C012A23681CD113F4003FECD031
:1006DC00636841F2883823F0030313436360FFF728
:1006EC004DFD6B680746012B14D1636803F00C03B6
:1006FC00042BACD0FFF742FDC01B4045F5D90320BD
:10070C00BDE8F081022A02D113F0007FDFE713F07D
:10071C00020FDCE7022B0FD1636803F00C03082BEC
:10072C0095D0FFF72BFDC01B4045F5D9E7E7FFF748
:10073C0025FDC01B4045E2D8636813F00C0FF6D1C1
:10074C0085E7136823F0070333431360136803F042
:10075C0007039E42A9D180E76368E96823F4E0634C
:10076C000B4363607EE700BF002002400010024094
:10077C00AA9F00086C000020014B1868704700BF4E
:10078C006C000020044B054A5B68C3F30223D35C66
:10079C00034A1068D840704700100240BA9F000806
:1007AC006C0000200F2303600B4B5A6802F003020D
:1007BC0042605A6802F0F00282605A6802F4E06209
:1007CC00C2605B68DB0803F4E0630361034B1B68E6
:1007DC0003F007030B60704700100240002002403A
:1007EC00704703680020DA6842F00102DA601A6888
:1007FC0042F001021A6070477047704770477047AB
:10080C00036810B51A69044691070ED5DA68920789
:10081C000BD56FF002021A6101229B6902779B07CC
:10082C0077D0FFF7EAFF0023237723681A69500774
:10083C0010D5DA6851070DD56FF004021A61022247
:10084C009B69227713F4407F204668D0FFF7D5FFD1
:10085C000023237723681A6912070FD5DA6810076B
:10086C000CD56FF008021A610422DB692277990714
:10087C0020465AD0FFF7C1FF0023237723681A695B
:10088C00D20610D5DA68D0060DD56FF010021A61B9
:10089C000822DB69227713F4407F20464BD0FFF708
:1008AC00ACFF0023237723681A69D10708D5DA68CF
:1008BC00D20705D56FF0010220461A6101F0CEFB7C
:1008CC0023681A69100608D5DA68110605D56FF089
:1008DC00800220461A6100F088F823681A695206D3
:1008EC0008D5DA68500605D56FF0400220461A612B
:1008FC00FFF785FF23681A69910622D5DA689206FC
:10090C001FD56FF020022046BDE810401A6100F0A0
:10091C006BB8FFF771FF2046FFF770FF83E7FFF717
:10092C006BFF2046FFF76AFF92E7FFF765FF204653
:10093C00FFF764FFA0E7FFF75FFF2046FFF75EFFBE
:10094C00AFE710BD1A4A036890420AD0B0F1804F4D
:10095C0007D0A2F59432904203D002F58062904207
:10096C0015D14A6823F070031343114A90420AD000
:10097C00B0F1804F07D0A2F59432904203D002F52B
:10098C008062904203D1CA6823F4407313434A69CE
:10099C0023F08003134303608B68C3620B6883628C
:1009AC00034B984204BF0B690363012343617047F7
:1009BC00002C014010B50446A0B190F83D3003F076
:1009CC00FF021BB980F83C20FFF70AFF02232068C6
:1009DC0084F83D30211DFFF7B5FF0123002084F87A
:1009EC003D3010BD012010BD7047704780B483B0FE
:1009FC0000AF786000BF7B685A1E7A60002BFAD17A
:100A0C0000BF0C37BD4680BC7047FFF7BDBB000074
:100A1C00034B10B100221A60704701221A60704714
:100A2C00B401224270B500250124274B27499A694D
:100A3C00274E42F008029A619A690A2042F010028D
:100A4C009A610A6822F4700242F400120A60214A88
:100A5C0015609A6942F001029A611F4B34601C6068
:100A6C001E4B1A6822F4704242F440521A601A6803
:100A7C0022F0706242F040721A60194A14601A68CF
:100A8C0022F4700242F430021A601A6822F07042AA
:100A9C0042F030421A601A6822F4702242F440325A
:100AAC001A604CF24F320F4B1C600F4B1A60FFF761
:100ABC006BFB35600A20FFF767FB34600A20BDE84A
:100ACC007040FFF761BB00BF0010024004100140F2
:100ADC00AC812142B4012242B8812142040C014074
:100AEC00B8034242B081214200380040002310B5C7
:100AFC00074A084C13602360074BD8600120FFF7AE
:100B0C0075FF064A1368002BFCD10123236010BD2E
:100B1C00B8812142B0812142003800401C010742BB
:100B2C000123094A10B513600022084C2260084AC0
:100B3C00D0601846FFF75AFF064A1368002BFCD109
:100B4C000123236010BD00BFB8812142B081214236
:100B5C00003800401C01074201220C4B10B51A60F2
:100B6C0000220B4C010A22600A4AD1600A490B6828
:100B7C00002BFCD0D0600120FFF738FF074A136828
:100B8C00002BFCD10123236010BD00BFB881214292
:100B9C00B081214200380040040107421C01074289
:100BAC0000232DE97043164C164D23602B60164B19
:100BBC008846D86001201646FFF718FF134B99465C
:100BCC001A68002AFCD101230F482360104B4FEA0E
:100BDC00182256B90120FFF709FFD9F80030002B75
:100BEC00FBD101232B60BDE8708319680029FCD070
:100BFC00C26019680029FCD0C0F80C80013EE8E7FF
:100C0C00B8812142B0812142003800401C010742CA
:100C1C000401074200232DE97043144C144E236049
:100C2C003360144B8846D86001201546FFF7DEFE72
:100C3C00114B99461A68002AFCD101230D4A2360F6
:100C4C000E4B4544A8450AD10120FFF7CFFED9F839
:100C5C000030002BFBD101233360BDE87083196891
:100C6C000029FCD018F8011BD160EBE7B8812142B8
:100C7C00B0812142003800401C01074204010742A8
:100C8C0000232DE97043174C174D23602B60174B35
:100C9C008846D86001201646FFF7A8FE144B9946EB
:100CAC001A68002AFCD1012310482360114B56B955
:100CBC000120FFF79BFED9F80030002BFBD101235C
:100CCC002B60BDE870831A68002AFCD098F80120CC
:100CDC00C2601A68002AFCD038F8022B013EC260B0
:100CEC00E5E700BFB8812142B081214200380040C5
:100CFC001C010742040107422DE978410023DFF86B
:100D0C00E080304E0C463360C8F800302E4B154650
:100D1C00D8600120FFF76AFE40462C4BD3F800E068
:100D2C00BEF1000FFAD101218D42316024D1264A47
:100D3C002749136823F4804323F0380343F020033E
:100D4C0013600B68002BFCD0D368237001251E4A5E
:100D5C00056013681F4C23F4804323F0380343F4DD
:100D6C00804343F008031360002303202360FFF744
:100D7C003DFE2560BDE87881174A2544136823F4AD
:100D8C00700343F440131360144BC3F800E0196074
:100D9C0013680D4923F4700343F4300313600B689C
:100DAC0023F4804323F0380343F020030B60084BFB
:100DBC00AC42CBD01A68002AFCD0CA6804F8012BCC
:100DCC00F6E700BFB8812142003800401C01074201
:100DDC000001074218000742040C0140B481214273
:100DEC00B08121422DE978410023DFF8F080344EA8
:100DFC000D463360C8F80030324B1446D8600120E1
:100E0C00FFF7F4FD4146304BD3F800E0BEF1000F84
:100E1C00FAD101202D4A3060136823F4700343F497
:100E2C00401313602A4BC3F800E01860136823F4D6
:100E3C00700343F430031360224A136823F4804395
:100E4C0023F0380343F020031360224B18461E682E
:100E5C00002EFCD0D3681B4EDFF884E0A4B9012629
:100E6C00184A0E6013681C4D23F4804323F038039A
:100E7C0043F4804343F00803136003202C60FFF716
:100E8C00B5FD2E60BDE878810368002BFCD0D6F848
:100E9C000CC00368002BFCD0F2680368002BFCD05C
:100EAC00F3680EEA0C2CC3F3C403D20043EA0C0320
:100EBC0002F4FC62134325F8023B013CCEE700BF71
:100ECC00B8812142003800401C010742040C01404B
:100EDC00B48121420001074218000742B08121422F
:100EEC0000F8FFFFA02070478020704710B5314CF0
:100EFC002378DA070AD443F001029B07227001D44D
:100F0C00FFF790FD237843F0020323700120FFF7D5
:100F1C007CFD0120FFF7EAFD0120FFF776FD102292
:100F2C002549E020FFF776FE10222449E120FFF747
:100F3C0071FE02222249C020FFF76CFE01222149DA
:100F4C00C120FFF767FE03221F49C520FFF762FE91
:100F5C0001221E493A20FFF75DFE01221C49B020F8
:100F6C00FFF758FE01221B49B120FFF753FE012267
:100F7C001949B420FFF74EFE02221849B620FFF79C
:100F8C0049FE01221649E920FFF744FE04221549C7
:100F9C00F720FFF73FFE3620FFF7A8FDA020FFF754
:100FAC00BFFD1120FFF7A2FDBDE810402920FFF77F
:100FBC009DBD00BFF0000020A26F0008B36F0008B9
:100FCC00C46F0008C76F0008C0320008C96F000862
:100FDC00CB6F0008CD6F0008D06F0008CF6F0008F2
:100FEC00C4320008D26F000808B51120FFF77EFD4F
:100FFC00BDE808400120FFF70BBD08B51020FFF736
:10100C0075FDBDE808400020FFF702BD002307B5C1
:10101C0002A941F8043D03220420FFF76DFE47F2BC
:10102C0035730198034A90420CBF1846002003B058
:10103C005DF804FB7C89F00010B50C4602220146D9
:10104C002A20FFF7ADFD2146BDE8104002222B20DF
:10105C00FFF7A6BD38B50D461446014602222A20DC
:10106C00FFF79EFD294602222B20FFF799FD2C202D
:10107C00FFF73CFD2046BDE83840FFF76DBD000092
:10108C00F8B5054617460E465C1E0E4A0E4B0C4430
:10109C00A4B22A201C801180FFF728FD2846FFF7F8
:1010AC005BFD781E284480B2FFF756FD2B20FFF71E
:1010BC001DFD3046FFF750FD2046BDE8F840FFF718
:1010CC004BBD00BFF4000020F2000020F8B50C4628
:1010DC001D46164607462A20FFF708FD2046FFF757
:1010EC003BFD681E204480B2FFF736FD2B20FFF736
:1010FC00FDFC3046FFF730FD3046FFF72DFD2A464C
:10110C003946BDE8F8402C20FFF74ABDF8B50E462D
:10111C0014461D4607462A20FFF7E8FC3046FFF729
:10112C001BFD3046FFF718FD2B20FFF7DFFC204698
:10113C00FFF712FD681E204480B2FFF70DFD2A4612
:10114C003946BDE8F8402C20FFF72ABD13B50C46F4
:10115C00022201462A20FFF723FD214602222B20E2
:10116C00FFF71EFD01220DF106012E20FFF73AFEBE
:10117C00BDF8060002B010BD70B515461E46049CA5
:10118C00FFF77EFF06FB05F22146BDE870402E20DE
:10119C00FFF728BE38B55588938854899189ADB22C
:1011AC00A4B244EA014445EA034536202D1B1444FD
:1011BC00FFF79CFCE020FFF7B3FC2B20FFF796FC1D
:1011CC000D4B1888C0F17F0080B2FFF7C5FC0B4BAC
:1011DC001888C0F17F0080B2FFF7BEFC6A08214678
:1011EC002C20FFF74DFD3620FFF780FCBDE8384082
:1011FC00A020FFF795BC00BFF2000020F4000020F7
:10120C0070B515461E46049CFFF73AFF06FB05F227
:10121C002146BDE870402C20FFF732BD014B1B6806
:10122C009B6A18472C000020014B1B68DB6A18478F
:10123C002C000020014B1860704700BF6C0400208C
:10124C00014B5860704700BF6C040020014B986044
:10125C00704700BF6C040020014B9868704700BFBA
:10126C006C040020024B1B685B6903B11847704784
:10127C002C000020104B2DE9F0411B6805461C6A20
:10128C000E46174674B9DFF83480BC4201D3BDE872
:10129C00F0812819B8F80020314680B2FFF7E2FF40
:1012AC000134F2E713460A4601460448A446BDE859
:1012BC00F0410088604700BF2C0000206C04002027
:1012CC0070B50025094C26682060FFF7ADFF8542FC
:1012DC0002D3B6B2266070BDFFF7A0FFA9B20246DA
:1012EC000020FFF7C7FF0135EFE700BF6C040020BB
:1012FC0070B54FF6FF760025074C084B6660A3606F
:10130C00074B25601B681B6898473046FFF7D8FFD2
:10131C00044B2846A36070BD6C0400201C00002008
:10132C002C00002024000020104B2DE9F0411B68FC
:10133C0005465C6A0E46174674B9DFF83480BC4229
:10134C0001D3BDE8F0813119B8F8002089B22846E4
:10135C00FFF788FF0134F2E713460A4601460448BA
:10136C00A446BDE8F0410088604700BF2C00002077
:10137C006C0400202DE9F04F141A002CA3EB01068D
:10138C00B8BF6442002EB8BF764224B236B2824255
:10139C002CBF01274FF0FF378B422CBF4FF00108B9
:1013AC004FF0FF38B44285B00FFA80F90FFA81FA8A
:1013BC004FF002050BDB0097002794FBF5F5019726
:1013CC0000231AB294420FDA05B0BDE8F08F96FBF9
:1013DC00F5F52346CDF804804FF0000834462DB2C5
:1013EC001E46CDF80080EBE703931FFA8AF30293B5
:1013FC00104B1FFA89FB1A88354402995846FFF79F
:10140C0031FFAAB215B2AC42039B09DC151B029A40
:10141C000BEB070942442DB20FFA89F90FFA82FA45
:10142C00009A01339144019A0FFA89F992440FFA08
:10143C008AFAC6E76C0400202DE9F04F81468A46F3
:10144C0016464FF000085400324F87B0C4F1030425
:10145C00B5B21FFA88F30193AAEB050B4B449BB270
:10146C001FFA8BFB594618463A880493FFF7FAFE8D
:10147C00019B5946A9EB03039BB218463A88029389
:10148C00FFF7F0FE09EB05039BB20393019B3A882F
:10149C00AAEB03039BB2194603980593A9EB050B22
:1014AC00FFF7E0FE059B1FFA8BFB55441946ADB2C6
:1014BC003A885846FFF7D6FE29463A880498FFF733
:1014CC00D1FE29463A880298FFF7CCFE019B3A8858
:1014DC000AEB0305ADB229460398FFF7C3FE3A8821
:1014EC0029465846FFF7BEFE002CB5BF0634A8EBC4
:1014FC00060304EB88040A34A8BF06F1FF3608F192
:10150C000108A8BF04EB83044645A1D207B0BDE88F
:10151C00F08F00BF6C0400202DE9F0411546D37C00
:10152C00927CEC7D02EB0322AB7D064603EB04239D
:10153C00124C1FFA83FE23680F46D3F81C8092B21C
:10154C00B8F1000F01D07346C04723681B6B1BB169
:10155C002A46394630469847FFF760FE0546FFF7A6
:10156C0063FE22680346D46934B100212A46A4469E
:10157C00BDE8F04108466047BDE8F0812C00002032
:10158C002DE9F04FDFF828E18BB0DEF80830DEF8FB
:10159C0004809C88DE88D3F800C004FB06F5434B1E
:1015AC001B356D005D802D149D804FF03605DEF8E7
:1015BC0000E006915FFA88F10391C8F307210491CA
:1015CC005FFA8EF10191CEF307216FF0010E5D8170
:1015DC004FF0000502910EFB04F106F1004E4FEAAC
:1015EC0044080EF1FF3E9D821D830EFB083E5C827B
:1015FC00DE8200234FF0010B9846203A7243E71D20
:10160C00FF10C4EBC705059107FB02C2A4F1110141
:10161C00EDB2079104F1FF3AA4F10901089105EB31
:10162C000A010991B04506D3204A06990BB0BDE8D2
:10163C00F04FFFF771BF0799072906D85378157833
:10164C001B0243EA054395782B4308994FF0000C95
:10165C0007299EBF1578537843EA05237546BAF1DE
:10166C00070F98BF1378A44505D3059908F1010815
:10167C008E443A44D6E709990235A1EB0C090BFAD2
:10168C0009F919EA030F15BF9DF804109DF80C1009
:10169C0085F8341085F8341014BF9DF808109DF8A7
:1016AC0010100CF1010C85F83510DCE7F600002069
:1016BC006C0400202DE9F041064600241746084A28
:1016CC00884611885D1C116008EB04013A4689B20A
:1016DC0030460134FFF7CEFDAC42F5D1BDE8F081C8
:1016EC006C0400202DE9F74F824689460025294BD2
:1016FC005400934616461A88C4F103041A60BEB10E
:10170C00B7B2AAEB07031FFA85F87F009BB2BFB2F2
:10171C0009EB080118463A4689B20193FFF7AAFD76
:10172C00019BA9EB08013A4689B21846FFF7A2FDC6
:10173C00BDB1AFB2AAEB07031FFA86F87F009BB2CC
:10174C00BFB2A9EB080118463A4689B20193FFF7DC
:10175C0091FD019B09EB08013A4689B21846FFF747
:10176C0089FD002CB5BF0634AB1B04EB85040A3491
:10177C00A8BF06F1FF3605F10105A8BF04EB8304F1
:10178C00AE42BCD25A464946504603B0BDE8F04F73
:10179C00FFF752BE6C040020014B1B689B68184776
:1017AC002C000020014B1B68DB6818472C00002024
:1017BC00024B1B68586800B1004770472C00002092
:1017CC00034B1B689B6903B118471846704700BF51
:1017DC002C00002010B4034C2468646BA44610BC8D
:1017EC00604700BF2C00002010B4034C2468A46B8D
:1017FC00A44610BC604700BF2C00002010B5FEF7BB
:10180C00BDFC04460020FFF75BFDFEF7B7FC001B98
:10181C0010BD2DE9F84F0646FEF7B0FC0024054636
:10182C004FF6FF77B44204D1FEF7A8FC401BBDE88D
:10183C00F88F00F0FDFD8146FFF7F0FC804600F0CC
:10184C00F7FD8346FFF7F0FC824600F0F1FD9BFBB1
:10185C00FAF199FBF8F390FBF7F208FB13930AFBF0
:10186C0011B1024492B289B298B2FFF7FBFC013479
:10187C00D8E72DE9F04F85B08346FEF77FFC0024B6
:10188C0082465C4506D1FEF779FCA0EB0A0005B058
:10189C00BDE8F08F00F0CCFD0646FFF7BFFC054617
:1018AC0000F0C6FD8046FFF7BFFC074600F0C0FD08
:1018BC000390FFF7B3FC814600F0BAFD0290FFF7EE
:1018CC00B3FC019000F0B4FD4FF6FF7390FBF3FEF8
:1018DC00704480B2FFF7AEFC0299019B039A91FB16
:1018EC00F3F003FB101392FBF9F196FBF5F009FBF7
:1018FC00112298FBF7F105FB106007FB11819BB2DD
:10190C0092B289B280B2FFF735FD0134B9E72DE907
:10191C00F74F8146FEF732FC002780464FF6FF7AE0
:10192C004F4506D1FEF72AFCA0EB080003B0BDE83A
:10193C00F08F00F07DFD0446FFF770FCC0F34F0004
:10194C0094FBF0F200FB124400F072FD0546FFF729
:10195C006BFCC0F34F0095FBF0F300FB135500F04C
:10196C0067FD0190FFF75AFC064600F061FD009000
:10197C00FFF75AFC834600F05BFD90FBFAF2104433
:10198C0080B2FFF757FC0099A8B2ABEB000091FBBB
:10199C00F0F2019B00FB1211A0B2301A93FBF0F293
:1019AC0000FB123089B2ABB2A2B280B2FFF782FE5A
:1019BC000137B5E72DE9F84F0646FEF7DFFB0024AB
:1019CC000546354FDFF8E090B44204D1FEF7D6FB64
:1019DC00401BBDE8F88F00F02BFD052390FBF3F3C3
:1019EC0003EB8303C01A10F0FF0044D12B48FFF720
:1019FC002DFCFFF731FC834600F01AFD8046FFF703
:101A0C000DFCBBF804A00134A0EB0A0098FBF0FA23
:101A1C0000FB1A801FFA80FA00F00AFD8046FFF7DF
:101A2C0003FCBBF806B0A0EB0B0098FBF0FB00FB33
:101A3C001B804FF6FF781FFA80FB00F0F9FC90FB3F
:101A4C00F8F2104480B2FFF7F5FB00F0F1FC90FBCC
:101A5C00F8F3184480B2FFF7F3FB00F0E9FC6022C6
:101A6C0090FBF2F303FB12022032D2B259465046DD
:101A7C00FFF786FDA8E7012801D10948B7E702283E
:101A8C0001D14846B3E7032801D10648AFE7042843
:101A9C00AFD13846ABE700BF1C000020240000206B
:101AAC0004000020140000200C0000202DE9F74F4A
:101ABC008146FFF7B3FB0646FFF7B6FB864202D919
:101ACC00FFF7B2FB0646FEF759FB4FF0000A8046C3
:101ADC004FF6FF7BC6F38F06CA4506D1FEF74EFBC9
:101AEC00A0EB080003B0BDE8F08F00F0A1FC90FB68
:101AFC00F6F404FB1604A7B2002FF6D000F098FC05
:101B0C000190FFF78BFB144B019A03EA4404001B72
:101B1C0092FBF0F500FB152500F08AFC0190FFF715
:101B2C0083FB0199001B91FBF0F400FB141400F0F3
:101B3C007FFC90FBFBF23D4410443C4480B2ADB2C0
:101B4C00A4B2FFF777FB3A4621462846FFF774FC10
:101B5C000AF1010AC0E700BFFEFF01002DE9F74FB3
:101B6C008146FFF75BFB0646FFF75EFB864202D918
:101B7C00FFF75AFB0646FEF701FB4FF0000A8046C2
:101B8C004FF6FF7BC6F38F06CA4506D1FEF7F6FA71
:101B9C00A0EB080003B0BDE8F08F00F049FC90FB0F
:101BAC00F6F404FB1604A7B2002FF6D000F040FCAC
:101BBC000190FFF733FB144B019A03EA4404001B1A
:101BCC0092FBF0F500FB152500F032FC0190FFF7BD
:101BDC002BFB0199001B91FBF0F400FB141400F09B
:101BEC0027FC90FBFBF23D4410443C4480B2ADB268
:101BFC00A4B2FFF71FFB3A4621462846FFF772FDB9
:101C0C000AF1010AC0E700BFFEFF01002DE9F74F02
:101C1C00FEF7B4FA8346FFF701FB8246FFF704FB9D
:101C2C004FF00008C0F38F05C0F34F07EB199BB2C0
:101C3C0000931FFA88F6564506D3FEF79FFAA0EBE1
:101C4C000B0003B0BDE8F08F4FEA0824B4FBFAF4A4
:101C5C00194AC4F3C4034FEAC40902EA042444EA4F
:101C6C00030009F4FC6940EA090080B20193FFF714
:101C7C00E1FA2A4600213046FFF756FB04F478407F
:101C8C00FFF7D8FA2A4629463046FFF74DFB48465F
:101C9C00FFF7D0FA2A4639463046FFF745FB019B41
:101CAC0008F101081846FFF7C5FA2A460099304694
:101CBC00FFF73AFBBDE700BF00F8FFFF2DE9F84343
:101CCC000746FEF75BFA4FF000080646144DB84580
:101CDC0004D1FEF753FA801BBDE8F88300F0A8FB93
:101CEC008146FFF79BFAD5F8124008F10108001B5A
:101CFC00B9FBF0F400FB149084B200F099FB814620
:101D0C00FFF792FAD5F81610054A401AB9FBF0F114
:101D1C0000FB1191204689B2FFF7FEFBD7E700BF0D
:101D2C00947000082DE9F743174E00243746002520
:101D3C001FFA84F94FEA0418A8B24946FFF740FD90
:101D4C0008EB05030135102D26F81300F4D10134EE
:101D5C00102CECD1FFF768FA844211D2102508E060
:101D6C001023284600971A462146FFF733FD1035FD
:101D7C00ADB2FFF753FA8542F2D31034A4B2E9E7BF
:101D8C0003B0BDE8F08300BF7804002073B51023C6
:101D9C0000210F4E1A4600960846FFF725FD102528
:101DAC00FFF742FA854211D2102408E01023204696
:101DBC0000961A462946FFF70DFD1034A4B2FFF722
:101DCC002DFA8442F2D31035ADB2E9E702B070BD02
:101DDC007804002010B54FF49670FEF7D5F9FFF794
:101DEC0087FA00F025FB4FF47A70FEF7CDF9FFF778
:101DFC00DFFC01465B4800F09FFA4FF47A70FEF767
:101E0C00C3F9594C0021002023689B6BC3E90401E2
:101E1C00FFF7F4FC0146554800F08EFA5448FFF7E2
:101E2C00F8FC0146534800F087FA4FF47A70FEF73D
:101E3C00ABF90020FFF744FA4FF47A70FFF719FD65
:101E4C0001464D4800F078FA4FF47A70FEF79CF991
:101E5C00FFF768FF4FF47A70FEF796F9FFF796FFDD
:101E6C004FF47A70FEF790F90020FFF729FAFA2068
:101E7C00FFF74DFD0146414800F05EFA4FF47A70D1
:101E8C00FEF782F90020FFF71BFA4FF47A70FFF788
:101E9C000DFE01463A4800F04FFA4FF47A70FEF707
:101EAC0073F90020FFF70CFAFA20FFF757FE0146F2
:101EBC00344800F041FA4FF47A70FEF765F9FFF7F9
:101ECC0031FF4FF47A70FEF75FF9FFF75FFF4FF4C5
:101EDC007A70FEF759F90020FFF7F2F941F28830D9
:101EEC00FFF768FD0146284800F026FA4FF47A7097
:101EFC00FEF74AF90020FFF7E3F96420FFF7DEFE56
:101F0C000146224800F018FA4FF47A70FEF73CF9BB
:101F1C00FFF708FF4FF47A70FEF736F9FFF736FF3C
:101F2C004FF47A70FEF730F90020FFF7C9F9FFF78C
:101F3C006DFE0146164800F0FFF940F6B830FEF78A
:101F4C0023F9FFF72FFC4FF47A70FEF71DF9FFF71A
:101F5C0023FC4FF47A70FEF717F90E4800F060FA84
:101F6C0050E700BFD76F000870000020E96F000831
:101F7C00A0860100FD6F0008117000082470000895
:101F8C00417000083C700008567000086970000829
:101F9C007E700008927000084FF4803330B591B019
:101FAC0001220024022507930E934FF4E01306A898
:101FBC0006920A920F9308940D95FEF771F90F2370
:101FCC0001934FF48063294601A80493029503946E
:101FDC000594FEF72DFBFEF7CFFB4FF47A73B0FBA5
:101FEC00F3F0FEF735F90420FEF748F922462146B6
:101FFC004FF0FF30FEF7ECF811B030BD1FB5FEF717
:10200C009FF8FFF7C9FF144B9A6942F010029A61CE
:10201C009A6902F010020092009A9A6942F020022A
:10202C009A619A6902F020020192019A9A6942F02F
:10203C0004029A619A6902F004020292029A9A6965
:10204C0042F008029A619B6903F008030393039B17
:10205C00FFF7C0FEFEE700BF001002400268034B12
:10206C009A4201D1FEF77EB8704700BF00080040CD
:10207C00254B07B59A69032042F001029A619A69CF
:10208C0002F001020092009ADA6942F08052DA61A1
:10209C00DB6903F080530193019BFEF787F8002264
:1020AC006FF00B001146FEF793F800226FF00A0058
:1020BC001146FEF78DF800226FF009001146FEF76D
:1020CC0087F800226FF004001146FEF781F8002219
:1020DC006FF003001146FEF77BF800226FF0010051
:1020EC001146FEF775F800224FF0FF301146FEF74F
:1020FC006FF8064A536823F0E06343F000735360B3
:10210C0003B05DF804FB00BF00100240000001406A
:10211C0010B5014688B000221E20FEF759F81E208B
:10212C00FEF78AF8144B01A9DA6903A842F00402FD
:10213C00DA61DB69114C03F004030293029BFEF796
:10214C0031FBFEF71FFB0E4B4000236040F2E733E0
:10215C00E3600C4BB0FBF3F00023013860602046C9
:10216C002361A360FEF726FC20B92046FEF739FB5D
:10217C0008B010BD0120FBE70010024078060020DB
:10218C000008004040420F007047FEE7FEE7FEE704
:10219C00FEE7704770477047FEF77DB80148FEF7C1
:1021AC002FBB00BF7806002010B500234FF0604411
:1021BC00934201DB104610BDD4F8800EC00703D546
:1021CC00D4F8000EC00702D40133F1E700BF206839
:1021DC000028FBD0C85C2070F6E70000044B0246D8
:1021EC00196809B903491960186802441A607047E4
:1021FC005C040020BC0600205822024B4FF0FF303C
:10220C001A607047B80600205822024B4FF0FF307E
:10221C001A607047B80600205822024B00201A6042
:10222C00704700BFB80600205822024B4FF0FF3019
:10223C001A607047B80600205822024B4FF0FF304E
:10224C001A607047B80600200F4B1A6842F0010262
:10225C001A6059680D4A0A405A601A6822F0847252
:10226C0022F480321A601A6822F480221A605A68AA
:10227C0022F4FE025A604FF41F029A604FF0006283
:10228C00034B9A60704700BF001002400000FFF83B
:10229C0000ED00E0002103E00B4B5B584350043190
:1022AC000A480B4B42189A42F6D30A4A02E0002322
:1022BC0042F8043B084B9A42F9D3FFF7C5FF00F0F4
:1022CC000FF8FFF79BFE704764A000080000002089
:1022DC00D4000020D4000020BC060020FEE7000043
:1022EC0070B500250C4E0D4CA41BA410A54209D1B1
:1022FC0000F0CCFF00250A4E0A4CA41BA410A542EA
:10230C0005D170BD56F8253098470135EEE756F8E3
:10231C00253098470135F2E75CA000085CA0000866
:10232C005CA0000860A0000803460244934200D160
:10233C00704703F8011BF9E70FB40A4B13B51C687F
:10234C0024B1A36913B9204600F05EFA05AB049AD8
:10235C00A1682046019300F01FFC02B0BDE81040BC
:10236C0004B070477000002070B50E46054618B1D9
:10237C0083690BB900F048FAAB69AC6813B928460D
:10238C0000F042FA234B9C4217D16C68A3891B07BF
:10239C001DD52369DBB1013EA36816F8011F013B73
:1023AC00A360E9B9002B2EDA22460A21284600F058
:1023BC0079F8013011D00A2070BD174B9C4201D125
:1023CC00AC68E3E7154B9C4208BFEC68DEE721469E
:1023DC00284600F0B9F80028DDD04FF0FF3070BD72
:1023EC00002B04DAA269934206DB0A2904D0236885
:1023FC005A1C22601970CFE72246284600F052F88A
:10240C000130C9D1E9E70A2023685A1C22601870F0
:10241C0070BD00BFE89F000808A00008C89F000816
:10242C00024B01461868FFF79FBF00BF70000020E9
:10243C00194B10B51C68A36BD3B9182000F0D2FA55
:10244C0043F20E33A06303804AF6CD33438041F24E
:10245C00342383804EF26D63C3804DF6EC630381AD
:10246C00052343810B23012283810023C0E904232C
:10247C00A16B0A480A694B695043094C04FB0300E1
:10248C00A2FB04230132034443F10003C1E90423FA
:10249C0023F0004010BD00BF700000202DF45158F7
:1024AC002D7F954CF8B50E461446054618B1836938
:1024BC000BB900F0A9F9214B9C422AD16C68A36995
:1024CC00A360A3891A072ED5236963B323692068F7
:1024DC00F6B2C01A63693746984204DB2146284697
:1024EC0000F028F928BBA3680130013BA3602368E6
:1024FC005A1C22601E706369984204D0A389DB07C2
:10250C0019D50A2E17D12146284600F013F990B19F
:10251C000FE00B4B9C4201D1AC68D0E7094B9C42BD
:10252C0008BFEC68CBE72146284600F00DF80028E0
:10253C00CCD04FF0FF373846F8BD00BFE89F0008FD
:10254C0008A00008C89F0008324B70B51D680646ED
:10255C000C4625B1AB6913B9284600F055F92E4B42
:10256C009C420FD16C68B4F90C309AB215072CD47C
:10257C00D00611D40922326043F04003A3814FF0FE
:10258C00FF3070BD254B9C4201D1AC68EBE7244B6E
:10259C009C4208BFEC68E6E7510712D5616B41B16C
:1025AC0004F14403994202D0304600F023FA002390
:1025BC006363A38923F02403A3810023636023694D
:1025CC002360A38943F00803A38123694BB9A38932
:1025DC0003F42073B3F5007F03D02146304600F09E
:1025EC00C1F9A28912F001030CD00023A360636926
:1025FC005B42A361236953B9B4F90C3013F080002A
:10260C00BAD170BD920758BF6369A360F2E700208E
:10261C00F7E700BF70000020E89F000808A0000842
:10262C00C89F00088A892DE9F041054610070C4621
:10263C005AD44B68002B05DC0B6C002B02DC002001
:10264C00BDE8F081E66A002EF9D0002312F4805226
:10265C002F682B6033D0606DA3895A0705D563684A
:10266C00C01A636B0BB1236CC01A00230246E66AD6
:10267C00216A2846B047431CA38906D129681D2925
:10268C004BD82B4ACA40D60747D500226260226934
:10269C00D904226004D5421C01D12B6803B96065B2
:1026AC00616B2F600029CAD004F14403994202D017
:1026BC00284600F09FF900206063BDE8F081216A94
:1026CC0001232846B047411CC6D12B68002BC3D030
:1026DC001D2B01D0162B01D12F60B0E7A38943F03D
:1026EC004003A381BDE8F0810F69002FA7D09307A9
:1026FC0018BF00230E6808BF4B69A6EB07080F60D4
:10270C008B60B8F1000F9ADD43463A46216A2846A1
:10271C00A66AB047002807DCA38943F04003A381D5
:10272C004FF0FF30BDE8F0810744A8EB0008E8E764
:10273C000100402038B50B6905460C46DBB118B1D9
:10274C0083690BB900F060F80C4B9C4209D16C68A2
:10275C00B4F90C307BB121462846BDE83840FFF770
:10276C0061BF074B9C4201D1AC68F1E7054B9C4221
:10277C0008BFEC68ECE7002038BD00BFE89F0008FC
:10278C0008A00008C89F0008014900F0A9B800BFC4
:10279C0041270008002310B50446036043608360A2
:1027AC0081814366C28103614361836119460822BA
:1027BC005C30FFF7B9FD054B24626362044BA362E6
:1027CC00044BE362044B236310BD00BF21310008AE
:1027DC00433100087B3100089F31000870B5682533
:1027EC004A1E55430E4605F1740100F04FF904469C
:1027FC0040B1002180E842000C30A06005F1680275
:10280C00FFF792FD204670BD836910B5044633BBBB
:10281C008364C3640365124B124A1B68826298423C
:10282C0004BF0123836100F01FF86060204600F0B4
:10283C001BF8A060204600F017F80022E06004218D
:10284C006068FFF7A7FF01220921A068FFF7A2FF2C
:10285C0002221221E068FFF79DFF0123A36110BD46
:10286C00C49F000895270008F8B51C4B07461E6846
:10287C00B36913B93046FFF7C7FF4836B4687368BD
:10288C00013B03D5336833B13668F7E7B4F90C5024
:10289C006DB16834F4E704213846FFF79FFF3060D0
:1028AC000028F1D10C2304463B602046F8BD4FF6BE
:1028BC00FF73E38101236566A3812560A5606560D4
:1028CC0025616561A5610822294604F15C00FFF7CA
:1028DC002BFD6563A563A564E564E6E7C49F00086A
:1028EC002DE9F84380468946002600F1480414B9C6
:1028FC003046BDE8F883A5686768013F01D52468B8
:10290C00F5E7AB89012B07D9B5F90E30013303D0AC
:10291C0029464046C84706436835EEE770B50E4673
:10292C00B1F90E1090B0002914461D4607DA0023A9
:10293C002B60B3891A0610D44FF480630EE001AA01
:10294C0000F04EFC0028F2DB029A02F47042A2F571
:10295C0000535A425A412A60EEE74023002023607C
:10296C0010B070BD8B8973B59D0706460C4607D514
:10297C0004F14703236023610123636102B070BD3E
:10298C0001AB6A46FFF7CAFF00990546304600F0D6
:10299C007DF848B9B4F90C309A05EFD423F0030351
:1029AC0043F00203A381E3E70D4BB362A3892060DC
:1029BC0043F08003A381009B20616361019B5BB1A9
:1029CC00B4F90E10304600F01DFC28B1A38923F099
:1029DC00030343F00103A381A3891D43A581CDE724
:1029EC0095270008024B0146186800F04FB800BF4D
:1029FC007000002038B50546002943D051F8043C3E
:102A0C000C1F002BB8BFE41800F02CFC1E4A1368F6
:102A1C00104633B9636014602846BDE8384000F0B6
:102A2C0022BCA3420BD921686218934201BF1A68D9
:102A3C005B685218226063600460EDE713465A68C5
:102A4C000AB1A242FAD919685818A0420BD12068D1
:102A5C000144581882421960DED110685268014452
:102A6C0019605A60D8E702D90C232B60D4E7206890
:102A7C0021188A4201BF11685268091821606260EE
:102A8C005C60C9E738BD00BF6004002070B5CD1C88
:102A9C0025F0030508350C2D38BF0C25002D0646F6
:102AAC0001DBA94203D90C233360002070BD00F078
:102ABC00D9FB234A1468214691B9224C23681BB9CF
:102ACC00304600F017FB20602946304600F012FB20
:102ADC00431C26D10C233046336000F0C4FBE4E7E2
:102AEC000B685B1B1AD40B2B0FD90B60CC18CD5079
:102AFC00304600F0B8FB04F10B00231D20F007005A
:102B0C00C31A1BD05A42E25070BD8C420BBF636893
:102B1C004B681360636018BF0C46E9E70C464968C4
:102B2C00CAE7C41C24F00304A04205D0211A304685
:102B3C0000F0E0FA0130CDD02560D9E770BD00BFC0
:102B4C006004002064040020936810B4013B002B47
:102B5C00936008DA9469A34202DBCBB20A2B02D150
:102B6C0010BCFFF79FBC1368581C10601970C8B2DA
:102B7C0010BC7047F8B506460F461446D518AC4243
:102B8C0001D1002007E03A4614F8011B3046FFF74C
:102B9C00DBFF431CF3D1F8BD2DE9F04F9DB00C4683
:102BAC0017460393064618B183690BB9FFF72CFE41
:102BBC007C4B9C4257D17468A38918075DD5236957
:102BCC00002B5AD00023099320238DF82930302371
:102BDC004FF0010B8DF82A30B846454615F8013BED
:102BEC00002B55D1B8EB070A0BD053463A46214679
:102BFC003046FFF7BFFF013000F0C480099B5344FF
:102C0C00099398F80030002B00F0BC8000234FF0A3
:102C1C00FF3204930793059206938DF853301A9361
:102C2C0005222978604800F00FFB05F10108049B90
:102C3C00002831D1D90644BF20228DF853201A0721
:102C4C0044BF2B228DF853202A782A2A2CD000211D
:102C5C000A20079AA84698F800300135303B092B1A
:102C6C006DD971B326E0514B9C4201D1B468A3E7F6
:102C7C004F4B9C4208BFF4689EE721463046FFF755
:102C8C0063FC00289ED04FF0FF301DB0BDE8F08FE4
:102C9C00252BA7D0A846A0E7434A4546801A0BFA35
:102CAC0000F018430490BBE7039A111D12680391BE
:102CBC00002A01DB079204E0524243F00203079220
:102CCC00049398F800302E2B10D198F8013008F1AD
:102CDC0001012A2B37D1039B08F102081A1D1B682E
:102CEC000392002BB8BF4FF0FF330593314D0322F5
:102CFC0098F80010284600F0A7FA40B14023401B7A
:102D0C0003FA00F0049B08F101080343049398F8BC
:102D1C0000100622284808F101078DF8281000F051
:102D2C0093FA002834D0254B03BB039B073323F0C5
:102D3C00070308330393099B4B4409934CE700FBAF
:102D4C000232012186E700230A251846059388469E
:102D5C0098F800200131303A092A03D9002BC5D04C
:102D6C000590C3E705FB00200123F0E703AB0093BC
:102D7C002246134B04A93046AFF30080B0F1FF3F5D
:102D8C008146D8D1A3895B063FF57DAF09987CE7D6
:102D9C0003AB009322460A4B04A9304600F08AF894
:102DAC00ECE700BFE89F000828A0000808A0000876
:102DBC00C89F00082EA0000832A0000800000000E8
:102DCC00812B00082DE9F04791461F468A680B6954
:102DDC0006469342B8BF1346C9F8003091F8432019
:102DEC000C46DDF8208012B10133C9F8003023689D
:102DFC00990642BFD9F800300233C9F80030256873
:102E0C0015F0060507D104F1190AE368D9F800207A
:102E1C009B1A9D422ADB94F843302268003318BF7A
:102E2C00012392062FD404F1430239463046C047A1
:102E3C00013022D02368E56803F00603042B18BF89
:102E4C000025D9F800204FF0000908BFAD1AA3687F
:102E5C00226908BF25EAE5759342C4BF9B1AED1899
:102E6C001A344D451BD10020BDE8F0870123524692
:102E7C0039463046C047013003D14FF0FF30BDE832
:102E8C00F0870135C1E73020E11881F843005A1C66
:102E9C0094F845102244023382F84310C3E701230F
:102EAC00224639463046C0470130E6D009F10109C7
:102EBC00D7E700002DE9F04317460A7E85B06E2A4D
:102ECC00984606460C460C9B01F1430E00F0BC8064
:102EDC001AD8632A2ED00AD8002A00F0C880582AA3
:102EEC0000F08A8004F1420584F842202AE0642A2A
:102EFC0001D0692AF6D121681A6811F0800F23D00D
:102F0C00111D1960136827E0732A00F0B48008D8EB
:102F1C006F2A2AD0702AE5D10A6842F020020A6092
:102F2C0003E0752A21D0782ADCD178226F4984F805
:102F3C00452064E01A6801F14205111D19601368FF
:102F4C0084F842300123A3E011F0400F02F1040198
:102F5C001960D7D0B2F90030002B03DA2D225B4276
:102F6C0084F8432062490A2217E02068196810F09F
:102F7C00800F03D0081D18600B6806E010F0400F9E
:102F8C0001F104001860F7D00B886F2A14BF0A22D5
:102F9C0008225749002084F843006568002DA5607D
:102FAC00C0F29C80206820F004002060002B3FD1F0
:102FBC00002D40F095807546082A0BD12368DA075E
:102FCC0008D5236962689A42DEBF302305F8013CBC
:102FDC0005F1FF35AEEB05032361CDF800803B46D0
:102FEC0003AA21463046FFF7EDFE013055D14FF0D4
:102FFC00FF3005B0BDE8F08381F845203C492268DC
:10300C00186812F0800F00F104051D6001D00368F0
:10301C0002E05506FBD50388D00744BF42F02002DE
:10302C0022601BB9226822F0200222601022B1E734
:10303C007546B3FBF2F002FB1033CB5C05F8013D97
:10304C0003460028F5D1B7E708681A6810F0800F1E
:10305C00496904D0101D18601368196007E010F05E
:10306C00400F02F1040018601368F6D01980002399
:10307C0075462361B1E71A68111D196015680021A6
:10308C006268284600F0E0F808B1401B6060636895
:10309C002361002384F843309FE723692A4639468D
:1030AC003046C0470130A2D023689B0707D50025C6
:1030BC0004F11909E368039A9B1A9D4205DBE06849
:1030CC00039B9842B8BF184693E701234A463946FA
:1030DC003046C04701308AD00135EBE7002BA7D131
:1030EC000B7804F1420584F8423065E74AA00008E9
:1030FC0039A0000838B50023054C05460846236066
:10310C00FFF76CF8431C02D1236803B12B6038BD68
:10311C00B806002010B50C46B1F90E1000F0A4F85A
:10312C000028ABBF636DA3891B1823F48053ACBF7D
:10313C006365A38110BD2DE9F0411F468B890546BF
:10314C00DB050C46164605D502230022B1F90E10FC
:10315C0000F068F8A389324623F48053A381B4F9B4
:10316C000E103B462846BDE8F04100F017B810B5EC
:10317C000C46B1F90E1000F055F8431CA38915BF8D
:10318C00606523F4805343F48053A38118BFA3815B
:10319C0010BDB1F90E1000F013B8000038B505469B
:1031AC00084611460022054C22601A46FEF7FCFF29
:1031BC00431C02D1236803B12B6038BDB806002034
:1031CC0038B50023054C054608462360FFF714F874
:1031DC00431C02D1236803B12B6038BDB806002014
:1031EC0038B50023064C0546084611462360FFF708
:1031FC000BF8431C02D1236803B12B6038BD00BF10
:10320C00B806002038B50023054C05460846236057
:10321C00FFF702F8431C02D1236803B12B6038BDC1
:10322C00B806002038B50546084611460022054C64
:10323C0022601A46FEF7F8FF431C02D1236803B143
:10324C002B6038BDB806002010B5C9B202449042BC
:10325C00034601D1002010BD1C7801308C42F6D100
:10326C00184610BD7047704738B5054608461146DC
:10327C000022054C22601A46FEF7DEFF431C02D1E9
:10328C00236803B12B6038BDB8060020F8B500BF29
:10329C00F8BC08BC9E467047F8B500BFF8BC08BC2B
:0432AC009E46704783
:1032B00002030405060708090A0B0C0D0E0F101077
:1032C000001280000000000000000000000000006C
:1032D0000000001010101010000010000000006C22
:1032E00048480000000000000000001414287C285A
:1032F0007C285050000000103840403848701010B2
:103300000000002050200C7008140800000000008D
:103310000018202054483400000000101010100045
:103320000000000000000008081010101010100825
:103330000800002020101010101010202000001095
:103340007C1028280000000000000000101010FE73
:1033500010101000000000000000000000181030E5
:10336000200000000000007C0000000000000000C1
:1033700000000000003030000000000404080810C5
:1033800010202040000000384444444444443800A5
:10339000000000301010101010107C0000000038E9
:1033A0004404081020447C00000000384404180441
:1033B000044438000000000C141424447E040E0061
:1033C0000000003C20203804044438000000001CA9
:1033D00020407844444438000000007C440408083D
:1033E00008101000000000384444384444443800B9
:1033F000000000384444443C040870000000000011
:1034000000303000003030000000000000181800CC
:1034100000183020000000000C10608060100C00CC
:103420000000000000007C007C00000000000000A4
:10343000C02018041820C000000000001824040850
:103440001000300000003844444C54544C40443880
:1034500000000030102828287C44EE00000000F80E
:10346000444478444444F8000000003C4440404058
:1034700040443800000000F0484444444448F00010
:10348000000000FC445070504044FC000000007EEE
:1034900022283828202070000000003C4440404E84
:1034A00044443800000000EE44447C444444EE00B0
:1034B0000000007C1010101010107C000000003C78
:1034C0000808084848483000000000EE44485070A2
:1034D0004844E600000000702020202024247C00C6
:1034E000000000EE6C6C54544444EE00000000EE0A
:1034F00064645454544CEC00000000384444444488
:10350000444438000000007824242438202070002F
:1035100000000038444444444444381C000000F88F
:10352000444444784844E200000000344C403804ED
:1035300004645800000000FE9210101010103800B3
:10354000000000EE4444444444443800000000EECF
:103550004444282828101000000000EE444454542D
:1035600054542800000000C6442810102844C60007
:10357000000000EE44282810101038000000007CE5
:103580004408101020447C00000000382020202037
:10359000202020203800004020202010100808089B
:1035A000000000380808080808080808380000105B
:1035B000102844000000000000000000000000008F
:1035C0000000000000FE00100800000000000000E5
:1035D000000000000038443C44443E00000000C0AD
:1035E000405864444444F80000000000003C44405B
:1035F000404438000000000C04344C4444443E0075
:10360000000000000038447C40403C000000001CEA
:10361000207C202020207C000000000000364C444C
:1036200044443C04380000C0405864444444EE0024
:10363000000000100070101010107C00000000103E
:103640000078080808080808700000C0405C48704E
:103650005048DC00000000301010101010107C00EA
:103660000000000000E854545454FE000000000024
:1036700000D864444444EE00000000000038444494
:10368000444438000000000000D8644444447840BA
:10369000E000000000364C4444443C040E000000AE
:1036A000006C302020207C0000000000003C4438EA
:1036B0000444780000000000207C202020221C0010
:1036C0000000000000CC4444444C360000000000E0
:1036D00000EE4444282810000000000000EE44548E
:1036E000545428000000000000CC48303048CC0082
:1036F0000000000000EE442428181010780000009C
:10370000007C481020447C000000000810101010BD
:1037100020101010080000101010101010101010C1
:1037200000000020101010100810101020000000E1
:10373000000000245800000000000000000000000D
:103740000000000000000000000000000000000079
:103750000000000000000000000000000C000C0051
:103760000C000C000C000C000C000C0000000C0005
:1037700000000000000000000000000000001DC06C
:103780001DC00880088008800000000000000000C4
:103790000000000000000000000000000D800D800F
:1037A0000D800D803FC01B003FC01B001B001B0095
:1037B0001B00000000000000000004001F8031809A
:1037C000318038001E000F000380318031803F00BF
:1037D00004000400000000000000000018002400A5
:1037E000240018C007801E00318002400240018082
:1037F00000000000000000000000000000000F00BA
:103800001800180018000C001D80370033001D80C0
:1038100000000000000000000000000000000700A1
:10382000070002000200020000000000000000008B
:103830000000000000000000000000000300030082
:1038400006000E000C000C000C000C000E00060020
:103850000300030000000000000000001800180032
:103860000C000600060006000600060006000C001C
:103870001C00180000000000000000000600060008
:103880003FC03FC00F001F801980000000000000F3
:103890000000000000000000000000000000000028
:1038A0000400040004003F80040004000400000041
:1038B0000000000000000000000000000000000008
:1038C00000000000000000000000000006000400EE
:1038D0000C000800080000000000000000000000CC
:1038E0000000000000003F80000000000000000019
:1038F00000000000000000000000000000000000C8
:103900000000000000000000000000000C000C009F
:103910000000000000000000000000C000C00180A6
:1039200001800300030006000C000C0018001800C2
:103930003000300000000000000000000E001B00FE
:103940003180318031803180318031801B000E0028
:1039500000000000000000000000000006003E0023
:1039600006000600060006000600060006003FC02E
:103970000000000000000000000000000F0019809F
:1039800031803180030006000C00180030003F80B9
:103990000000000000000000000000003F00618007
:1039A000018003001F0003800180018061803F00CF
:1039B00000000000000000000000000007000700F9
:1039C0000F000B001B00130033003F8003000F802B
:1039D0000000000000000000000000001F80180030
:1039E000180018001F0011800180018021801F0035
:1039F00000000000000000000000000007801C0024
:103A000018003000370039803180318019800F0074
:103A10000000000000000000000000007F004300E4
:103A2000030006000600060006000C000C000C0057
:103A30000000000000000000000000001F003180B6
:103A4000318031801F0031803180318031801F0012
:103A50000000000000000000000000001E00330015
:103A60003180318033801D800180030007003C00DD
:103A70000000000000000000000000000000000046
:103A800000000C000C000000000000000C000C0006
:103A90000000000000000000000000000000000026
:103AA0000000030003000000000000000600040006
:103AB000080008000000000000000000000000C036
:103AC000030004001800600018000400030000C098
:103AD00000000000000000000000000000000000E6
:103AE000000000007FC000007FC000000000000058
:103AF0000000000000000000000000000000600066
:103B000018000400030000C0030004001800600057
:103B100000000000000000000000000000001F0086
:103B200031803180018007000C000C0000000C0087
:103B30000000000000000000000000000E00110066
:103B40002100210027002900290027002000110062
:103B50000E000000000000000000000000003F0018
:103B60000F000900198019801F8030C030C079E033
:103B700000000000000000000000000000007F00C6
:103B80003180318031803F003180318031807F0051
:103B900000000000000000000000000000001F40C6
:103BA00030C06040600060006000604030801F00F6
:103BB00000000000000000000000000000007F0086
:103BC000318030C030C030C030C030C031807F0064
:103BD00000000000000000000000000000007F80E6
:103BE0003080308032003E003200308030807F8074
:103BF00000000000000000000000000000007FC086
:103C00003040304032003E003200300030007C0056
:103C100000000000000000000000000000001E8006
:103C2000318060806000600067C0618031801F006B
:103C300000000000000000000000000000007BC049
:103C40003180318031803F803180318031807BC054
:103C500000000000000000000000000000003FC065
:103C600006000600060006000600060006003FC02B
:103C700000000000000000000000000000001FC065
:103C800003000300030003006300630063003E00C1
:103C900000000000000000000000000000007BC0E9
:103CA0003180330036003C003E003300318079C063
:103CB00000000000000000000000000000007E0086
:103CC00018001800180018001840184018407FC04D
:103CD0000000000000000000000000000000E0E024
:103CE00060C071C07BC06AC06EC064C060C0FBE0D1
:103CF000000000000000000000000000000073C091
:103D0000318039803D8035803780338031807980C3
:103D100000000000000000000000000000001F0084
:103D2000318060C060C060C060C060C031801F0072
:103D300000000000000000000000000000007F0004
:103D400031803180318031803F00300030007E0092
:103D500000000000000000000000000000001F0044
:103D6000318060C060C060C060C060C031801F0032
:103D70000CC01F80000000000000000000007F0059
:103D80003180318031803E003300318031807CE0F1
:103D900000000000000000000000000000001F8084
:103DA0003180318038001F000380318031803F0036
:103DB00000000000000000000000000000007F8004
:103DC0004C804C804C800C000C000C000C003F0020
:103DD00000000000000000000000000000007BC0A8
:103DE00031803180318031803180318031801F00DD
:103DF00000000000000000000000000000007BC088
:103E0000318031801B001B001B000A000E000E00D9
:103E10000000000000000000000000000000FBE0C7
:103E200060C064C06EC06EC02A803B803B80318021
:103E300000000000000000000000000000007BC047
:103E400031801B000E000E000E001B0031807BC075
:103E5000000000000000000000000000000079E009
:103E600030C019800F0006000600060006001F8003
:103E700000000000000000000000000000003F8083
:103E800021802300060004000C00188030803F8051
:103E90000000000000000000000000000780060095
:103EA00006000600060006000600060006000600E2
:103EB00006000780000000000000300030001800FD
:103EC00018000C000C0006000300030001800180B4
:103ED00000C000C000000000000000001E0006003E
:103EE00006000600060006000600060006000600A2
:103EF00006001E0000000000000004000A000A0086
:103F00001100208020800000000000000000000060
:103F100000000000000000000000000000000000A1
:103F20000000000000000000000000000000000091
:103F30000000000000000000FFE008000400020094
:103F40000000000000000000000000000000000071
:103F50000000000000000000000000000000000061
:103F600000001F00018001801F80318033801DC050
:103F700000000000000000000000000070003000A1
:103F800030003700398030C030C030C03980770011
:103F90000000000000000000000000000000000021
:103FA00000001E80318060806000608031801F00D2
:103FB00000000000000000000000000003800180FD
:103FC00001801D80338061806180618033801DC0ED
:103FD00000000000000000000000000000000000E1
:103FE00000001F00318060C07FC0600030C01F80B3
:103FF00000000000000000000000000007E00C00CE
:104000000C003F800C000C000C000C000C003F80EA
:1040100000000000000000000000000000000000A0
:1040200000001DC0338061806180618033801D800D
:10403000018001801F0000000000000070003000BF
:1040400030003700398031803180318031807BC051
:104050000000000000000000000000000600060054
:1040600000001E00060006000600060006003FC015
:104070000000000000000000000000000600060034
:1040800000003F00030003000300030003000300DF
:10409000030003003E00000000000000700030003C
:1040A0003000378036003C003C003600330077C0DB
:1040B0000000000000000000000000001E000600DC
:1040C00006000600060006000600060006003FC0C7
:1040D00000000000000000000000000000000000E0
:1040E00000007F8036C036C036C036C036C076E0AD
:1040F00000000000000000000000000000000000C0
:1041000000007700398031803180318031807BC080
:10411000000000000000000000000000000000009F
:1041200000001F00318060C060C060C031801F008F
:10413000000000000000000000000000000000007F
:1041400000007700398030C030C030C0398037007F
:10415000300030007C000000000000000000000083
:1041600000001DC0338061806180618033801D80CC
:104170000180018007C00000000000000000000076
:1041800000007B801CC018001800180018007F0079
:10419000000000000000000000000000000000001F
:1041A00000001F8031803C001F00038031803F00F1
:1041B00000000000000000000000000018001800CF
:1041C00018007F00180018001800180018800F0051
:1041D00000000000000000000000000000000000DF
:1041E00000007380318031803180318033801DC088
:1041F00000000000000000000000000000000000BF
:1042000000007BC0318031801B001B000E000E00BF
:10421000000000000000000000000000000000009E
:104220000000F1E060C064C06EC03B803B80318024
:10423000000000000000000000000000000000007E
:1042400000007BC01B000E000E000E001B007BC098
:10425000000000000000000000000000000000005E
:10426000000079E030C0198019800B000F000600B3
:1042700006000C003E0000000000000000000000EE
:1042800000003F80218003000E00180030803F8036
:1042900000000000000000000000000006000C000C
:1042A0000C000C000C000C0018000C000C000C00A2
:1042B0000C000600000000000000000006000600E0
:1042C00006000600060006000600060006000600BE
:1042D0000600060000000000000000000C000600C0
:1042E00006000600060006000300060006000600A1
:1042F00006000C00000000000000000000000000AC
:1043000000000000180024800300000000000000EE
:10431000000000000000000000000000000000009D
:10432000000000000000000000000000000000008D
:10433000000000000000000000000000000000007D
:104340000000000007000700070007000700070043
:104350000700020002000000000007000700000044
:1043600000000000000000000000000000001CE051
:104370001CE01CE00840084008400000000000006D
:10438000000000000000000000000000000000002D
:1043900000000CC00CC00CC00CC00CC03FF03FF0C3
:1043A0000CC00CC03FF03FF00CC00CC00CC00CC0E7
:1043B0000CC000000000000000000300030007E044
:1043C0000FE0186018001F000FC000E018601860B0
:1043D0001FC01F8003000300030000000000000056
:1043E000000000001C002200220022001C6001E0EE
:1043F0000F803C0031C002200220022001C00000DA
:1044000000000000000000000000000000000000AC
:1044100003E00FE00C000C0006000F301FF019E065
:1044200018C01FF007B000000000000000000000EE
:1044300000000000000003800380038001000100F1
:10444000010000000000000000000000000000006B
:1044500000000000000000000000000000C000C0DC
:1044600001800180018003000300030003000300BA
:10447000030001800180018000C000C00000000036
:10448000000000000C000C000600060006000300FF
:1044900003000300030003000300060006000600FB
:1044A0000C000C00000000000000000003000300EE
:1044B00003001B601FE0078007800FC00CC00000D6
:1044C00000000000000000000000000000000000EC
:1044D00000000000000000000300030003000300D0
:1044E0003FF03FF003000300030003000000000062
:1044F00000000000000000000000000000000000BC
:1045000000000000000000000000000000000000AB
:104510000380030003000600060004000000000002
:10452000000000000000000000000000000000008B
:104530003FE03FE00000000000000000000000003D
:10454000000000000000000000000000000000006B
:10455000000000000000000000000000000000005B
:1045600003800380038000000000000000000000C2
:1045700000000060006000C000C000C00180018039
:1045800003000300060006000C000C000C001800DD
:104590001800000000000000000000000F801FC095
:1045A00018C0306030603060306030603060306043
:1045B00018C01FC00F8000000000000000000000B5
:1045C0000000000003001F001F00030003000300A1
:1045D000030003000300030003001FE01FE00000CE
:1045E0000000000000000000000000000F801FC05D
:1045F00038E03060006000C00180030006000C005D
:1046000018003FE03FE00000000000000000000054
:10461000000000000F803FC030E0006000E007C0F5
:1046200007C000E00060006060E07FC03F800000E5
:1046300000000000000000000000000001C003C0F6
:1046400003C006C00CC00CC018C030C03FE03FE043
:1046500000C003E003E000000000000000000000D4
:10466000000000001FC01FC0180018001F801FC0DE
:1046700018E000600060006030E03FC01F80000074
:1046800000000000000000000000000003E00FE058
:104690001E001800380037803FC038E030603060BE
:1046A00018E01FC0078000000000000000000000AC
:1046B000000000003FE03FE03060006000C000C04C
:1046C00000C001800180018003000300030000009E
:1046D0000000000000000000000000000F801FC06C
:1046E00038E0306038E01FC01FC038E03060306014
:1046F00038E01FC00F800000000000000000000034
:10470000000000000F001FC038C03060306038E08B
:104710001FE00F6000E000C003C03F803E000000CB
:104720000000000000000000000000000000000089
:1047300000000000038003800380000000000000F0
:1047400003800380038000000000000000000000E0
:1047500000000000000000000000000001C001C0D7
:1047600001C00000000000000380030006000600F6
:104770000400000000000000000000000000000035
:10478000003000F003C007001C0078001C00070088
:1047900003C000F000300000000000000000000036
:1047A0000000000000000000000000007FF07FF02B
:1047B000000000007FF07FF000000000000000001B
:1047C00000000000000000000000000000000000E9
:1047D00030003C000F00038000E0007800E0038020
:1047E0000F003C003000000000000000000000004E
:1047F0000000000000000F801FC0186018600060FB
:1048000001C0038003000000000007000700000053
:1048100000000000000000000000000003800C8089
:1048200008401040104011C012401240124011C008
:104830001000080008400780000000000000000091
:104840000000000000001F801F80038006C006C01B
:104850000CC00C601FE01FE03030787878780000E2
:1048600000000000000000000000000000003F8089
:104870003FC01860186018E01FC01FE018701830A3
:1048800018303FF03FE00000000000000000000092
:1048900000000000000007B00FF01C70383030003E
:1048A00030003000300038301C700FE007C00000CE
:1048B00000000000000000000000000000007F80F9
:1048C0007FC030E0307030303030303030303070D9
:1048D00030E07FC07F80000000000000000000008A
:1048E0000000000000003FF03FF018301830198041
:1048F0001F801F801980183018303FF03FF00000F3
:1049000000000000000000000000000000003FF078
:104910003FF01830183019801F801F801980180050
:1049200018003F003F0000000000000000000000F1
:1049300000000000000007B01FF018703030300099
:10494000300031F831F8303018301FF007C0000067
:1049500000000000000000000000000000003CF02B
:104960003CF01860186018601FE01FE018601860C5
:1049700018603CF03CF00000000000000000000067
:104980000000000000001FE01FE003000300030020
:10499000030003000300030003001FE01FE000000A
:1049A000000000000000000000000000000003F80C
:1049B00003F80060006000600060306030603060CC
:1049C00030E03FC00F800000000000000000000049
:1049D0000000000000003EF83EF818E019801B00BF
:1049E0001F001D8018C018C018603E783E380000B7
:1049F00000000000000000000000000000003F0078
:104A00003F000C000C000C000C000C000C300C30B3
:104A10000C303FF03FF000000000000000000000FC
:104A20000000000000007878787838703CF034B0EE
:104A300037B037B03330333030307CF87CF800009A
:104A4000000000000000000000000000000039F03D
:104A50003DF01C601E601E601B601B6019E019E0C9
:104A600018E03EE03E600000000000000000000092
:104A700000000000000007800FC01CE038703030DC
:104A800030303030303038701CE00FC0078000000C
:104A900000000000000000000000000000003FC017
:104AA0003FE018701830183018701FE01FC0180051
:104AB00018003F003F000000000000000000000060
:104AC00000000000000007800FC01CE0387030308C
:104AD00030303030303038701CE00FC0078007B005
:104AE0000FF00CE0000000000000000000003FC0DC
:104AF0003FE01870183018701FE01FC018E01860F1
:104B000018703E383E180000000000000000000051
:104B10000000000000000FB01FF038703030380087
:104B20001F8007E00070303038703FE037C0000071
:104B300000000000000000000000000000003FF046
:104B40003FF0333033303330030003000300030001
:104B500003000FC00FC000000000000000000000B4
:104B60000000000000003CF03CF018601860186085
:104B700018601860186018601CE00FC00780000003
:104B8000000000000000000000000000000078F0BD
:104B900078F03060306018C018C00D800D800D8036
:104BA00007000700070000000000000000000000F0
:104BB0000000000000007C7C7C7C30183398339827
:104BC000339836D816D01C701C701C70183000003A
:104BD000000000000000000000000000000078F06D
:104BE00078F0306018C00D80070007000D8018C0F5
:104BF000306078F078F00000000000000000000055
:104C00000000000000003CF03CF018600CC0078081
:104C1000078003000300030003000FC00FC0000063
:104C200000000000000000000000000000001FE085
:104C30001FE0186018C001800300030006000C602C
:104C400018601FE01FE000000000000000000000EE
:104C50000000000003C003C00300030003000300C2
:104C6000030003000300030003000300030003002C
:104C700003C003C0000000000000180018000C0072
:104C80000C000C00060006000300030001800180F8
:104C900000C000C000C00060006000000000000014
:104CA000000000000F000F000300030003000300DA
:104CB00003000300030003000300030003000300DC
:104CC0000F000F00000000000000000002000700BD
:104CD0000D8018C03060202000000000000000009F
:104CE00000000000000000000000000000000000C4
:104CF00000000000000000000000000000000000B4
:104D000000000000000000000000000000000000A3
:104D1000000000000000FFFCFFFC00000400030096
:104D20000080000000000000000000000000000003
:104D30000000000000000000000000000000000073
:104D40000000000000000000000000000FC01FE095
:104D500000600FE01FE0386030E03FF01F7000009F
:104D60000000000000000000000000007000700063
:104D70003000300037803FE0386030303030303045
:104D800038607FE077800000000000000000000035
:104D900000000000000000000000000007B01FF04D
:104DA000183030303000300038301FF00FC00000B5
:104DB0000000000000000000000000000070007013
:104DC0000030003007B01FF0187030303030303015
:104DD00038701FF807B80000000000000000000055
:104DE00000000000000000000000000007801FE03D
:104DF00018603FF03FF0300018301FF007C000008F
:104E000000000000000000000000000003F007F0B8
:104E1000060006001FE01FE0060006000600060070
:104E200006001FE01FE0000000000000000000007E
:104E300000000000000000000000000007B81FF89C
:104E4000187030303030303018701FF007B000303C
:104E500000700FE00FC000000000000038003800B4
:104E6000180018001BC01FE01C6018601860186054
:104E700018603CF03CF00000000000000000000062
:104E80000000000003000300000000001F001F00DE
:104E9000030003000300030003001FE01FE0000005
:104EA00000000000000000000000000003000300FC
:104EB000000000001FC01FC000C000C000C000C034
:104EC00000C000C000C000C001C03F803F00000023
:104ED0000000000038003800180018001BE01BE03C
:104EE0001B001E001E001B00198039F039F0000065
:104EF0000000000000000000000000001F001F0074
:104F00000300030003000300030003000300030089
:104F100003001FE01FE00000000000000000000090
:104F20000000000000000000000000007EE07FF0B4
:104F3000333033303330333033307BB87BB800001C
:104F40000000000000000000000000000000000061
:104F5000000000003BC03FE01C6018601860186053
:104F600018603CF03CF00000000000000000000071
:104F700000000000000000000000000007801FE0AB
:104F8000186030303030303018601FE0078000008B
:104F90000000000000000000000000000000000011
:104FA0000000000077807FE03860303030303030F3
:104FB00038603FE03780300030007C007C0000002B
:104FC00000000000000000000000000007B81FF80B
:104FD000187030303030303018701FF007B00030AB
:104FE000003000F800F800000000000000000000A1
:104FF000000000003CE03DF00F300E000C000C0003
:105000000C003FC03FC00000000000000000000096
:1050100000000000000000000000000007E01FE0AA
:1050200018601E000FC001E018601FE01F80000024
:1050300000000000000000000000000000000C0064
:105040000C000C003FE03FE00C000C000C000C00DA
:105050000C300FF007C0000000000000000000004E
:1050600000000000000000000000000038E038E010
:10507000186018601860186018E01FF00F700000CA
:105080000000000000000000000000000000000020
:105090000000000078F078F0306018C018C00D8073
:1050A0000D80070007000000000000000000000065
:1050B00000000000000000000000000078F078F020
:1050C0003260326037E01DC01DC018C018C000003B
:1050D00000000000000000000000000000000000D0
:1050E000000000003CF03CF00CC00780030007808B
:1050F0000CC03CF03CF0000000000000000000008C
:1051000000000000000000000000000078F078F0CF
:10511000306018C018C00D800F8007000600060020
:105120000C007F007F000000000000000000000075
:10513000000000001FE01FE018C00180030006000F
:105140000C601FE01FE000000000000000000000F5
:105150000000000001C003C00300030003000300BF
:10516000030007000E000700030003000300030014
:1051700003C001C0000000000000000003000300A5
:105180000300030003000300030003000300030007
:1051900003000300030003000300030000000000FD
:1051A000000000001C001E000600060006000600AD
:1051B0000600070003800700060006000600060040
:1051C0001E001C00000000000000000000000000A5
:1051D0000000000000000E003F3033F001E000004E
:1051E00000000000000000000000000000000000BF
:1051F00000000000000000000000000000000000AF
:10520000000000000000000000000000000000009E
:10521000000000000000000000000000000000008E
:10522000000000000000000000000000000000007E
:10523000000000000000000000000000000000006E
:1052400003800003800003800003800003800003CC
:105250008000038000038000038000010000010043
:105260000000000000000003800003800000000038
:10527000000000000000000000000000000000002E
:1052800000000000000000000000000E70000E7022
:10529000000E700004200004200004200004200000
:1052A00000000000000000000000000000000000FE
:1052B00000000000000000000000000000000000EE
:1052C00000000000000000000000000000000000DE
:1052D0000660000660000660000660000660003F91
:1052E000F8003FF8000660000CC0003FF8003FF8EF
:1052F000000CC0000CC0000CC0000CC0000CC000B2
:10530000000000000000000000000000000000009D
:10531000000000000001800001800007B0000FF0D5
:10532000001870001870001C00000F800007E000DB
:1053300000F0001830001C30001C70001FE0001B43
:10534000C000018000018000018000018000000099
:10535000000000000000000000000000000000004D
:105360000780000FC0001CE0001860001860001CDF
:10537000E0000FF80007E0001FF0000738000618F3
:105380000006180007380003F00001E000000000EC
:10539000000000000000000000000000000000000D
:1053A000000000000000000000000000000003F00A
:1053B0000007F0000C60000C00000C00000600006C
:1053C0000700000F9C001DFC0018F0001870000F73
:1053D000FC0007DC000000000000000000000000EE
:1053E00000000000000000000000000000000000BD
:1053F0000000000380000380000380000100000122
:10540000000001000001000000000000000000009A
:10541000000000000000000000000000000000008C
:10542000000000000000000000000000000000007C
:1054300000000000000000000018000038000070AC
:105440000000F00000E00000E00001C00001C0002A
:1054500001C00001C00001C00001C00000E0000068
:10546000E00000700000700000380000180000002C
:10547000000000000000000000000000000000002C
:105480001800001C00000E00000E000007000007BE
:10549000000003800003800003800003800003807D
:1054A000000380000700000700000F00000E00004E
:1054B0001C000018000000000000000000000000B8
:1054C0000000000000000000018000018000018059
:1054D000001DB8001FF80007E00003C00003C00073
:1054E00006600006600000000000000000000000F0
:1054F00000000000000000000000000000000000AC
:10550000000000000000000000000000000000009B
:105510000000000000000180000180000180000107
:1055200080000180003FFC003FFC00018000018002
:1055300000018000018000018000000000000000E8
:10554000000000000000000000000000000000005B
:10555000000000000000000000000000000000004B
:10556000000000000000000000000000000000003B
:1055700000000000000000000000000000E000004B
:10558000C00001C000018000018000030000030092
:10559000000000000000000000000000000000000B
:1055A00000000000000000000000000000000000FB
:1055B00000000000001FF8001FF8000000000000BD
:1055C00000000000000000000000000000000000DB
:1055D00000000000000000000000000000000000CB
:1055E00000000000000000000000000000000000BB
:1055F00000000000000000000000000000000000AB
:1056000000000000000000000000000003C00003D4
:10561000C00003C000000000000000000000000007
:10562000000000000000000000000018000018004A
:1056300000380000300000700000600000600000D2
:10564000C00000C0000180000180000300000300D2
:10565000000600000600000E00000C00001C000008
:10566000180000180000000000000000000000000A
:10567000000000000000000003C00007E0000C3044
:10568000000C30001818001818001818001818001E
:105690001818001818001818000C30000C300007FB
:1056A000E00003C000000000000000000000000057
:1056B00000000000000000000000000000000000EA
:1056C0000080000780001F80001D80000180000115
:1056D00080000180000180000180000180000180C5
:1056E000000180000180001FF8001FF8000000008A
:1056F00000000000000000000000000000000000AA
:10570000000000000000000007C0001FF00038305B
:105710000030180030180000180000300000600051
:1057200001C0000380000600000C00001800003FCC
:10573000F8003FF80000000000000000000000003A
:105740000000000000000000000000000000000059
:1057500003C0000FE0000C700000300000300000BB
:10576000600003C00003E000007000001800001893
:10577000000018001838001FF0000FC000000000E3
:105780000000000000000000000000000000000019
:10579000000000000000000000E00001E00001E067
:1057A000000360000660000660000C60000C6000F2
:1057B0001860003060003FF8003FF8000060000310
:1057C000F80003F8000000000000000000000000E6
:1057D00000000000000000000000000000000000C9
:1057E0001FF0001FF0001800001800001800001B38
:1057F000C0001FF0001C3000001800001800001846
:10580000000018003030003FF0000FC00000000022
:105810000000000000000000000000000000000088
:10582000000000000000000000F80003F80007007E
:10583000000E00000C00001800001BC0001FF0004C
:105840001C30001818001818001818000C38000F29
:10585000F00003E000000000000000000000000075
:105860000000000000000000000000000000000038
:105870001FF8001FF800181800183800003000004A
:10588000300000700000600000600000E00000C018
:105890000000C00001C00001800001800000000085
:1058A00000000000000000000000000000000000F8
:1058B000000000000000000007E0000FF0001C38AE
:1058C000001818001818000C300007E00007E0006E
:1058D0000C30001818001818001818001C38000F99
:1058E000F00007E0000000000000000000000000E1
:1058F00000000000000000000000000000000000A8
:1059000007C0000FF0001C3000181800181800180D
:1059100018000C38000FF80003D800001800003001
:105920000000700000E0001FC0001F000000000029
:105930000000000000000000000000000000000067
:105940000000000000000000000000000000000057
:105950000000000003C00003C00003C000000000FE
:1059600000000000000000000000000003C0000371
:10597000C00003C0000000000000000000000000A4
:105980000000000000000000000000000000000017
:1059900000000000000000000000000000F0000017
:1059A000F00000F000000000000000000000000017
:1059B0000000E00001C00001800001800003000041
:1059C00002000000000000000000000000000000D5
:1059D0000000000000000000000000000000001CAB
:1059E00000003C0000F00003C0000F00003C00007D
:1059F000F000003C00000F000003C00000F00000B9
:105A00003C00001C0000000000000000000000003E
:105A10000000000000000000000000000000000086
:105A20000000000000000000000000000000007FF7
:105A3000FC007FFC000000000000007FFC007FFCF9
:105A40000000000000000000000000000000000056
:105A50000000000000000000000000000000000046
:105A600000000000000000000000000000007000C6
:105A7000007800001E000007800001E000007800B0
:105A8000001E0000780001E0000780001E00007882
:105A90000000700000000000000000000000000096
:105AA00000000000000000000000000000000000F6
:105AB00000000007C0000FE0001870001830001848
:105AC000300000700000E00003C00003800003000D
