:020000042000DA
:1000000000000220F1320020C1310020C331002065
:10001000C5310020C7310020C93100200000000098
:10002000000000000000000000000000CB310020B4
:10003000CD31002000000000CF310020D131002060
:100040004133002041330020413300204133002060
:100050004133002041330020413300204133002050
:100060004133002041330020413300204133002040
:100070004133002041330020413300204133002030
:100080004133002041330020413300204133002020
:100090004133002041330020413300204133002010
:1000A0004133002041330020413300204133002000
:1000B00041330020413300204133002041330020F0
:1000C00041330020413300204133002041330020E0
:1000D00041330020413300204133002041330020D0
:1000E00041330020413300204133002041330020C0
:1000F00041330020413300204133002041330020B0
:10010000413300204133002041330020413300209F
:100110004133002041330020D931002041330020F9
:10012000413300204133002041330020413300207F
:10013000413300204133002041330020413300206F
:10014000413300204133002041330020413300205F
:10015000413300204133002041330020413300204F
:10016000413300204133002041330020413300203F
:1001700041330020413300204133002000000000C3
:0801800041330020413300204F
:1001900010B5054C237833B9044B13B10448AFF3C1
:1001A00000800123237010BDD880012000000000D2
:1001B000D842002008B5034B1BB103490348AFF3F5
:1001C000008008BD00000000DC800120D842002033
:1001D00001F0FF01102A2BDB10F0070F08D010F8F8
:1001E000013B013A8B422DD010F0070F42B3F6D1FC
:1001F000F0B441EA012141EA014122F007047FF015
:1002000000070023F0E80256083C85EA010586EA6B
:10021000010685FA47F5A3FA87F586FA47F6A5FAA7
:1002200087F68EB9EED1F0BC01F0FF0102F00702B3
:1002300032B110F8013B013A83EA010313B1F8D15E
:100240000020704701387047002D06BF354603383F
:10025000073815F0010F07D1013015F4807F02BF78
:10026000013015F4C03F0130F0BC0138704700BFC9
:1002700053B94AB9002908BF00281CBF4FF0FF310D
:100280004FF0FF3000F07AB9ADF1080C6DE904CE03
:1002900000F006F8DDF804E0DDE9022304B0704761
:1002A0002DE9F0478C460D460446089E002B51D19F
:1002B0008A4217466DD9B2FA82FEBEF1000F0BD00A
:1002C000CEF1200C01FA0EF520FA0CFC02FA0EF722
:1002D0004CEA050C00FA0EF44FEA174A250CBCFB59
:1002E000FAF81FFA87F90AFB18CC45EA0C4508FB17
:1002F00009F3AB420AD9ED1908F1FF3280F02381EE
:10030000AB4240F22081A8F102083D44ED1AA4B2AC
:10031000B5FBFAF00AFB105544EA054400FB09F965
:10032000A14509D9E41900F1FF3380F00A81A14504
:1003300040F2078102383C44A4EB090440EA08403B
:100340000021002E61D024FA0EF400233460736083
:10035000BDE8F0878B4207D9002E54D0002186E8F3
:1003600021000846BDE8F087B3FA83F1002940F088
:100370008E80AB4202D3824200F2FA80841A65EB8F
:1003800003050120AC46002E3FD086E81010BDE8E2
:10039000F08712B90127B7FBF2F7B7FA87FEBEF173
:1003A000000F34D1EB1B3A0C1FFA87FC0121B3FB81
:1003B000F2F8250C02FB183345EA03450CFB08F361
:1003C000AB4207D9ED1908F1FF3002D2AB4200F27F
:1003D000D1808046ED1AA3B2B5FBF2F002FB1055B6
:1003E00043EA05440CFB00FCA44507D9E41900F1DD
:1003F000FF3302D2A44500F2B8801846A4EB0C04E7
:1004000040EA08409DE731463046BDE8F087CEF12E
:10041000200405FA0EF307FA0EF720FA04F83A0C56
:1004200025FA04F448EA0308B4FBF2F14FEA184550
:1004300002FB11441FFA87FC45EA044501FB0CF35B
:10044000AB4200FA0EF409D9ED1901F1FF3080F04A
:100450008A80AB4240F2878002393D44EB1A1FFA92
:1004600088F5B3FBF2F002FB103345EA034500FBCD
:100470000CF3AB4207D9ED1900F1FF386FD2AB4254
:100480006DD902383D44EB1A40EA01418FE7C1F1D2
:10049000200722FA07F88B4005FA01F448EA030323
:1004A00020FA07FE4FEA134CFD404EEA040EB5FB5E
:1004B000FCF94FEA1E440CFB19551FFA83F844EA75
:1004C000054509FB08F4AC4202FA01F200FA01FA10
:1004D00008D9ED1809F1FF3043D2AC4241D9A9F156
:1004E00002091D442D1B1FFA8EFEB5FBFCF00CFB10
:1004F00010554EEA054400FB08F8A04507D9E4185A
:1005000000F1FF3529D2A04527D902381C4440EA22
:100510000940A4EB0804A0FB02894C45C6464D46A1
:1005200015D312D056B1BAEB0E0364EB050404FAEE
:1005300007F7CB401F43CC40376074600021BDE813
:10054000F0871846F8E69046E0E6C245EAD2B8EBF6
:10055000020E69EB03050138E4E72846D7E7404679
:1005600091E78146BEE7014678E702383C4445E71B
:10057000084608E7A8F102083D442BE7704700BF92
:1005800008B50B4B1A6842F400721A601A6842F4FC
:1005900080621A601A6842F480721A60032000F0C8
:1005A0002FF8002002F0CEFD02F070FD002008BD03
:1005B000003C0240034A1168034B1B780B44136054
:1005C000704700BF7084012000800120014B186833
:1005D000704700BF7084012038B50446FFF7F6FF6E
:1005E0000546B4F1FF3F02D0044B1B781C44FFF7D3
:1005F000EDFF401B8442FAD838BD00BF00800120C7
:10060000074AD36823F4E0631B041B0C000200F4C8
:10061000E060184340F0BF6040F40030D0607047A5
:1006200000ED00E030B4164BDB68C3F30223C3F1E6
:100630000704042C28BF04241D1D062D17D9033BD5
:10064000012505FA04F4013C2140994005FA03F321
:10065000013B1340194300280BDB0901C9B200F12B
:10066000604000F5614080F8001330BC7047002303
:10067000E6E700F00F000901C9B2024B1954F4E794
:1006800000ED00E014ED00E0420900F01F0001233E
:1006900003FA00F0014B43F82200704700E100E04C
:1006A0000138B0F1807F0AD2064B5860F021064A2B
:1006B00082F823100020986007221A6070470120FA
:1006C000704700BF10E000E000ED00E0042805D016
:1006D000054A136823F0040313607047024A136845
:1006E00043F004031360704710E000E0704708B562
:1006F000FFF7FCFF08BD0000F0B583B000244BE01D
:100700004FEAD40E0EF1080E50F82E2004F0070622
:10071000B6000F27B74022EA07020F6907FA06F66C
:10072000324340F82E2046E0072600E0002606FA75
:100730000EF6324302335E4E46F823205D4B1A68B4
:10074000EB4302EA03064F6817F4803F01D045EA05
:100750000206584A1660526803EA02064F6817F408
:10076000003F01D045EA0206524A5660926803EA09
:1007700002064F6817F4801F01D045EA02064D4A71
:100780009660D26813404E6816F4001F01D045EA07
:100790000203484AD36001340F2C00F28680012303
:1007A000A3400A6803EA0205AB42F4D14A68022A70
:1007B000A6D0122AA4D006684FEA440E032202FAF9
:1007C0000EF2D24316404F6807F0030707FA0EF700
:1007D0003E4306604E68771E012F03D9112E01D0CB
:1007E000122E0FD186681640CF6807FA0EF73E43E7
:1007F0008660466826EA03034E68C6F30016A640E4
:1008000033434360C3681A408B6803FA0EF31A43FC
:10081000C2604B6813F0805FBDD000230193264B6C
:100820005A6C42F480425A645B6C03F48043019337
:10083000019BA3089E1C1E4A52F8262004F00306C2
:100840004FEA860E0F2606FA0EF622EA06021B4F24
:10085000B8423FF46BAF1A4EB0421AD006F580662C
:10086000B04218D006F58066B04216D006F5806614
:10087000B04214D006F58066B04212D006F580660C
:10088000B04210D006F58066B0423FF44DAF082666
:100890004DE701264BE7022649E7032647E70426F2
:1008A00045E7052643E7062641E703B0F0BD00BF54
:1008B00000380140003C0140003802400000024086
:1008C00000040240002800F0BB8170B582B00446ED
:1008D000036813F0010F3BD0A74B9B6803F00C0398
:1008E000042B2CD0A44B9B6803F00C03082B21D0C5
:1008F0006368B3F5803F4FD0B3F5A02F52D09E4B25
:100900001A6822F480321A601A6822F480221A606F
:100910006368002B50D0FFF759FE0546964B1B68C5
:1009200013F4003F14D1FFF751FE401B6428F5D9A2
:1009300003208AE1904B5B6813F4800FD8D08E4B74
:100940001B6813F4003F03D06368002B00F07A812A
:10095000236813F0020F55D0874B9B6813F00C0FE0
:100960003ED0854B9B6803F00C03082B33D0E36823
:10097000002B68D00122814B1A60FFF727FE054645
:100980007D4B1B6813F0020F54D1FFF71FFE401B75
:100990000228F5D9032058E1774A136843F48033DD
:1009A0001360B5E7744B1A6842F480221A601A6823
:1009B00042F480321A60ABE7FFF708FE05466E4B43
:1009C0001B6813F4003FC3D0FFF700FE401B6428F0
:1009D000F5D9032039E1684B5B6813F4800FC6D169
:1009E000654B1B6813F0020F04D0E368012B01D0A4
:1009F00001202AE1604A136823F0F803216943EAE1
:100A0000C1031360236813F0080F40D0636963B318
:100A100001225B4B1A60FFF7D9FD0546564B5B6F11
:100A200013F0020F33D1FFF7D1FD401B0228F5D997
:100A300003200AE1504A136823F0F803216943EACE
:100A4000C1031360DEE700224C4B1A60FFF7BEFDC6
:100A50000546494B1B6813F0020FD3D0FFF7B6FDD4
:100A6000401B0228F5D90320EFE00022444B1A6016
:100A7000FFF7ACFD0546404B5B6F13F0020F06D04D
:100A8000FFF7A4FD401B0228F5D90320DDE0236811
:100A900013F0040F79D0384B1B6C13F0805F33D107
:100AA00000230193344B1A6C42F080521A641B6C81
:100AB00003F080530193019B0125324B1B6813F413
:100AC000807F23D0A368012B34D0052B38D02A4B4C
:100AD0001A6F22F001021A671A6F22F004021A67D5
:100AE000A368002B36D0FFF771FD0646224B1B6F23
:100AF00013F0020F48D1FFF769FD801B41F28833E4
:100B00009842F3D90320A0E00025D6E71D4A1368D8
:100B100043F480731360FFF759FD0646194B1B68B9
:100B200013F4807FCED1FFF751FD801B0228F5D949
:100B300003208AE0104A136F43F001031367CFE7E5
:100B40000D4B1A6F42F004021A671A6F42F001024D
:100B50001A67C5E7FFF73AFD0646074B1B6F13F010
:100B6000020F11D0FFF732FD801B41F2883398420B
:100B7000F3D9032069E000BF00380240000047427B
:100B8000800E474200700040E5B9A369002B5BD09E
:100B9000304A926802F00C02082A58D0022B17D073
:100BA00000222D4B1A60FFF711FD0446294B1B68EC
:100BB00013F0007F42D0FFF709FD001B0228F5D992
:100BC000032042E0234A136C23F080531364DCE7D4
:100BD0000022214B1A60FFF7F9FC05461D4B1B68EC
:100BE00013F0007F06D0FFF7F1FC401B0228F5D977
:100BF00003202AE0E369226A1343626A43EA82130C
:100C0000A26A5208013A43EA0243E26A43EA0263F3
:100C1000104A53600122104B1A60FFF7D7FC0446BC
:100C20000C4B1B6813F0007F06D1FFF7CFFC001BB5
:100C30000228F5D9032008E0002006E0002004E0A7
:100C400001207047012000E0002002B070BD0120AB
:100C5000FBE700BF0038024060004742F8B5314B67
:100C60009B6803F00C03042B59D0082B01D02E48AD
:100C7000F8BD2C4B5A6802F03F025B6813F4800FFA
:100C80002AD0284B5B68C3F388131E4600275C01FB
:100C90000025E41A65EB0705A90141EA9461A0016A
:100CA000001B61EB0501CB0043EA5073C400A0199F
:100CB00043EB07014B0243EAD05344022046194656
:100CC0000023FFF7D5FA174B5B68C3F301430133E9
:100CD0005B00B0FBF3F0F8BD124B5B68C3F3881305
:100CE0001E4600275C010025E41A65EB0705A901F3
:100CF00041EA9461A001001B61EB0501CB0043EACE
:100D00005073C400A01943EB07018B0243EA9053D0
:100D10008402204619460023FFF7AAFAD3E70348C6
:100D2000F8BD00BF003802400024F40000127A0031
:100D3000002800F09D8070B504464F4B1B6803F0FF
:100D40000F038B4209D2CBB24B4A1370136803F0E6
:100D50000F03994201D0012070BD236813F0020FE8
:100D600017D013F0040F04D0444A936843F4E053BF
:100D70009360236813F0080F04D0404A936843F44B
:100D8000604393603D4A936823F0F003A0680343F7
:100D900093600D46236813F0010F32D06368012B76
:100DA00021D09A1E012A25D9344A126812F0020F66
:100DB00060D032498A6822F0030213438B60FFF748
:100DC00005FC06462D4B9B6803F00C036268B3EBF1
:100DD000820F16D0FFF7FAFB801B41F2883398424E
:100DE000F0D9032070BD254A126812F4003FE0D10B
:100DF000012070BD214A126812F0007FD9D1012074
:100E000070BD1D4B1B6803F00F039D4209D2EAB26F
:100E1000194B1A701B6803F00F039D4201D001208B
:100E200070BD236813F0040F06D0144A936823F4AE
:100E3000E053E1680B439360236813F0080F07D079
:100E40000E4A936823F46043216943EAC103936027
:100E5000FFF704FF094B9B68C3F30313084AD35CF5
:100E6000D840084B1860002002F06CF9002070BDDB
:100E700001207047012070BD003C02400038024054
:100E80002CB0002070800120014B1868704700BF13
:100E90007080012008B5FFF7F7FF044B9B68C3F390
:100EA0008223034AD35CD84008BD00BF003802400B
:100EB0003CB000200F2303600B4B9A6802F0030242
:100EC00042609A6802F0F00282609A6802F4E0528E
:100ED000C2609B68DB0803F4E0530361034B1B68AB
:100EE00003F00F030B60704700380240003C0240E3
:100EF00030B583B00546036813F0050F06D12B68A3
:100F000013F0020F2ED1002003B030BD0022494B58
:100F10001A60FFF75BFB0446474B1B6813F0006F3A
:100F200006D0FFF753FB001B0228F5D90320EBE79F
:100F30006A68AB681B0743EA82133F4AC2F88430F1
:100F400001223C4B1A60FFF741FB04463A4B1B68F9
:100F500013F0006FD3D1FFF739FB001B0228F5D93E
:100F60000320D1E700230193334B1A6C42F08052E7
:100F70001A641B6C03F080530193019B2F4A136882
:100F800043F480731360FFF721FB04462B4B1B686F
:100F900013F4807F06D1FFF719FB001B0228F5D957
:100FA0000320B1E7244B1B6F13F4407312D0EA689F
:100FB00002F4407293420DD01F4B1A6F22F440721C
:100FC0001F4901200860002008601A671B6F13F09A
:100FD000010F13D1EB6803F44072B2F5407F1ED0CD
:100FE000154A936823F4F813936013490B6FEA686A
:100FF000C2F30B0213430B67002085E7FFF7E6FA05
:1010000004460D4B1B6F13F0020FE3D1FFF7DEFA1E
:10101000001B41F288339842F3D9032074E7064954
:101020008A6822F4F81223F0704323F440731343C8
:101030008B60DAE7680047420038024000700040E9
:10104000400E474238B504460268D36823F0A00337
:10105000D360FFF7BBFA05462368DB6813F0200F67
:1010600007D1FFF7B3FA401BB0F57A7FF4D903201C
:1010700038BD002038BD38B50368DA6812F0400F7B
:1010800001D0002038BD04464FF0FF32DA60FFF790
:101090009DFA05462368DB6813F0400F07D1FFF780
:1010A00095FA401BB0F57A7FF4D9032038BD0020B3
:1010B00038BD38B500285CD00446437F002B41D0B2
:1010C000022363772368CA225A62236853225A6232
:1010D0002046FFF7D0FF0546002837D122689368E5
:1010E00023F4E00323F04003936021688A68636877
:1010F000206903436069034313438B602368E268FC
:101100001A6122681369A16843EA014313612268E6
:10111000D36823F08003D36023689B6813F0200F0B
:101120001BD02268136C23F4802313642268136C91
:10113000A1690B4313642368FF225A62012363777A
:10114000284638BD037701F0EBFFB9E72368FF229B
:101150005A62042363770125F2E72046FFF772FF06
:101160000028DED02368FF225A620423637701251A
:10117000E6E70125E4E728B370B5044615460E46B8
:1011800090F84930CBB104F10801206800F094F9DF
:10119000A2683146206800F0BBF9236BA26829469B
:1011A000606800F0D5F92268A16852F8213043F058
:1011B000010342F82130002070BD80F8483001F072
:1011C000BDFFE0E70120704770470268D36843F035
:1011D0000103D3600268136843F001031360002029
:1011E0007047704770477047704710B504460368F2
:1011F0001A6912F0020F11D0DA6812F0020F0DD046
:101200006FF002021A610123037603689B6913F0F1
:10121000030F70D0FFF7E6FF0023237623681A69D7
:1012200012F0040F12D0DA6812F0040F0ED06FF033
:1012300004021A610223237623689B6913F4407F1A
:101240005FD02046FFF7CEFF0023237623681A697C
:1012500012F0080F12D0DA6812F0080F0ED06FF0FB
:1012600008021A61042323762368DB6913F0030F55
:101270004ED02046FFF7B6FF0023237623681A6975
:1012800012F0100F12D0DA6812F0100F0ED06FF0BB
:1012900010021A61082323762368DB6913F4407F68
:1012A0003DD02046FFF79EFF0023237623681A696E
:1012B00012F0010F03D0DA6812F0010F36D1236863
:1012C0001A6912F0800F03D0DA6812F0800F34D15F
:1012D00023681A6912F0400F03D0DA6812F0400F49
:1012E00032D123681A6912F0200F03D0DA6812F0A5
:1012F000200F30D110BDFFF774FF2046FFF773FFBA
:101300008AE72046FFF76DFF2046FFF76CFF9BE75B
:101310002046FFF766FF2046FFF765FFACE7204653
:10132000FFF75FFF2046FFF75EFFBDE76FF00102AA
:101330001A61204601F092FDC1E76FF080021A6148
:10134000204600F0B7F8C3E76FF040021A6120466C
:10135000FFF74AFFC5E76FF020021A61204600F050
:10136000A8F8C7E70368454A90424AD0B0F1804FD9
:1013700049D0A2F57C42904247D002F5806290426B
:1013800045D002F58062904243D002F57842904207
:1013900035D000221AB123F070034A681343374A4C
:1013A00090423AD0B0F1804F50D0A2F57C429042AA
:1013B0004ED002F5806290424CD002F5806290429D
:1013C0004AD002F57842904248D002F570529042DD
:1013D00046D002F58062904244D002F5806290428D
:1013E00042D0A2F59832904240D002F580629042FD
:1013F0003ED002F5806290420DD000220EE0012224
:10140000C8E70122C6E70122C4E70122C2E70122A0
:10141000C0E70122BEE7012200E001221AB123F455
:101420004073CA68134303608B68C3620B688362AE
:10143000124B984220D003F5806398421AD00023C3
:101440000BB10B6903630123436170470122E5E798
:101450000122E3E70122E1E70122DFE70122DDE7E4
:101460000122DBE70122D9E70122D7E70122D5E7F4
:101470000122D3E70123E3E70123E1E70000014074
:10148000A8B110B5044690F839305BB1022384F856
:101490003930211D2068FFF765FF012384F83930BA
:1014A000002010BD80F83830FFF78EFEEEE70120F7
:1014B000704770477047000070B40C6850F82430D3
:1014C000124A1A404B688D682B43CE6833430E692D
:1014D00033434E6933438E693343CE6933430E6AD7
:1014E00033434E6A33438E6A3343CE6A3343CE6B03
:1014F0003343096B0B431343082D04D040F82430C9
:10150000002070BC704743F04003F7E78000F0FF15
:1015100030B4013250F8224004F040440B684D686A
:1015200043EA05138D6843EA0523CD6843EA054382
:101530000D69013D43EA05534D69023D43EA0563E8
:1015400089690B43234340F82230002030BC7047A8
:10155000B3F5804F05D06FF0704340F82230002083
:10156000704730B450F82230094C1C400B684D686D
:1015700043EA05138D6843EA0523CD6843EA054332
:1015800089690B43234340F82230002030BC704768
:101590000000F0CF10B5FFF719F80446002001F065
:1015A00051F9FFF713F8001B10BD00002DE9F843B7
:1015B0000746FFF70BF88046002625E001F062FFA2
:1015C000054601F017F995FBF0F400FB1454A4B2A2
:1015D00001F058FF814601F015F999FBF0F500FB89
:1015E0001595ADB201F04EFF0B4A82FB0032131885
:1015F000C217C2EBE332C2EB0242821A92B2294610
:10160000204601F053F90136BE42D7D3FEF7DEFF84
:10161000A0EB0800BDE8F883018000802DE9F84FB9
:101620008146FEF7D3FF82464FF000083FE001F00D
:1016300029FF054601F0DEF895FBF0F400FB145499
:10164000A4B201F01FFF064601F0DCF896FBF0F5AE
:1016500000FB1565ADB201F015FF074601F0CAF8B1
:1016600097FBF0F600FB1676B6B201F00BFF83464F
:1016700001F0C8F89BFBF0F700FB17B7BFB201F011
:1016800001FF0F4B83FB00231A18C317C3EBE23390
:10169000C3EB0343C31A58BA80B201F0BBF83B4610
:1016A00032462946204601F04BF908F10108C845A9
:1016B000BDD3FEF78BFFA0EB0A00BDE8F88F00BF9B
:1016C000018000802DE9F84F8146FEF77FFF8246BA
:1016D0004FF0000845E001F0D5FE054601F08AF81C
:1016E000C0F34F0095FBF0F400FB1454A4B201F0DA
:1016F000C9FE064601F086F8C0F34F0096FBF0F5F0
:1017000000FB1565ADB201F0BDFE074601F072F8B1
:10171000001B97FBF0F600FB1676B6B201F0B2FEA6
:10172000834601F06FF8401B9BFBF0F700FB17B7F7
:10173000BFB201F0A7FE0F4B83FB00231A18C3179B
:10174000C3EBE233C3EB0343C31A58BA80B201F0D0
:1017500061F82B4622463946304601F08FFA08F1EF
:101760000108C845B7D3FEF731FFA0EB0A00BDE87A
:10177000F88F00BF018000802DE9F8430746FEF78F
:1017800025FF8046002651E03F4801F04FF801F068
:1017900053F8054601F076FE814601F02BF8AC883F
:1017A000001B99FBF0F400FB149084B201F06AFE78
:1017B000814601F027F8ED88401B99FBF0F500FB0E
:1017C000159085B201F05EFEDFF8D89089FB00230A
:1017D0001A18C317C3EBE233C3EB0343C31A58BA57
:1017E00080B201F017F801F04DFE89FB0039814409
:1017F000C317C3EBE933C3EB0343C31A58BA80B230
:1018000001F00EF801F03EFE204B83FB0023C217CF
:10181000C2EB231202EB42025301C21AD2B22032AF
:10182000D2B22946204601F015FA0136BE4225D231
:1018300001F028FE164A82FB0032C317C3EB620395
:1018400003EB8303C31A13F0FF039DD0012B09D0D0
:10185000022B0BD0032B0DD0042B98D10D4800F098
:10186000E5FF94E70C4800F0E1FF90E70B4800F03B
:10187000DDFF8CE70A4800F0D9FF88E7FEF7A6FEF7
:10188000A0EB0800BDE8F88324800120ABAAAA2AB7
:10189000676666661C800120048001200C800120A0
:1018A00014800120018000802DE9F84F804600F06F
:1018B000A1FF064600F0A6FF864206D8C6F38F06B3
:1018C000FEF784FE8146002740E000F09BFF0646BD
:1018D000F4E701F0D7FD90FBF6F406FB1404A5B283
:1018E000002DF6D001F0CEFD834600F083FF1B4BA8
:1018F00003EA4404001B9BFBF0FA00FB1ABA15FA3A
:101900008AFA1FFA8AFA01F0BDFD834600F07AFFD9
:10191000001B9BFBF0F400FB14B415FA84F4A4B292
:1019200001F0B0FD0E4B83FB00231A18C317C3EB65
:10193000E233C3EB0343C31A58BA80B200F06AFF24
:101940002A462146504601F067F801374745C0D383
:10195000FEF73CFEA0EB0900BDE8F88FFEFF01009A
:10196000018000802DE9F84F804600F043FF0646D5
:1019700000F048FF864206D8C6F38F06FEF726FE23
:101980008146002740E000F03DFF0646F4E701F005
:1019900079FD90FBF6F406FB1404A5B2002DF6D0F9
:1019A00001F070FD834600F025FF1B4B03EA440461
:1019B000001B9BFBF0FA00FB1ABA15FA8AFA1FFA11
:1019C0008AFA01F05FFD834600F01CFF001B9BFBC1
:1019D000F0F400FB14B415FA84F4A4B201F052FD43
:1019E0000E4B83FB00231A18C317C3EBE233C3EB80
:1019F0000343C31A58BA80B200F00CFF2A462146AE
:101A0000504601F04BF901374745C0D3FEF7DEFDE4
:101A1000A0EB0900BDE8F88FFEFF01000180008007
:101A20002DE9F84FFEF7D2FD814600F0E3FE0746B0
:101A300000F0E8FE8046002542E02C02B4FBF7F4FB
:101A4000260226F4FF6323F0070318B24FEAC40A04
:101A50000AF4FF6A0AF4FC631843C4F3C404204385
:101A600040BA80B200F0D6FEC8F38F0B5A46002170
:101A7000284600F045FF06F4784040BA80B200F0F6
:101A8000C9FE5A465946284600F03AFF0AF4FC605F
:101A900040BA80B200F0BEFEC8F34F065A46314647
:101AA000284600F02DFF60BA80B200F0B3FE0BEBC9
:101AB00006015A4689B2284600F022FF0135ADB230
:101AC000BD42BAD3FEF782FDA0EB0900BDE8F88F56
:101AD0002DE9F8430746FEF779FD804600261FE012
:101AE00001F0D0FC814600F085FE114DD5F8124082
:101AF000001BB9FBF0F400FB149084B201F0C2FCAF
:101B0000814600F07FFED5F81610401AB9FBF0F1BF
:101B100000FB11912A4689B2204600F0EBFF013606
:101B2000BE42DDD3FEF752FDA0EB0800BDE8F8830E
:101B3000284400202DE9F04F85B00446334AD2F8FE
:101B400012801FFA88F7D2F816A01FFA8AF9052129
:101B5000142000F0CFFFFEF739FD039018E01FFAC4
:101B600088F506FB0545711D04F1140089B280B2A9
:101B700001F00CF9264B23F815000134A4B2BC4245
:101B8000EDD30136B6B24E4501D20024F7E75C46EC
:101B900004F1FF3B0CB10026F5E7FEF717FD039BB0
:101BA000C51A00201BE001339BB2BB4215D21FFABD
:101BB00088F202FB0036164931F816601FFA8AF1E6
:101BC0000139091A01FB02321832104901EB4202B5
:101BD000D2889642E7D00134E5E7013080B248452B
:101BE00001D20023E1E75CB9094B00934B463A462A
:101BF0000F21412001F0D6F8284605B0BDE8F08F4E
:101C00002146044801F0C2FBEEE700BF2844002053
:101C1000748401200C4300202DE9F04782B0044673
:101C2000294AD2F81260B5B2D2F816701FFA87F8B6
:101C30000521142000F05EFFFEF7C8FC814608E095
:101C4000224B009343462A460521142001F0B6F8A2
:101C5000544604F1FF3A002CF2D1FEF7B7FCA0EB9A
:101C60000909002019E001339BB2AB4213D2B2B292
:101C700002FB003E154931F81EE0B9B20139091ADC
:101C800001FB02321832104901EB4202D28896451C
:101C9000E9D00134E7E7013080B2404501D20023AA
:101CA000E3E75CB9094B009343462A461921052016
:101CB00001F078F8484602B0BDE8F08721460448B4
:101CC00001F064FBEEE700BF28440020748401208B
:101CD000F042002008B54FF49670FEF77DFC00F04E
:101CE000C7FD01F0CFFB6420FEF776FC01F042F85F
:101CF0000146594801F04AFB6420FEF76DFC574B42
:101D00001B689B6B00200021C3E90401FFF742FC24
:101D10000146534801F03AFB4FF47A70FEF75CFC41
:101D20005048FFF743FC01464F4801F02FFB4FF4AA
:101D30007A70FEF751FC002000F084FD4FF47A70B9
:101D4000FFF76CFC0146494801F020FB4FF47A7024
:101D5000FEF742FC002000F075FDFA20FFF7B2FC10
:101D60000146434801F012FB4FF47A70FEF734FC51
:101D7000002000F067FD4FF47A70FFF795FD0146F3
:101D80003C4801F003FB4FF47A70FEF725FC00207D
:101D900000F058FDFA20FFF7E5FD0146364801F056
:101DA000F5FA4FF47A70FEF717FC002000F04AFDB8
:101DB00041F28830FFF7E0FC0146304801F0E6FAD6
:101DC0004FF47A70FEF708FC002000F03BFD642021
:101DD000FFF77EFE01462A4801F0D8FA4FF47A70E8
:101DE000FEF7FAFB002000F02DFD1420FFF7A2FE05
:101DF0000146244801F0CAFA4FF47A70FEF7ECFB72
:101E0000002000F01FFD1420FFF706FF01461E48CA
:101E100001F0BCFA4FF47A70FEF7DEFB002000F010
:101E200011FDFFF7FDFD0146184801F0AFFA40F63D
:101E3000B830FEF7D1FB00F095FF4FF47A70FEF753
:101E4000CBFB00F087FF4FF47A70FEF7C5FB10481C
:101E500001F010FB53E700BF2843002074800120ED
:101E60003C430020A0860100E043002050430020B6
:101E7000644300207C43002094430020B0430020B2
:101E8000C4430020DC430020F44300200C44002025
:101E9000204400204FF4A0707047F02070470000ED
:101EA00008B5954B1B7813F0010F40F0218143F0EA
:101EB0000103914A137013F0020F00F01A818E4A49
:101EC000137843F0020313704FF4734000F0D6FB15
:101ED0004FF4006000F0D6FB052000F07CFB4FF4CF
:101EE000807000F0CBFB012000F0CCFB4FF40070C1
:101EF00000F0C4FB072000F0C5FB4FF4407000F079
:101F0000BDFB43F6100000F0BDFB4FF4006000F095
:101F1000B5FB40F2032000F0B5FB4FF4106000F079
:101F2000ADFB002000F0AEFB4FF4805000F0A6FBAC
:101F3000002000F0A7FB4FF4885000F09FFB4FF407
:101F4000E06000F09FFB4FF4905000F097FB002002
:101F500000F098FB4FF4985000F090FB002000F048
:101F600091FB052000F037FB4FF4805000F086FB1A
:101F70004BF2140000F086FB052000F02CFB4FF420
:101F8000885000F07BFB4FF4E06000F07BFB052005
:101F900000F021FB4FF4905000F070FB4FF40E4026
:101FA00000F070FB4FF4985000F068FB0C2000F03C
:101FB00069FB4FF4245000F061FB4FF4A85000F08F
:101FC00061FB052000F007FB4FF4405000F056FB8A
:101FD000002000F057FB4FF4445000F04FFB40F25C
:101FE000017000F04FFB4FF4485000F047FB002019
:101FF00000F048FB4FF4545000F040FB40F2023038
:1020000000F040FB4FF4585000F038FB4FF40170E3
:1020100000F038FB4FF45C5000F030FB002000F083
:1020200031FB4FF4605000F029FB40F2027000F0E9
:1020300029FB4FF4645000F021FB002000F022FB4C
:102040004FF4705000F01AFB40F2023000F01AFB1F
:102050004FF4745000F012FB4FF4417000F012FB8B
:102060004FF4A04000F00AFB002000F00BFB4FF4FF
:10207000A24000F003FB4FF46F4000F003FB4FF46D
:10208000A44000F0FBFA002000F0FCFA4FF4A64058
:1020900000F0F4FA43F6017000F0F4FA4FF4C04097
:1020A00000F0ECFA272000F0EDFA4FF4C24000F007
:1020B000E5FA4FF4807000F0E5FA4FF4104000F0BC
:1020C000DDFA4FF4245000F0DDFA052000F083FA29
:1020D0004FF42C5000F0D2FA4FF4606000F0D2FAC6
:1020E0004FF4E06000F0CAFA43F2013000F0CAFA9F
:1020F00008BD00F081FAE2E6F480012008B54FF453
:10210000805000F0BBFA002000F0BCFA4FF4885079
:1021100000F0B4FA002000F0B5FA4FF4905000F04F
:10212000ADFA002000F0AEFA4FF4985000F0A6FA95
:10213000002000F0A7FA052000F04DFA4FF480507F
:1021400000F09CFA4BF2140000F09CFA4FF4885017
:1021500000F094FA4FF4E06000F094FA4FF49050DD
:1021600000F08CFA4FF40E4000F08CFA4FF49850C7
:1021700000F084FA0C2000F085FA4FF4245000F0AF
:102180007DFA4FF4A85000F07DFA4FF42C5000F087
:1021900075FA4FF4606000F075FA4FF4E06000F0FB
:1021A0006DFA43F2013000F06DFA012000F018FAE8
:1021B00008BD08B54FF4805000F060FA002000F030
:1021C00061FA4FF4885000F059FA002000F05AFAF2
:1021D0004FF4905000F052FA002000F053FA4FF400
:1021E000985000F04BFA002000F04CFA4FF42450C5
:1021F00000F044FA002000F045FA4FF4E06000F0EF
:102200003DFA002000F03EFA002000F0E9F908BD98
:1022100038B504460D464FF4005000F02FFA68BA66
:1022200080B200F02FFA4FF4045000F027FA60BAA1
:1022300080B200F027FA38BD70B504460D46164648
:102240004FF4005000F01AFA68BA80B200F01AFA9F
:102250004FF4045000F012FA60BA80B200F012FAA3
:102260004FF4085000F00AFA304600F00BFA70BD47
:10227000F8B506460F4614461D464FF4A04000F040
:10228000FDF978BA80B200F0FDF94FF4A24000F0F9
:10229000F5F9E819013840BA80B200F0F3F94FF4CB
:1022A000A44000F0EBF970BA80B200F0EBF94FF403
:1022B000A64000F0E3F9A019013840BA80B200F05E
:1022C000E1F9F8BD00B583B0094B1B786BB102236F
:1022D00001220DF10601002000F048FABDF80600C9
:1022E00040BA80B203B05DF804FBFFF7D9FDEEE71A
:1022F000F480012030B583B004460D464FF4005001
:1023000000F0BCF968BA80B200F0BCF94FF4045098
:1023100000F0B4F960BA80B200F0B4F902230122EF
:102320000DF106014FF4085000F020FABDF8060048
:1023300003B030BD2DE9F0470746894690469A46DE
:10234000089D0E461FE04FF4005000F097F970BA58
:1023500080B200F097F94FF4045000F08FF960BAA2
:1023600080B200F08FF90223012229464FF4085071
:1023700000F0FCF902350134A4B207EB08039C42DB
:10238000E1DB0136B6B209EB0A039E4201DA3C46B4
:10239000F3E7BDE8F087F8B506460C4615461F463C
:1023A0004FF4005000F06AF968BA80B200F06AF9A0
:1023B0004FF4045000F062F960BA80B200F062F9A4
:1023C0003A4631464FF4085000F062F9F8BDF8B5CE
:1023D00006460C4615461F464FF4407000F04EF975
:1023E00043F2100000F04EF94FF4005000F046F9AF
:1023F00068BA80B200F046F94FF4045000F03EF99C
:1024000060BA80B200F03EF93A4631464FF40850C7
:1024100000F03EF94FF4407000F030F943F6100040
:1024200000F030F9F8BDF8B504460D4616461F46D3
:10243000FFF71EFF4FF4005000F020F968BA80B299
:1024400000F020F94FF4045000F018F960BA80B29F
:1024500000F018F907FB06F2BDF818104FF4085009
:1024600000F016F94FF4A04000F008F9002000F049
:1024700009F94FF4A24000F001F94FF46F4000F069
:1024800001F94FF4A44000F0F9F8002000F0FAF848
:102490004FF4A64000F0F2F843F6017000F0F2F8B5
:1024A000F8BDF8B50746947DD37D04EB032411FAFB
:1024B00084F4A4B2013CA4B25688B6B2938846EA2A
:1024C00003465589ADB2938945EA0345761B7608E4
:1024D00015444FF4407000F0D1F842F6100000F0BF
:1024E000D1F84FF4005000F0C9F860BA80B200F0A3
:1024F000C9F84FF4045000F0C1F878BA80B200F087
:10250000C1F8324629464FF4085000F0F9F84FF46C
:10251000407000F0B3F843F6100000F0B3F84FF449
:10252000A04000F0ABF8002000F0ACF84FF4A2405F
:1025300000F0A4F84FF46F4000F0A4F84FF4A4406A
:1025400000F09CF8002000F09DF84FF4A64000F049
:1025500095F843F6017000F095F8F8BDF8B504461B
:102560000D4616461F46FFF783FE4FF4005000F05D
:1025700085F868BA80B200F085F84FF4045000F096
:102580007DF860BA80B200F07DF807FB06F206998C
:102590004FF4085000F0B4F84FF4A04000F06EF88B
:1025A000002000F06FF84FF4A24000F067F84FF4FD
:1025B0006F4000F067F84FF4A44000F05FF800208F
:1025C00000F060F84FF4A64000F058F843F60170B0
:1025D00000F058F8F8BD08B5FDF7FEFF08BD000093
:1025E00018B90122034B1A6070470022014B1A6090
:1025F000704700BF848240422DE978411A4C636CD9
:1026000043F004036364636C43F0020363640026D5
:10261000164B1E60164A136823F00C0343F00403A4
:10262000136002F58062136823F4406343F480630F
:102630001360DFF844800125C8F800502846FFF7F2
:10264000CAFFC8F800602846FFF7C5FFC8F8005069
:102650002846FFF7C0FF074B1D60236B43F4800340
:102660002363BDE8788100BF003802408482404285
:10267000000402409C824142940241424FF0C04318
:1026800018807047014B1880704700BF000004603D
:1026900082B04FF0C0431880ADF806100EE0144B26
:1026A0005A600022124B13491960196841F0010168
:1026B0001960114B5B6813F0006FFAD0AAB10C4B94
:1026C000002119604FF000600B49C8600DF1060150
:1026D00099600A49D960B2F5803FE0D34FF6FF71A7
:1026E0005960A2F57F42FF3ADCE702B0704700BFB5
:1026F000B86402408028010E0064024000000460BB
:102700004FF0C043188042B310B40FE0134B5A602F
:102710000022124B12481860186840F0010018603F
:10272000104B5B6813F0006FFAD09AB10B4B00208E
:1027300018604FF000640B48C46099600A48D86084
:10274000B2F5803FE2D34FF6FF705860A2F57F42AA
:10275000FF3ADEE75DF8044B70477047B86402400B
:10276000802A010E006402400000046030B44FF083
:10277000C044208002E0164B1B780346581E002BF5
:10278000F9D10EE0134842601A461248124C046018
:10279000046844F0010404601048406810F0006FC1
:1027A000FAD09AB10B48002404604FF000650B4C3E
:1027B000E560074C8460C160B2F5803FE2D34FF61C
:1027C000FF744460A2F57F42FF3ADEE730BC7047F9
:1027D00000000460B8640240802C010E00640240D6
:1027E00010B5034C2468E46904B1A04710BD00BFD4
:1027F0006C80012008B5024B1B689B6A984708BD96
:102800006C80012008B5024B1B68DB6A984708BD45
:102810006C800120014B1860704700BF54B3012049
:10282000014B5860704700BF54B30120014B9860C2
:10283000704700BF54B30120014B9868704700BF38
:1028400054B3012070B582B00646084B1B689C6BE0
:10285000FFF7D0FF0546FFF7D5FF009603462A464F
:1028600000210846A04702B070BD00BF6C80012067
:1028700010B50A4B4FF6FF725A60094A9A6000245D
:102880001C60084B1B681B68984745F6A520FFF79E
:10289000D9FF0548FFF7CAFF204610BD54B30120F9
:1028A0001C8001206C8001202480012008B5034B8E
:1028B0001B685B6903B1984708BD00BF6C800120AD
:1028C000F8B506460F4615460B4B1B681C6A8CB1C3
:1028D00013460A46014609480088A047F8BD30194A
:1028E000064B1A88394680B2FFF7E0FF0134AC424C
:1028F000F5D3F8BD0024FAE76C80012054B3012021
:10290000F8B506460F4615460B4B1B685C6A8CB142
:1029100013460A46014609480088A047F8BD391900
:10292000064B1A8889B23046FFF7C0FF0134AC422B
:10293000F5D3F8BD0024FAE76C80012054B30120E0
:102940002DE9F04F85B0A2EB000ABAF1000FB8BF35
:10295000CAF1000A0FFA8AFAA3EB010BBBF1000FD0
:10296000B8BFCBF1000B0FFA8BFB05B20FB282425E
:1029700013D3012202928B4213D301230393DA452E
:1029800013DB0AEBDA7444F34F04029B0093002339
:10299000029301934FF000091EE04FF0FF320292C4
:1029A000E9E74FF0FF330393E9E70BEBDB7444F304
:1029B0004F045346DA469B46039B0193002303933F
:1029C0000093E7E7009B1D442DB2019B1F443FB2DB
:1029D00009F101090FFA89F9CA4518DB1FFA85F8D0
:1029E000BEB20C4B1A8831464046FFF75FFF5C448D
:1029F000A3B21CB2A245E5DCA3EB0A0424B2029BFD
:102A000008EB03052DB2039BF7183FB2DAE705B0D8
:102A1000BDE8F08F54B301202DE9F04F87B0824616
:102A20008B465300C3F10303019391464FF0000816
:102A300005E003EB88030633019308F10108C8455C
:102A400053D81FFA88F404EB0A039BB21FFA89F5E6
:102A5000ABEB0507BFB2264E3288394602931846C3
:102A6000FFF724FFAAEB04039AB2104632883946D6
:102A70000390FFF71BFF0AEB050399B20F46ABEB80
:102A8000040399B23288059104973846FFF70EFF88
:102A9000AAEB0507BFB2328805993846FFF706FF53
:102AA0005D44ADB2328829460298FFF7FFFE3288B6
:102AB00029460398FFF7FAFE5C44A4B23288214607
:102AC0000498FFF7F3FE328821463846FFF7EEFE02
:102AD000019B002BADDBA8EB0903019A02EB8303FA
:102AE0000A33019309F1FF39A7E707B0BDE8F08F7A
:102AF00054B30120F8B505460E461446927CE37C9B
:102B000002EB0322A37DE77D03EB07239BB292B286
:102B1000FFF766FE094B1B681B6B1BB12246314653
:102B200028469847FFF766FE0446FFF76BFE03460C
:102B3000224600210846FFF753FEF8BD6C800120B5
:102B40002DE9F04F83B000900191404B9B68B3F8A2
:102B500006A0B3F804901AFB09F11B3149003C4B65
:102B6000598009FB0AF11B31C1F3CF31998036211D
:102B70005981A3F8129000219982A3F816A0198315
:102B800009F1070B4FEAEB0B4FEACB085FFA88F825
:102B90005FFA89F3A8EB03085FFA88F80F468E46C0
:102BA0002BE02A494968DFF8A8C00CF8131001345B
:102BB000C1F307210CF804100130A8421BD2A6EB88
:102BC0000E03013B03FB05031B335C00291A414440
:102BD00001394FF0010C0CFA01F10F42E1D01B4911
:102BE0000968DFF86CC00CF813100134C1F3072139
:102BF0000CF80410E0E70EF1010E5646D6451DD242
:102C00000BFB0EF3D1184D46A9F11100072806D889
:102C1000D05C4F783F0247EA004788780743A9F124
:102C20000900072803D8D05C4F7847EA002709F14C
:102C3000FF31072900D8D75C0020BEE7044A01997C
:102C40000098FFF757FF03B0BDE8F08F54B30120A1
:102C5000F880012038B5084B9B681C68A2F120055C
:102C6000DA8802FB05F29B880733DB1003FB024284
:102C7000FFF766FF38BD00BF54B3012030B583B005
:102C8000044C2468A46B044D2D880095A04703B024
:102C900030BD00BF6C80012054B301202DE9F04FFE
:102CA00083B08246894601925600C6F10306154656
:102CB000274B1888FFF7AEFD00241FE0AFB2AAEB48
:102CC000070B1FFA8BFB1FFA84F87F00BFB208EBDB
:102CD00009013A4689B25846FFF7F2FDA9EB08010F
:102CE0003A4689B25846FFF7EBFD0BE0002E23DB96
:102CF000631B06EB83060A36013D0134AC421FD844
:102D0000002DDBD1002CF1D0A7B2AAEB070B1FFAE4
:102D10008BFB1FFA85F87F00BFB2A9EB08013A468A
:102D200089B25846FFF7CCFD09EB08013A4689B253
:102D30005846FFF7C5FDD9E706EB84060636DCE703
:102D4000019A49465046FFF767FE03B0BDE8F08F91
:102D500054B3012008B5024B1B689B68984708BD17
:102D60006C80012008B5024B1B68DB68984708BDE2
:102D70006C80012008B5044B1B685B680BB1984759
:102D800008BD002008BD00BF6C80012008B5044BC1
:102D90001B689B690BB1984708BD002008BD00BFA8
:102DA0006C80012030B583B0034C2468646B069DB1
:102DB0000095A04703B030BD6C80012030B583B0D2
:102DC000034C2468E46B069D0095A04703B030BD1A
:102DD0006C80012086B0002200921F4B196B41F0DD
:102DE00004011963196B01F004010091009901922B
:102DF000196B41F080011963196B01F08001019199
:102E000001990292196B41F010011963196B01F0DD
:102E10001001029102990392196B41F008011963A4
:102E2000196B01F00801039103990492196B41F0A9
:102E300001011963196B01F00101049104990592D4
:102E40001A6B42F002021A631B6B03F00203059334
:102E5000059B06B0704700BF0038024008B5026805
:102E6000034B9A4200D008BDFDF7A4FBFBE700BF6F
:102E700000100040FEE7000008B50A480A4B036056
:102E8000002343607F228260FF22C26003614361AE
:102E90008361FEF70EF900B908BDD5210348FFF79D
:102EA000E9FF00BFB0B30120002800401CB00020A3
:102EB00000B589B018484FF02043036003F58273D2
:102EC000436000228260C260026142618261C2612D
:102ED000026242624FF480538362C26202634263C1
:102EE00082634264052301930F2302930823039313
:102EF000012304931023059311230693079201A93C
:102F0000FEF739F910B909B05DF804FB4FF4897187
:102F10000248FFF7AFFF00BF60B301201CB00020E4
:102F200000B599B000230193314A116C41F08051F2
:102F30001164126C02F080520192019A02932D4AA0
:102F4000116841F480411160126802F480420292DB
:102F5000029A06220C9201220E920F9210221092D7
:102F600002221292139308231493A8231593169206
:102F7000042317930CA8FDF7A5FC68BB0F23079348
:102F800002230893002309934FF4A0530A934FF4AC
:102F900080530B93052107A8FDF7CAFE00BB02234F
:102FA00003934FF48073069303A8FDF7A1FFD8B9EC
:102FB000FDF76AFF104BA3FB00308009FDF770FBA3
:102FC0000420FDF783FB002211464FF0FF30FDF790
:102FD00029FB19B05DF804FB9A210848FFF74AFF66
:102FE000A8210648FFF746FFAF210448FFF742FF3C
:102FF0000038024000700040D34D62101CB0002029
:1030000008B5FDF7BDFAFFF78BFFFFF7E3FEFFF70B
:1030100033FFFFF74DFFFEF75DFEFEE7174B1B6822
:1030200003B17047F0B587B00122144B1A60002439
:103030000094134B9A6B42F001029A639B6B03F06E
:1030400001030093009B4FF4F06301930227029762
:103050000394032604960C25059501A90948FDF75C
:103060004BFB4EF2B303019302970394049605952C
:1030700001A90548FDF740FB07B0F0BD60840120C1
:103080000038024000100240000C024010B582B02F
:1030900000240094214B5A6C42F480425A645A6CCA
:1030A00002F480420092009A01941A6C42F080521D
:1030B0001A641B6C03F080530193019B0320FDF7FE
:1030C0009FFA224621466FF00B00FDF7ABFA22462D
:1030D00021466FF00A00FDF7A5FA224621466FF05F
:1030E0000900FDF79FFA224621466FF00400FDF724
:1030F00099FA224621466FF00300FDF793FA224623
:1031000021466FF00100FDF78DFA224621464FF06F
:10311000FF30FDF787FA02B010BD00BF0038024053
:103120000268044B9A4200D070470122024B1A6099
:10313000FAE700BF002800403C0E474208B5FFF701
:103140006DFF08BD10B588B0002201463620FDF79E
:1031500069FA3620FDF798FA00240194144B1A6C92
:1031600042F010021A641B6C03F010030193019BE0
:1031700002A903A8FDF79EFEFDF78CFE43000D4853
:10318000A0FB03239B0C013B0B480C4A026040F25E
:10319000E732C260436004618460FEF771F910B1E8
:1031A000012008B010BD0448FEF70FF8F9E700BF92
:1031B0000038024083DE1B43D0B3012000100040E2
:1031C0007047FEE7FEE7FEE7FEE77047704770478F
:1031D00008B5FDF78CFA08BD08B50248FEF705F8FA
:1031E00008BD00BFD0B3012030B400240AE000BF06
:1031F0004FF060431B68002BF9D04FF0604319700B
:1032000001342946944210DA4D1C09784FF060438E
:10321000D3F8803E13F0010FF2D04FF06043D3F8A3
:10322000003E13F0010FE3D1EAE7104630BC7047CF
:103230000346064A126822B1044A10680344136028
:1032400070470349014A1160F6E700BF648401201A
:1032500010B401205822024B1A604FF0FF30704723
:103260000CB401205822024B1A604FF0FF30704717
:103270000CB401205822024B1A600020704700BF96
:103280000CB401205822024B1A604FF0FF307047F7
:103290000CB401205822024B1A604FF0FF307047E7
:1032A0000CB401200F49D1F8883043F47003C1F801
:1032B00088300D4B1A6842F001021A6000209860B5
:1032C0001A6822F0847222F480321A60074A5A6027
:1032D0001A6822F480221A60D8604FF000538B6085
:1032E000704700BF00ED00E00038024010300024BD
:1032F000DFF834D0002103E00C4B5B58435004311D
:103300000B480C4B42189A42F6D30B4A02E00023BA
:1033100042F8043B094B9A42F9D3FFF7C3FF00F090
:1033200011F8FFF76DFE704700000220ECB000209E
:1033300000800120D8800120D880012010B4012015
:10334000FEE7000070B50D4E0D4CA41BA410002527
:10335000A54209D10B4E0C4C00F0BEFFA41BA410DB
:103360000025A54205D170BD56F825309847013596
:10337000EEE756F8253098470135F2E7E4B0002033
:10338000E4B00020E4B00020E8B000200FB40A4B05
:1033900013B51C6824B1A36913B9204600F05EFA86
:1033A00005AB049AA1680193204600F02BFC02B003
:1033B000BDE8104004B070477480012070B50E461F
:1033C000054618B183690BB900F048FAAB69AC68DF
:1033D00013B9284600F042FA234B9C4217D16C687F
:1033E000A3891B071DD52369DBB1013EA36816F82D
:1033F000011F013BA360E9B9002B2EDA22460A2106
:10340000284600F079F8013011D00A2070BD174B22
:103410009C4201D1AC68E3E7154B9C4208BFEC68C5
:10342000DEE72146284600F0B9F80028DDD04FF04D
:10343000FF3070BD002B04DAA269934206DB0A2933
:1034400004D023685A1C22601970CFE72246284610
:1034500000F052F80130C9D1E9E723680A205A1C6C
:103460002260187070BD00BF68B0002088B00020D6
:1034700048B00020024B01461868FFF79FBF00BF0D
:1034800074800120194B10B51C68A36BD3B91820A8
:1034900000F0D2FA43F20E33A06303804AF6CD3334
:1034A000438041F2342383804EF26D63C3804DF636
:1034B000EC630381052343810B23838101220023D5
:1034C000C0E90423A16B0A480A694B69094C5043BF
:1034D00004FB0300A2FB04230132034443F1000375
:1034E000C1E9042323F0004010BD00BF7480012017
:1034F0002DF451582D7F954CF8B50E4614460546CF
:1035000018B183690BB900F0A9F9214B9C422AD16B
:103510006C68A369A360A3891A072ED5236963B3D6
:1035200023692068C01A6369F6B29842374604DB03
:103530002146284600F028F928BBA368013BA36078
:1035400023685A1C22601E7063690130984204D0BF
:10355000A389DB0719D50A2E17D12146284600F08A
:1035600013F990B10FE00B4B9C4201D1AC68D0E74E
:10357000094B9C4208BFEC68CBE72146284600F087
:103580000DF80028CCD04FF0FF373846F8BD00BF0B
:1035900068B0002088B0002048B00020324B70B5E1
:1035A0001D6806460C4625B1AB6913B9284600F0E4
:1035B00055F92E4B9C420FD16C68B4F90C309AB27D
:1035C00015072CD4D00611D40922326043F04003F1
:1035D000A3814FF0FF3070BD254B9C4201D1AC68F8
:1035E000EBE7244B9C4208BFEC68E6E7510712D595
:1035F000616B41B104F14403994202D0304600F0BE
:103600002BFA00236363A38923F02403A3810023FF
:10361000636023692360A38943F00803A3812369BE
:103620004BB9A38903F42073B3F5007F03D021467F
:10363000304600F0C1F9A28912F001030CD000233A
:10364000A36063695B42A361236953B9B4F90C3089
:1036500013F08000BAD170BD920758BF6369A360B0
:10366000F2E70020F7E700BF7480012068B0002077
:1036700088B0002048B000208A892DE9F041054635
:1036800010070C465AD44B68002B05DC0B6C002B42
:1036900002DC0020BDE8F081E66A002EF9D00023AC
:1036A00012F480522F682B6033D0606DA3895A07C3
:1036B00005D56368C01A636B0BB1236CC01A002375
:1036C0000246E66A216A2846B047431CA38906D110
:1036D00029681D294BD82B4ACA40D60747D5002256
:1036E0006260D9042269226004D5421C01D12B6892
:1036F00003B96065616B2F600029CAD004F14403EF
:10370000994202D0284600F0A7F900206063BDE886
:10371000F081216A01232846B047411CC6D12B689D
:10372000002BC3D01D2B01D0162B01D12F60B0E789
:10373000A38943F04003A381BDE8F0810F69002F06
:10374000A7D093070E6808BF4B690F6018BF00230E
:10375000A6EB07088B60B8F1000F9ADD43463A46A6
:10376000216AA66A2846B047002807DCA38943F0EF
:103770004003A3814FF0FF30BDE8F0810744A8EB80
:103780000008E8E70100402038B50B6905460C4603
:10379000DBB118B183690BB900F060F80C4B9C42A7
:1037A00009D16C68B4F90C307BB121462846BDE8DC
:1037B0003840FFF761BF074B9C4201D1AC68F1E78D
:1037C000054B9C4208BFEC68ECE7002038BD00BF09
:1037D00068B0002088B0002048B00020014900F007
:1037E000A9B800BF89370020002310B50446036044
:1037F0004360836081814366C28103614361836169
:10380000194608225C3000F01FF9054B6362054B36
:10381000A362054BE362054B2462236310BD00BF26
:103820007D4100209F410020D7410020FB41002026
:1038300070B54A1E682555430E4605F1740100F027
:1038400059F9044640B1002180E842000C30A060E4
:1038500005F1680200F0F8F8204670BD836910B5E4
:10386000044633BB8364C3640365124B124A1B686E
:103870008262984204BF0123836100F01FF86060F8
:10388000204600F01BF8A060204600F017F8002248
:10389000E06004216068FFF7A7FF01220921A0680A
:1038A000FFF7A2FF02221221E068FFF79DFF01232C
:1038B000A36110BD44B00020DD370020F8B51C4BDB
:1038C0001E68B369074613B93046FFF7C7FF48368D
:1038D000B4687368013B03D5336833B13668F7E7E2
:1038E000B4F90C506DB16834F4E704213846FFF7A1
:1038F0009FFF30600028F1D10C233B600446204636
:10390000F8BD4FF6FF73E3810123A381656625604F
:10391000A560656025616561A5610822294604F1FD
:103920005C0000F091F86563A563A564E564E6E7D3
:1039300044B000202DE9F8438046894600F1480450
:10394000002614B93046BDE8F883A5686768013FD2
:1039500001D52468F5E7AB89012B07D9B5F90E30FD
:10396000013303D029464046C84706436835EEE791
:1039700070B50E46B1F90E10002990B014461D46E0
:1039800007DA00232B60B3891A0610D44FF4806342
:103990000EE001AA00F058FC0028F2DB029A02F4C3
:1039A0007042A2F500535A425A412A60EEE7402382
:1039B0000020236010B070BD8B8973B59D0706464B
:1039C0000C4607D504F1470323602361012363619B
:1039D00002B070BD01AB6A46FFF7CAFF0099054609
:1039E000304600F087F848B9B4F90C309A05EFD4A6
:1039F00023F0030343F00203A381E3E70D4BB3621B
:103A0000A389206043F08003A381009B6361019B35
:103A100020615BB1B4F90E10304600F027FC28B1EC
:103A2000A38923F0030343F00103A381A3891D436A
:103A3000A581CDE7DD370020024B0146186800F074
:103A400059B800BF7480012002440346934200D15C
:103A5000704703F8011BF9E738B50546002945D042
:103A600051F8043C0C1F002BB8BFE41800F020FCF8
:103A70001F4A1368104633B9636014602846BDE8D6
:103A8000384000F016BCA3420CD92168621893425A
:103A900004BF1A685B68636004BF52182260046048
:103AA000ECE713465A680AB1A242FAD919685818C5
:103AB000A0420BD120680144581882421960DDD120
:103AC000106852685A6001441960D7E702D90C2384
:103AD0002B60D3E7206821188A4204BF116852681E
:103AE000626004BF091821605C60C7E738BD00BF91
:103AF0006884012070B5CD1C25F0030508350C2D18
:103B000038BF0C25002D064601DBA94203D90C2342
:103B10003360002070BD00F0CBFB234A14682146BF
:103B200091B9224C23681BB9304600F017FB206086
:103B30002946304600F012FB431C26D10C2333608B
:103B4000304600F0B6FBE4E70B685B1B1AD40B2B86
:103B50000FD90B60CD50CC18304600F0AAFB04F111
:103B60000B00231D20F00700C31A1BD05A42E2505D
:103B700070BD8C420DBF63684B686360136018BFF3
:103B80000C46E9E70C464968CAE7C41C24F0030464
:103B9000A04205D0211A304600F0E0FA0130CDD025
:103BA0002560D9E770BD00BF688401206C840120C6
:103BB0009368013B002B10B4936009DA9469A34227
:103BC00002DBCBB20A2B03D15DF8044BFFF794BCA8
:103BD0001368581C10601970C8B25DF8044B704728
:103BE000F8B506460F461446D518AC4201D1002060
:103BF00007E03A4614F8011B3046FFF7D9FF431C93
:103C0000F3D1F8BD2DE9F04F9DB00C461746039354
:103C1000064618B183690BB9FFF720FE7C4B9C4226
:103C200057D17468A38918075DD52369002B5AD032
:103C30000023099320238DF8293030238DF82A3072
:103C40004FF0010BB846454615F8013B002B55D106
:103C5000B8EB070A0BD053463A4621463046FFF7E9
:103C6000BFFF013000F0C480099B5344099398F8CA
:103C70000030002B00F0BC8000234FF0FF32049393
:103C80000793059206938DF853301A9305222978ED
:103C90006048FCF79DFA05F10108049B002831D12A
:103CA000D90644BF20228DF853201A0744BF2B2287
:103CB0008DF853202A782A2A2CD0079A00210A202E
:103CC000A846013598F80030303B092B6DD971B307
:103CD00026E0514B9C4201D1B468A3E74F4B9C4274
:103CE00008BFF4689EE721463046FFF757FC0028DE
:103CF0009ED04FF0FF301DB0BDE8F08F252BA7D030
:103D0000A846A0E7434A801A0BFA00F01843049033
:103D10004546BBE7039A111D12680391002A01DB97
:103D2000079204E0524243F002030792049398F88A
:103D300000302E2B10D198F801302A2B08F1010108
:103D400037D1039B1A1D1B680392002BB8BF4FF09D
:103D5000FF3308F102080593314D98F80010032253
:103D60002846FCF735FA40B14023401B03FA00F027
:103D7000049B0343049308F1010898F800102948B4
:103D80008DF82810062208F10107FCF721FA002817
:103D900034D0254B03BB039B073323F007030833C1
:103DA0000393099B4B4409934CE700FB023201212A
:103DB00086E70023059318460A258846013198F8BE
:103DC0000020303A092A03D9002BC5D00590C3E75B
:103DD00005FB00200123F0E703AB00932246134BC1
:103DE00004A93046AFF30080B0F1FF3F8146D8D13F
:103DF000A3895B063FF57DAF09987CE703AB009391
:103E000022460A4B04A9304600F088F8ECE700BFD0
:103E100068B00020A8B0002088B0002048B0002082
:103E2000AEB00020B2B0002000000000E13B002056
:103E30002DE9F04791461F468A680B69DDF820801E
:103E40009342B8BF1346C9F8003091F843200646A4
:103E50000C4612B10133C9F800302368990642BFFD
:103E6000D9F800300233C9F80030256815F006058E
:103E700007D104F1190AE368D9F800209B1A9D4282
:103E800029DB94F843302268003318BF01239206DF
:103E90002ED404F1430239463046C047013021D0C8
:103EA0002368E568D9F8002003F00603042B08BF57
:103EB000AD1AA36822690CBF25EAE5750025934277
:103EC000C4BF9B1AED184FF000091A344D451BD1A1
:103ED0000020BDE8F0870123524639463046C047EE
:103EE000013003D14FF0FF30BDE8F0870135C2E764
:103EF000E1185A1C302081F84300224494F8451000
:103F000082F843100233C4E7012322463946304683
:103F1000C0470130E6D009F10109D7E72DE9F043A8
:103F200017460A7E85B06E2A984606460C460C9BBC
:103F300001F1430E00F0BC801AD8632A2ED00AD8B3
:103F4000002A00F0C880582A00F08A8004F1420557
:103F500084F842202AE0642A01D0692AF6D1216837
:103F60001A6811F0800F23D0111D1960136827E023
:103F7000732A00F0B48008D86F2A2AD0702AE5D1BD
:103F80000A6842F020020A6003E0752A21D0782AEC
:103F9000DCD1782284F845206E4964E01A6801F18A
:103FA0004205111D1960136884F842300123A3E013
:103FB00011F0400F02F104011960D7D0B2F90030BE
:103FC000002B03DA2D225B4284F8432062490A2247
:103FD00017E02068196810F0800F03D0081D1860E2
:103FE0000B6806E010F0400F01F104001860F7D0F4
:103FF0000B8859496F2A14BF0A220822002084F82E
:1040000043006568A560002DC0F29C80206820F008
:1040100004002060002B3FD1002D40F095807546B4
:10402000082A0BD12368DA0708D5236962689A4207
:10403000DEBF302305F8013C05F1FF35AEEB05038B
:104040002361CDF800803B4603AA21463046FFF7A6
:10405000EFFE013055D14FF0FF3005B0BDE8F083E1
:1040600081F845203C492268186812F0800F00F161
:1040700004051D6001D0036802E05506FBD50388E6
:10408000D00744BF42F0200222601BB9226822F010
:10409000200222601022B1E77546B3FBF2F002FB6A
:1040A0001033CB5C05F8013D03460028F5D1B7E796
:1040B00008681A68496910F0800F04D0101D186054
:1040C0001368196007E010F0400F02F10400186057
:1040D0001368F6D01980002323617546B1E71A688A
:1040E000111D19601568626800212846FCF770F8F8
:1040F00008B1401B606063682361002384F843308B
:104100009FE723692A4639463046C0470130A2D08E
:1041100023689B0707D5002504F11909E368039A72
:104120009B1A9D4205DBE068039B9842B8BF184686
:1041300093E701234A4639463046C04701308AD0CA
:104140000135EBE7002BA7D10B7884F8423004F15E
:10415000420565E7CAB00020B9B0002038B5064C6A
:104160000023054608462360FFF762F8431C02D18E
:10417000236803B12B6038BD0CB4012010B50C4688
:10418000B1F90E1000F096F80028ABBF636DA3895B
:104190001B1823F48053ACBF6365A38110BD2DE9C8
:1041A000F0411F468B89DB0505460C46164605D5B2
:1041B00002230022B1F90E1000F068F8A389B4F9C7
:1041C0000E1023F48053A38132463B462846BDE8B7
:1041D000F04100F017B810B50C46B1F90E1000F020
:1041E00055F8431CA38915BF606523F4805343F43D
:1041F0008053A38118BFA38110BDB1F90E1000F048
:1042000013B8000038B5074C054608461146002291
:1042100022601A46FEF7E8FF431C02D1236803B16F
:104220002B6038BD0CB4012038B5064C0023054680
:1042300008462360FFF70EF8431C02D1236803B140
:104240002B6038BD0CB4012038B5074C002305465F
:10425000084611462360FFF705F8431C02D1236886
:1042600003B12B6038BD00BF0CB4012038B5064C3B
:104270000023054608462360FEF7FCFF431C02D1DD
:10428000236803B12B6038BD0CB4012038B5074C4E
:10429000054608461146002222601A46FEF7F2FF44
:1042A000431C02D1236803B12B6038BD0CB401203C
:1042B0007047704738B5074C05460846114600223E
:1042C00022601A46FEF7E6FF431C02D1236803B1C1
:1042D0002B6038BD0CB40120F8B500BFF8BC08BC99
:1042E0009E467047F8B500BFF8BC08BC9E467047B4
:1042F00052656164496D61676554657374206572C8
:10430000726F723A2025640D0A00000052656164E4
:10431000506978656C54657374206572726F723A77
:104320002025640D0A000000446973706C617920D7
:104330004944203D2025580D0A000000436C65616A
:104340007220546573743A202564206D730D0A0041
:104350004C696E6520546573743A202564206D7332
:104360000D0A000046696C6C205265637420546528
:1043700073743A202564206D730D0A0043697263DB
:104380006C6520546573743A202564206D730D0AA2
:104390000000000046696C6C20436972636C652004
:1043A000546573743A202564206D730D0A00000073
:1043B0004368617220546573743A202564206D73DC
:1043C0000D0A00004269746D617020546573743A7F
:1043D000202564206D730D0A0000000052656164A1
:1043E000506978656C20546573743A202564206D9B
:1043F000730D0A0052656164496D616765205465FB
:1044000073743A202564206D730D0A00436F6C6F3E
:104410007220546573743A202564206D730D0A0070
:104420000D00000000000000424D162F00000000AB
:10443000000036000000280000003C00000064007E
:1044400000000100100003000000E02E000000004A
:104450000000000000000000000000000000FABFA3
:10446000FABFFABFFABFFABFFABFFABFFABFFABF84
:10447000FABFFABFFABFFABFFABFFABFFABFFABF74
:10448000FABFFABFFABFFABFFABFFABFFABFFABF64
:10449000FABFFABFFABFFABFFABFFABFFABFFABF54
:1044A000FABFFABFFABFFABFFABFFABFFABFFABF44
:1044B000FABFFABFFABFFABFFABFFABFFABFFABF34
:1044C000FABFFABFFABFFABFFABFFABFFABFFABF24
:1044D000FABFFABFFABFFABF52075A485A485228E1
:1044E00049E7398529031881186018602060208009
:1044F000288030A038C0510069808A009A809AA034
:104500009AA0928192809AA0A300AB209AA0924098
:1045100081E05960490030C028A0208020801880A8
:104520001880188128E2394441C652075A68628AC5
:10453000628A62AA5A6962AA6ACA6ACA628A5248C6
:104540004A0749E74A074A2852285A89FABFFABF58
:10455000084120E33985520749E6396528E3188088
:10456000186020602060208028A030A040E051002A
:1045700069608A009A80AB00AB41A2C19AC09AA13F
:104580009AA09A809AA09AA079E0512038E030C091
:1045900028A02080188018801880188120E23144DB
:1045A000398549C65A48628962AA62CA6B0B62ABF6
:1045B0005A695248524852484A285228524852484A
:1045C0005A6862AAFABFFABF3964108108400861CC
:1045D00020C3312420E218801860208020802080B1
:1045E00028A030C038C0510069808A009A80A2C0DB
:1045F000AB20B380AB21A2C0A2A0A2A19A6082008E
:1046000069A0512038C028A028A020A020801880B0
:104610001860188120E2314439A64A0752285A48C6
:1046200062896AEB6AEB62AA5A8A5A8A522849E777
:1046300049E752285A6962CB6AEB6AEBFABFFABFC4
:104640006288628849E628E3106100200840104033
:1046500010401860208030A030A030A038C0490041
:10466000616079A09240A2A0A2E0B381BBA1AB415E
:10467000AB00A2C09A808200594040E030C028C000
:1046800020A02080188018801880188120C229243A
:1046900041C64A085A495A695A8962AA6289628996
:1046A0005A8952484A084A0852285228524862CA2F
:1046B000732C7B6DFABFFABF6289628862685A27E1
:1046C00049C62903106108200020082010402080DE
:1046D00028A028A038C04900698079E079C1A2C02B
:1046E000A2C1AB20AB40B341B360AB41A2A081E01B
:1046F000512038C028A02880208020801880188071
:104700001061108118A22904398641E74A285A8A83
:1047100062AA5A8A5A895A695248520852285248FB
:104720005A69526962CA6AEB6AEA6AEBFABFFABF6F
:104730006AA962895A685A2749E6394420C210603A
:1047400010400840002008201040208028A030C0E1
:1047500059407A00820092419A809AA1A301AB202D
:10476000B360B341A2C079E0492030C028A02080C6
:10477000208018601860186018611061108120E3B3
:10478000314541E74A28524952495A6952695249CA
:1047900052484A28524852285A696AEB732C732CA3
:1047A000732C7B4CFABFFABF72EA62A962895A483D
:1047B00049E6396520C2106010401860186010404A
:1047C00008400020082010401060514079C08A2025
:1047D000A2E0A301A2E0AB01AB20AB209A8071C0A4
:1047E000410030C028A02080186018601860106058
:1047F00010611081188118C22924318641E74A28A6
:10480000524952494A28524952695A8A5A8A62AAD6
:1048100062CA6B0B730C7B6D83AE83AEFABFFABFBB
:1048200072EA6ACA62A95A685207398518A210400A
:104830001040104018401860188018601060104038
:104840000820208069A09260A2E1AB20B361B36030
:10485000B341AB009260616038E028A020A01880CE
:104860001860186010601060106110611061108194
:1048700020E3294539C7420842084A2852495A8A42
:104880005AAA62CB62CB732C734D734D7B4D7B6DFB
:1048900083AD838DFABFFABF732B6ACA6AEA628955
:1048A0005207398518A2104010601040104018605F
:1048B0001860208028A030C030C030C0186028A107
:1048C00059808A61AB20B360C3C1BBA0928059609C
:1048D00030E028A0208018801880106010601060E0
:1048E0001061106110611061108218C3292439A66B
:1048F00039C74A29526A5AAA6B0C734D734D7B8E85
:104900007B8E7BAE83CF8BCF83AE83AEFABFFABFF5
:10491000730B7B2B72EA62895228396518A210400A
:10492000106010601040106018601880208028A06F
:1049300040E08200A2E072014101208138E169E19A
:10494000A2E1AB209260594130E120A0188118808B
:1049500010601060106110601061106110611061D2
:10496000108218C221042924314541C752696B0CB9
:10497000734D734D736D83CF83CF8BF08C1083CFCA
:104980008BEF8BEFFABFFABF62895A695A69628965
:1049900052283165188110401040104010401060BE
:1049A00010601860208020A041008200AB01BBA0F5
:1049B000BBC0A30069C138E12881410159604100B1
:1049C00028C020A118A11881106110611061106128
:1049D000106108411061108118A220E3292431657B
:1049E00039A641C74A085A696AEB7BAF94318C10EB
:1049F0008BF08C108C10943094318C10FABFFABF6D
:104A00007B2B6AEA5A694A0739A6292410611040AB
:104A1000104010401060106010601860208020A0CE
:104A200039008220A300BB80BBC1BBC1BBE1C3E195
:104A30009B2161A12081106110601860188118818C
:104A400010811061106110610861086110611082AD
:104A500018C3292439A64A0852695A6962AA62CA47
:104A60006AEB732C7B6D83AE94109C72947194519D
:104A700094519431FABFFABF730B730B6AEB6289DE
:104A800049E72103084108401040106010601060A1
:104A900010601860208028C041008A40AB41BBA153
:104AA000B3A0BBA1BBC1C420C420B3A1824130E1EB
:104AB00010600820084010601061106110611061E2
:104AC000086108610861108218C329444A0862EB32
:104AD000734D734D734D734D7B6D7B4C7B4C83AD30
:104AE00083AE8BCF8C109C729CB39492FABFFABFAA
:104AF0007B4C7B4C6AEA62894A07292408410840BA
:104B000008400840106010601060188020A028C184
:104B100049419280AB60BBE0C401BBC1BBC0BBC11B
:104B2000BBC1B3619281596130E1208010600820DF
:104B30000020084008410861086108611081108266
:104B400018E3316552286B0C83AE8C108C308C10BE
:104B500094108BEF8BCE8BCE8BAE838D838D8BCED3
:104B600083CF9431FABFFABF7B4B7B2B72EA62A9E9
:104B700052082904084008400840084008601060B6
:104B80001060188020A128E1518192A0AB41BBC1E7
:104B9000C401C401C401C3E1BBA1AB208A40598058
:104BA000310120C118A118811061084000200020A7
:104BB00008400841106110A220E331654A086AEB01
:104BC00083AE94509C719C719CB2A4B29C719C71F8
:104BD00094108BCE7B6D836D7B4D7B6DFABFFABFDE
:104BE0007B6C7B4C730B6AA94A0720E308400840A2
:104BF00008400840106010601060188118A028E17B
:104C000051819AE1B380BBC1C3E0C401C3E1BBE100
:104C1000BBA0AB219280598128E120A118A1188165
:104C200010811081106108410020002000201082B6
:104C3000292439864A0862AA732C83CE9C71A4B2B7
:104C4000A4B2A4D3A4D2A4B29C7194108BCF83AE8F
:104C50007B4C732CFABFFABF7B4C730B6AEA6ACAAF
:104C60004A0720C20840082008400840106110612F
:104C7000188118A128E1312159A18A81AB40BBE0FC
:104C8000CC60D4A0D4A1CC40BBC1AB419AC071E1EF
:104C9000392120C118A1108110811081106110618B
:104CA0001061106108410020084121044A0862CBCC
:104CB0007B4C8BCE94309C5094509C719C51945062
:104CC0009451943094308BCF838D7B4DFABFFABFD3
:104CD0007B4C730B6ACA5A8941C618A20840084027
:104CE0000840084008611060188120C139214981BD
:104CF0008A81AB61BBC1BBE0C441D4E0DD21D4E01B
:104D0000CC81C420B3818A60494128E118A1108177
:104D1000106108610860086108410861084110825B
:104D200020E320C3106120E35228836D9C50A470BF
:104D3000A4719C7194308BEF8BEF83CE8BEF83CF7C
:104D400083CE838EFABFFABF7B4C730B6B0B5A6911
:104D500039A6106108200840084008401061106121
:104D6000188028E149607A41BC00CC80D4A0D4A14D
:104D7000CC80BC20C420CC80D4C0D4C0CC60B38054
:104D80007A20410020C11881108108610861084122
:104D90000861106108611082396562686AC952272A
:104DA000394418A139656AEB940F9C309C309450BB
:104DB000942F83AE838E838D7B8D838DFABFFABF54
:104DC0007B2B730B730B62AA398610610820084095
:104DD000084008400840106128C0494061A08A602E
:104DE0009AE082607A0069A05160412041205160C0
:104DF00061C06A00828092E092A069A038E01880C9
:104E00001081106110811081108210821881290395
:104E100041A55A48732B93EFA491942F62AA29239A
:104E200018A241C6732B940F940F94308BEF83AE6E
:104E30007B6D732CFABFFABF7B4C732B730B62AA8A
:104E400039860841082108400840084008401060A1
:104E500028C038E038E038E0410038E041205140D7
:104E600061A171E1720069E159A05160494041209E
:104E700038E030E030C028C020A01061106110611F
:104E80001082108218C239864A075A4872EA8BADDE
:104E9000A470ACB2ACB1A4B183CE4A2720C220E347
:104EA00052287B4C93EF941083AE7B6DFABFFABF10
:104EB0007B4C7B4C6AEB5228314408410820082186
:104EC0000841084008401060188020A020C03941E7
:104ED00062448B44B485C506D589CDA9C54ACD4A5F
:104EE000D5A9CD68AC24830251C230E120A118803D
:104EF00010601061106110611082108218A231657B
:104F00005A896B0B83AE8BCE8BCE940FA491ACB130
:104F1000ACD1ACD19C90734C3985188229245A8924
:104F20007B6D83ADFABFFABF836C836C72EB5A69F9
:104F3000292400200020002008410840106018812A
:104F400020C152446AC783A97B497B07728472647B
:104F5000722372027A427222724272627AC383248C
:104F60008B8783685A663143188110611040106145
:104F700010611061108129446AEB83CE9C92947178
:104F800094309430940F94309C509C70A4B1A4B190
:104F9000A4B1940F62AA210310813165FABFFABF50
:104FA0005A68730B72EA5A6820E300210020084116
:104FB0000841106020C252466B2A734A72E851C3FE
:104FC000412159C15A02726182E37AE47B057AE495
:104FD0007B036A63620251C251E35A2462866B0901
:104FE0005A88398418811061086108611061292488
:104FF000734C9430A4B2A4D2A4B29C719C719C91C5
:105000009C929C91A4919C71A491A4919C709C50A1
:105010007B6C41E7FABFFABF41A520C23124398633
:1050200018A2002008401061188131645AA96B0A47
:105030006AC75A0451A1A487ACC9BD2ABD6CDEB4AD
:10504000D632E6F7E6F7DE74E716CE0ECDCEC5CD46
:10505000C567626362865A2462C86B0A526820C2BE
:1050600010610841086118C3732C9C71ACF3ACF358
:105070009CB2A4B2A4D2A4B2A4D2A4D2A4B2A4B228
:105080009C719C719C50942F942F940FFABFFABF7F
:105090008B8C7B2B49E618A2084000200861188100
:1050A00039A55AA96AC95A056243B50BA48ACE101C
:1050B000BDD2DEB5DEB6DED6E6F6E718E718E6F7CF
:1050C000E717E6F7DED5CE13D673AD0EBD8C5A23A7
:1050D00049C4522662EA528818A21081106118A2AF
:1050E00062CB8C10A4B29C92ACF3ACF3A4D3A4D347
:1050F000A4D2A4D3A4D3A4B2A4B2A49194509C30BB
:10510000940F8BEEFABFFABF8BAD8BAC7B4B5A681A
:10511000108110411081316562CA41C65226944EF9
:105120007328BDD1A50FB592CE32CE52DEB4E6F5CE
:10513000DEB4DEB4E6D4E6D5DEF6E6D6DED7D6B506
:10514000CE34BDD2C61383ECA4CE51E53985526965
:105150005AEA20E2188118A1732C9C71A4D39CB246
:1051600094519451A4D3A4F3A4D3A4F39CB2A4B2B5
:10517000A4D2A4B29C919C719430940FFABFFABF50
:105180008BCD93CD836C62891881188131445ACAC2
:105190005AAA6AE96267A4CF840CA510C5F2CE545E
:1051A000CE75D653DEB5E6F7DEB7E6F7E718DEF7DD
:1051B000DEB7EF5AE6F6D696D6B8D676BD90A510ED
:1051C000AD2E6B4A83CC4A0752894A49188120C2C6
:1051D0006AEB9C92A4B2ACF3ACF3A4B28C108BEF4C
:1051E0009C71A4D3A4D3A4D3A4B29C929C929C718E
:1051F00094309430FABFFABF8BCD8BCD838C62890B
:1052000018A120E2528941E749E6944E630ABD8E17
:10521000A4F1AD51DEB7D697CE55D655B52EACCA52
:10522000ACC8AC86A445A425A467B4EAC5F0E6F9E9
:10523000DED7E6F9CE76A533AD0F738C840D6B0AFD
:105240004A4839E7316518C25AAA9C92A4F3A4F3DC
:105250009C929C92AD14A4B38BEF83AE8BEF9C9287
:105260009C92A4D29C929C7194509430FABFFABF45
:1052700093CD93CD838C5A4718A141E74A48942E89
:105280007BAD736C8C6EBD93AD53E6F6D675CE11C7
:10529000CDEFBD05D5A2DE01DE01DDE1D5A1D581D1
:1052A000CD82CD85BD05C5CBCE0FD676CE33C61308
:1052B0009CD0C611842E736C83EC398639E718A212
:1052C0005A8A94309C51A492A4B29C929C71A4B32B
:1052D000A4D39C71945183CF83CF8C1094719C92F2
:1052E0009C929430FABFFABF93EE93EE8BCD5A485E
:1052F00020E2528A526862CA7BCD73ACAD519CD019
:10530000C615C5F0D651D62DC587D5C3D561D56094
:10531000D580D580D5A0DDE0DDE0DE01E663D607EF
:10532000DE90DE8ECE0EAD30BD6F9CAD946D736B96
:105330004A4862A84A4831655A6994519430940F9A
:105340009C9294108C0F94519C92AD149C72947109
:105350009C7194308BEF7B8E83CF9430FABFFABF71
:105360008BAD93EE940F628939A65ACA83ED5289A8
:105370005AAA9CCE9CAFA510BD6CD66EDE4A93E4B3
:105380009C02EEA5F74EF772F792F791F770F76F60
:10539000F76EF72EDE69A402BCE3DE8BD60BD62BAC
:1053A000AD2D9C8E946D62EA62EA62EA41C641E7E5
:1053B00062EB94518BCE8BCE8BEF943083AD838E8A
:1053C00083AE9430A4B3943094519C729451945110
:1053D00083AE6B0CFABFFABF8BCE838D7B6C628978
:1053E0006B4C524841E75ACA62E98C4EA4CEC5675D
:1053F000CD85D5E4BCC1A3E193219B81AC41B481AF
:10540000AC41B481B440BC80C500CD40C4E0BCA177
:10541000BD01DE02DE87DE87C5A69C8B7BCB62EA00
:105420004A27316552686B4C736C9C51838D7B4C61
:105430007B6D838E7B4C7B4C734C7B6D9C7194316C
:105440008BEF945194718C108C108BF0FABFFABFD3
:105450008BAE93EE93EE7B4C736D62CA4A695269D0
:105460007BAC9C8CAD09CDC5CD82BCE1B4C0C5413F
:10547000AC40C500BCC0C520BCC1C521C4E1C5410C
:10548000D5A0D5C0DDE1CD60CDA2D5C2D5C3D6258E
:10549000C5859C269C676B0A5AC84A4852685AAA16
:1054A0008C107B4C7B6D730B6AAA6AEB6AAA6289CB
:1054B0006289732B83AE83AE838E83CF8BEF8C1088
:1054C0008C108C10FABFFABF93EE8BEE8BCE83AEAE
:1054D0006B0B39A55228528983A89C46AC84BD0326
:1054E000BD22B4C2AC21C542B4A0B481C501B4414F
:1054F000BCA1C520A3C0CD20C501CD61C4E0BCE1E5
:10550000C521C521BCE2C522B4E3A464A4A7838756
:1055100073AC41E631857BCD9450836D6AC9628955
:1055200062A96269522852085A4862AA6AEB7B6DE6
:105530008BEF8C308C3083EF83AE7BAEFABFFABF3B
:10554000838D8BAD8BCE8BEF6B2B41C76B2A62C8E3
:105550008BE7A48693A3AC82A401AC62C5029BC076
:105560009BA1B480C502D5E8B442C523B482D5C698
:10557000D5C5B4819381B4A4C546CD6193A2AC4195
:10558000BCE272826AA372E45A854A484A275A6981
:1055900083CF8BEF83AE62895A4862895A485A4852
:1055A000522752285A6962CA734D8BF094318C107D
:1055B00083CF83CFFABFFABF8BCE8BAD838D8BAEFB
:1055C00052285A885AA96AC57B459C0293E4AC22AA
:1055D0007241ACA5D5A8D5E9AC439381B480A3E1D1
:1055E0009322DE299B819300BCA19341B463DE43E7
:1055F000C505E668BD4862018B019BE349A159C11D
:1056000051C362A97BAB5AAA838E83AE83AE83AEAD
:105610007B2C5228628949E749C641C649E75A4965
:105620006AEB6B0C7B6D7B8D7B8E7B8EFABFFABF3A
:105630008BAD8BAD8BCE8BEE6AEB5A4762875A23CC
:10564000624262418B027A806A41C5459BA0A3C237
:105650007200596059605960618069806180698019
:1056600069A06180616069A072007A8182E161C194
:1056700082A1C543A44351C141A35A686B4C4A69F6
:105680007B8EA4D2941083AE838E730C5A286269E9
:10569000520741A649C7522862CA734D7B8E7BAE22
:1056A0007BAE7B6DFABFFABF838D838D838D8BAE0E
:1056B0006ACA8C2D5A0461E17B24D5C29382514081
:1056C0004920514059606180698071A079C071A002
:1056D00079A071A079A06980698071A071A071A082
:1056E00069A0618061806180514059607AA0B525D0
:1056F000A4445A25840E42089C91B534AD139C7184
:105700008C108BF07B6D5A485228520741A639A65F
:10571000524862AA732C732C734C7B6EFABFFABF8B
:10572000838D83AE8BCE8BAE730B8BED83025AA62B
:105730007B23598041205140616069805960490054
:1057400040E038C038C030C030C038C038E038E041
:1057500030C030C028A028A028A030C0410151404E
:1057600059605160492049206A8252248C0C52664B
:105770006B0A8BCEAD13BDB6C5B6BD96A4D38BEF69
:105780006ACB5A4852274A0749E7524862CB732CE2
:105790007B6D7B8EFABFFABF838D8BCE8BCE8BAEAB
:1057A0007B4C8C0C730639224100514059604900F2
:1057B00030C028C028A028A028A028A03900412057
:1057C00030C06A207A8069E059A06A0030E020A0E9
:1057D00020A020A028C028C120C128C0390149200C
:1057E000416262656B2652678C0FACF2942F83CEB8
:1057F0009471AD34C5B6BD96ACF3736D5A487B4C0D
:105800007B4C6AEB62CA6B0B732C734DFABFFABF09
:105810007B4C836C838D8BAE8BAEA48B49E54101B1
:105820005140390028A02080208020A028C030C00E
:105830004100512061606160616071A071A0698068
:10584000596059405120410038E028C028E020C16B
:1058500020C020A020A030E049A34163418442063B
:1058600062A8A491B554C5B6C5B6AD349451945050
:105870009450A4915A895AA9730B8BEE940F83CE3E
:10588000734D6B0CFABFFABF93EF8BAE7B6D7B6DE4
:10589000838D83CA4142494030C028C0208020A067
:1058A00028A030E0492059406180698069A071A03A
:1058B00079C079C079E079C071A069806180616048
:1058C00061605120490030E028C020C020A020A104
:1058D00041E6392241A46B0A62C962AA62AA7B6DC1
:1058E0009471B534BD95B51394307B6C6AEA62CA85
:1058F0004A2818C239A6730B8BAE838DFABFFABF44
:105900008BCE8BEE942F940F8BCE7309496230E0CF
:1059100020A028A028A030A04900594061606980DB
:1059200071A079C08200924092619A609A609A60F8
:1059300092408A0079E071C069A0616059405120AD
:1059400040E028C020A028C0420729434984940F82
:10595000A4B2ACD29C918BEF83AE730C6B0C7B6CBE
:105960007B4C7B4C8C0F8C0F5A8962A949E718C27B
:1059700020E341E7FABFFABF62CB8BCF93EF93EFFF
:10598000940F730A392128C130E030C028A04100AB
:1059900059205940698079E08A409A609A80A2A093
:1059A000A2C0AAE1AAC1A2C0A2A19A608A208A00CC
:1059B00081E071A069805940490038E028C028C1C1
:1059C0004A07522749E69C91A4B1A491A471A4B2BC
:1059D000A4B29C718C107B6D5207732B9C91B57592
:1059E0008C0F6AEA8BEE83AE62CA3985FABFFABFC2
:1059F000290318A239C76B0C94106ACA20A130E0A1
:105A000030C028A040E051005940698081E08A20E0
:105A100092609A80A2C19AA18A608A4082417A20CB
:105A200071E169C069C071E079E079E071C06180BD
:105A30005960490030C028E24A0741C549C6A492CE
:105A4000A4929C719C71A491A4919C709C719C5097
:105A50006ACA6AEA8C2FB555A4D262CA8BCE8BAEC5
:105A600083AE83AEFABFFABF836C730B5227290350
:105A700018A23965310128C028C030C04900512022
:105A8000696071C079E08A21822161C149605981D0
:105A9000720192A1928092A192808A40720169E182
:105AA00059C04981498151405140512038E031026B
:105AB00041E6314449C5A4929C719C719C719C51F2
:105AC0009C309C719C709C2F836C6289942FBD9537
:105AD000B534734D838D8BCE838D838DFABFFABF22
