:020000042000DA
:100000000000022095530020695200206B5200200E
:100010006D5200206F52002071520020000000003D
:10002000000000000000000000000000D1180020C7
:10003000735200200000000071190020755200204A
:10004000E5530020E5530020E5530020E553002050
:10005000E5530020E5530020E5530020E553002040
:10006000E5530020E5530020E5530020E553002030
:10007000E5530020E5530020E5530020E553002020
:10008000E5530020E5530020E5530020E553002010
:10009000E5530020E5530020E5530020E553002000
:1000A000E5530020E5530020E5530020E5530020F0
:1000B000E5530020E5530020E5530020E5530020E0
:1000C000E5530020E5530020E5530020E5530020D0
:1000D000E5530020E5530020E5530020E5530020C0
:1000E000E5530020E5530020E5530020E5530020B0
:1000F000E5530020E5530020E5530020E5530020A0
:10010000E5530020E5530020E5530020E55300208F
:10011000E5530020E55300207D520020E5530020E8
:10012000E5530020E5530020E5530020E55300206F
:10013000E5530020E5530020E5530020E55300205F
:10014000E5530020E5530020E5530020E55300204F
:10015000E5530020E553002099450020E553002099
:10016000E5530020E5530020E5530020E55300202F
:10017000E5530020E5530020E55300200000000077
:08018000E5530020E5530020C7
:1001900010B5054C237833B9044B13B10448AFF3C1
:1001A00000800123237010BDE080012000000000CA
:1001B0009463002008B5034B1BB103490348AFF318
:1001C000008008BD00000000E4800120946300204E
:1001D00001F0FF01102A2BDB10F0070F08D010F8F8
:1001E000013B013A8B422DD010F0070F42B3F6D1FC
:1001F000F0B441EA012141EA014122F007047FF015
:1002000000070023F0E80256083C85EA010586EA6B
:10021000010685FA47F5A3FA87F586FA47F6A5FAA7
:1002200087F68EB9EED1F0BC01F0FF0102F00702B3
:1002300032B110F8013B013A83EA010313B1F8D15E
:100240000020704701387047002D06BF354603383F
:10025000073815F0010F07D1013015F4807F02BF78
:10026000013015F4C03F0130F0BC0138704700BFC9
:1002700053B94AB9002908BF00281CBF4FF0FF310D
:100280004FF0FF3000F07AB9ADF1080C6DE904CE03
:1002900000F006F8DDF804E0DDE9022304B0704761
:1002A0002DE9F0478C460D460446089E002B51D19F
:1002B0008A4217466DD9B2FA82FEBEF1000F0BD00A
:1002C000CEF1200C01FA0EF520FA0CFC02FA0EF722
:1002D0004CEA050C00FA0EF44FEA174A250CBCFB59
:1002E000FAF81FFA87F90AFB18CC45EA0C4508FB17
:1002F00009F3AB420AD9ED1908F1FF3280F02381EE
:10030000AB4240F22081A8F102083D44ED1AA4B2AC
:10031000B5FBFAF00AFB105544EA054400FB09F965
:10032000A14509D9E41900F1FF3380F00A81A14504
:1003300040F2078102383C44A4EB090440EA08403B
:100340000021002E61D024FA0EF400233460736083
:10035000BDE8F0878B4207D9002E54D0002186E8F3
:1003600021000846BDE8F087B3FA83F1002940F088
:100370008E80AB4202D3824200F2FA80841A65EB8F
:1003800003050120AC46002E3FD086E81010BDE8E2
:10039000F08712B90127B7FBF2F7B7FA87FEBEF173
:1003A000000F34D1EB1B3A0C1FFA87FC0121B3FB81
:1003B000F2F8250C02FB183345EA03450CFB08F361
:1003C000AB4207D9ED1908F1FF3002D2AB4200F27F
:1003D000D1808046ED1AA3B2B5FBF2F002FB1055B6
:1003E00043EA05440CFB00FCA44507D9E41900F1DD
:1003F000FF3302D2A44500F2B8801846A4EB0C04E7
:1004000040EA08409DE731463046BDE8F087CEF12E
:10041000200405FA0EF307FA0EF720FA04F83A0C56
:1004200025FA04F448EA0308B4FBF2F14FEA184550
:1004300002FB11441FFA87FC45EA044501FB0CF35B
:10044000AB4200FA0EF409D9ED1901F1FF3080F04A
:100450008A80AB4240F2878002393D44EB1A1FFA92
:1004600088F5B3FBF2F002FB103345EA034500FBCD
:100470000CF3AB4207D9ED1900F1FF386FD2AB4254
:100480006DD902383D44EB1A40EA01418FE7C1F1D2
:10049000200722FA07F88B4005FA01F448EA030323
:1004A00020FA07FE4FEA134CFD404EEA040EB5FB5E
:1004B000FCF94FEA1E440CFB19551FFA83F844EA75
:1004C000054509FB08F4AC4202FA01F200FA01FA10
:1004D00008D9ED1809F1FF3043D2AC4241D9A9F156
:1004E00002091D442D1B1FFA8EFEB5FBFCF00CFB10
:1004F00010554EEA054400FB08F8A04507D9E4185A
:1005000000F1FF3529D2A04527D902381C4440EA22
:100510000940A4EB0804A0FB02894C45C6464D46A1
:1005200015D312D056B1BAEB0E0364EB050404FAEE
:1005300007F7CB401F43CC40376074600021BDE813
:10054000F0871846F8E69046E0E6C245EAD2B8EBF6
:10055000020E69EB03050138E4E72846D7E7404679
:1005600091E78146BEE7014678E702383C4445E71B
:10057000084608E7A8F102083D442BE7704700BF92
:1005800008B50B4B1A6842F400721A601A6842F4FC
:1005900080621A601A6842F480721A60032000F0C8
:1005A0002FF8002004F022FE04F0C4FD002008BD56
:1005B000003C0240034A1168034B1B780B44136054
:1005C000704700BF20C2012000800120014B186845
:1005D000704700BF20C2012038B50446FFF7F6FF80
:1005E0000546B4F1FF3F02D0044B1B781C44FFF7D3
:1005F000EDFF401B8442FAD838BD00BF00800120C7
:10060000074AD36823F4E0631B041B0C000200F4C8
:10061000E060184340F0BF6040F40030D0607047A5
:1006200000ED00E030B4164BDB68C3F30223C3F1E6
:100630000704042C28BF04241D1D062D17D9033BD5
:10064000012505FA04F4013C2140994005FA03F321
:10065000013B1340194300280BDB0901C9B200F12B
:10066000604000F5614080F8001330BC7047002303
:10067000E6E700F00F000901C9B2024B1954F4E794
:1006800000ED00E014ED00E0420900F01F0001233E
:1006900003FA00F0014B43F82200704700E100E04C
:1006A0000138B0F1807F0AD2064B5860F021064A2B
:1006B00082F823100020986007221A6070470120FA
:1006C000704700BF10E000E000ED00E0042805D016
:1006D000054A136823F0040313607047024A136845
:1006E00043F004031360704710E000E0F0B583B0FE
:1006F00000244BE04FEAD40E0EF1080E50F82E20E5
:1007000004F00706B6000F27B74022EA07020F6978
:1007100007FA06F6324340F82E2046E0072600E0AE
:10072000002606FA0EF6324302335E4E46F82320C8
:100730005D4B1A68EB4302EA03064F6817F4803FEB
:1007400001D045EA0206584A1660526803EA0206DA
:100750004F6817F4003F01D045EA0206524A56603E
:10076000926803EA02064F6817F4801F01D045EA39
:1007700002064D4A9660D26813404E6816F4001F78
:1007800001D045EA0203484AD36001340F2C00F23D
:1007900086800123A3400A6803EA0205AB42F4D134
:1007A0004A68022AA6D0122AA4D006684FEA440E4C
:1007B000032202FA0EF2D24316404F6807F00307F5
:1007C00007FA0EF73E4306604E68771E012F03D9E5
:1007D000112E01D0122E0FD186681640CF6807FA6D
:1007E0000EF73E438660466826EA03034E68C6F36A
:1007F0000016A64033434360C3681A408B6803FA6F
:100800000EF31A43C2604B6813F0805FBDD0002323
:100810000193264B5A6C42F480425A645B6C03F499
:1008200080430193019BA3089E1C1E4A52F8262078
:1008300004F003064FEA860E0F2606FA0EF622EAA9
:1008400006021B4FB8423FF46BAF1A4EB0421AD0AB
:1008500006F58066B04218D006F58066B04216D024
:1008600006F58066B04214D006F58066B04212D01C
:1008700006F58066B04210D006F58066B0423FF4BF
:100880004DAF08264DE701264BE7022649E7032630
:1008900047E7042645E7052643E7062641E703B078
:1008A000F0BD00BF00380140003C0140003802406C
:1008B0000000024000040240002800F0BB8170B537
:1008C00082B00446036813F0010F3BD0A74B9B682E
:1008D00003F00C03042B2CD0A44B9B6803F00C03F7
:1008E000082B21D06368B3F5803F4FD0B3F5A02F1C
:1008F00052D09E4B1A6822F480321A601A6822F491
:1009000080221A606368002B50D0FFF75FFE054617
:10091000964B1B6813F4003F14D1FFF757FE401BA2
:100920006428F5D903208AE1904B5B6813F4800FAB
:10093000D8D08E4B1B6813F4003F03D06368002BA4
:1009400000F07A81236813F0020F55D0874B9B6823
:1009500013F00C0F3ED0854B9B6803F00C03082B63
:1009600033D0E368002B68D00122814B1A60FFF777
:100970002DFE05467D4B1B6813F0020F54D1FFF787
:1009800025FE401B0228F5D9032058E1774A136859
:1009900043F480331360B5E7744B1A6842F4802245
:1009A0001A601A6842F480321A60ABE7FFF70EFE55
:1009B00005466E4B1B6813F4003FC3D0FFF706FEDD
:1009C000401B6428F5D9032039E1684B5B6813F4B8
:1009D000800FC6D1654B1B6813F0020F04D0E3688B
:1009E000012B01D001202AE1604A136823F0F803AB
:1009F000216943EAC1031360236813F0080F40D054
:100A0000636963B301225B4B1A60FFF7DFFD0546A4
:100A1000564B5B6F13F0020F33D1FFF7D7FD401B2E
:100A20000228F5D903200AE1504A136823F0F8039D
:100A3000216943EAC1031360DEE700224C4B1A60D0
:100A4000FFF7C4FD0546494B1B6813F0020FD3D0D6
:100A5000FFF7BCFD401B0228F5D90320EFE0002280
:100A6000444B1A60FFF7B2FD0546404B5B6F13F035
:100A7000020F06D0FFF7AAFD401B0228F5D903207C
:100A8000DDE0236813F0040F79D0384B1B6C13F0B2
:100A9000805F33D100230193344B1A6C42F08052B3
:100AA0001A641B6C03F080530193019B0125324BA8
:100AB0001B6813F4807F23D0A368012B34D0052B4F
:100AC00038D02A4B1A6F22F001021A671A6F22F0EF
:100AD00004021A67A368002B36D0FFF777FD06469D
:100AE000224B1B6F13F0020F48D1FFF76FFD801BE5
:100AF00041F288339842F3D90320A0E00025D6E7DD
:100B00001D4A136843F480731360FFF75FFD0646C8
:100B1000194B1B6813F4807FCED1FFF757FD801B64
:100B20000228F5D903208AE0104A136F43F001032D
:100B30001367CFE70D4B1A6F42F004021A671A6F62
:100B400042F001021A67C5E7FFF740FD0646074B72
:100B50001B6F13F0020F11D0FFF738FD801B41F21D
:100B600088339842F3D9032069E000BF003802407F
:100B700000004742800E474200700040E5B9A3697B
:100B8000002B5BD0304A926802F00C02082A58D041
:100B9000022B17D000222D4B1A60FFF717FD0446D9
:100BA000294B1B6813F0007F42D0FFF70FFD001B9D
:100BB0000228F5D9032042E0234A136C23F0805326
:100BC0001364DCE70022214B1A60FFF7FFFC0546A7
:100BD0001D4B1B6813F0007F06D0FFF7F7FC401B8E
:100BE0000228F5D903202AE0E369226A1343626AE6
:100BF00043EA8213A26A5208013A43EA0243E26AD4
:100C000043EA0263104A53600122104B1A60FFF757
:100C1000DDFC04460C4B1B6813F0007F06D1FFF788
:100C2000D5FC001B0228F5D9032008E0002006E0CF
:100C3000002004E001207047012000E0002002B005
:100C400070BD0120FBE700BF003802406000474252
:100C5000F8B5314B9B6803F00C03042B59D0082BDB
:100C600001D02E48F8BD2C4B5A6802F03F025B6859
:100C700013F4800F2AD0284B5B68C3F388131E46F9
:100C800000275C010025E41A65EB0705A90141EA8C
:100C90009461A001001B61EB0501CB0043EA507396
:100CA000C400A01943EB07014B0243EAD0534402AE
:100CB000204619460023FFF7DBFA174B5B68C3F3A6
:100CC000014301335B00B0FBF3F0F8BD124B5B68EE
:100CD000C3F388131E4600275C010025E41A65EB68
:100CE0000705A90141EA9461A001001B61EB050120
:100CF000CB0043EA5073C400A01943EB07018B02F9
:100D000043EA90538402204619460023FFF7B0FAC5
:100D1000D3E70348F8BD00BF003802400024F400C8
:100D200000127A00002800F09D8070B504464F4BF9
:100D30001B6803F00F038B4209D2CBB24B4A1370EE
:100D4000136803F00F03994201D0012070BD23689E
:100D500013F0020F17D013F0040F04D0444A936825
:100D600043F4E0539360236813F0080F04D0404A23
:100D7000936843F4604393603D4A936823F0F00323
:100D8000A068034393600D46236813F0010F32D02F
:100D90006368012B21D09A1E012A25D9344A126892
:100DA00012F0020F60D032498A6822F00302134326
:100DB0008B60FFF70BFC06462D4B9B6803F00C0382
:100DC0006268B3EB820F16D0FFF700FC801B41F284
:100DD00088339842F0D9032070BD254A126812F476
:100DE000003FE0D1012070BD214A126812F0007F5F
:100DF000D9D1012070BD1D4B1B6803F00F039D422C
:100E000009D2EAB2194B1A701B6803F00F039D4216
:100E100001D0012070BD236813F0040F06D0144ADE
:100E2000936823F4E053E1680B439360236813F065
:100E3000080F07D00E4A936823F46043216943EA00
:100E4000C1039360FFF704FF094B9B68C3F30313CF
:100E5000084AD35CD840084B1860002004F0C6F95B
:100E6000002070BD01207047012070BD003C024091
:100E70000038024048D1002078800120014B1868DA
:100E8000704700BF7880012008B5FFF7F7FF044BDB
:100E90009B68C3F38223034AD35CD84008BD00BFDC
:100EA0000038024058D100200F2303600B4B9A6892
:100EB00002F0030242609A6802F0F00282609A68CF
:100EC00002F4E052C2609B68DB0803F4E053036164
:100ED000034B1B6803F00F030B60704700380240A0
:100EE000003C024030B583B00546036813F0050F9F
:100EF00006D12B6813F0020F2ED1002003B030BDB5
:100F00000022494B1A60FFF761FB0446474B1B6800
:100F100013F0006F06D0FFF759FB001B0228F5D92C
:100F20000320EBE76A68AB681B0743EA82133F4A7A
:100F3000C2F8843001223C4B1A60FFF747FB04469D
:100F40003A4B1B6813F0006FD3D1FFF73FFB001B38
:100F50000228F5D90320D1E700230193334B1A6C03
:100F600042F080521A641B6C03F080530193019B82
:100F70002F4A136843F480731360FFF727FB04467E
:100F80002B4B1B6813F4807F06D1FFF71FFB001B60
:100F90000228F5D90320B1E7244B1B6F13F44073EB
:100FA00012D0EA6802F4407293420DD01F4B1A6FC0
:100FB00022F440721F4901200860002008601A676F
:100FC0001B6F13F0010F13D1EB6803F44072B2F5FD
:100FD000407F1ED0154A936823F4F8139360134999
:100FE0000B6FEA68C2F30B0213430B67002085E71F
:100FF000FFF7ECFA04460D4B1B6F13F0020FE3D121
:10100000FFF7E4FA001B41F288339842F3D903203A
:1010100074E706498A6822F4F81223F0704323F437
:10102000407313438B60DAE76800474200380240A0
:1010300000700040400E474238B504460268D3684D
:1010400023F0A003D360FFF7C1FA05462368DB68ED
:1010500013F0200F07D1FFF7B9FA401BB0F57A7FE4
:10106000F4D9032038BD002038BD38B50368DA68EC
:1010700012F0400F01D0002038BD04464FF0FF327F
:10108000DA60FFF7A3FA05462368DB6813F0400F28
:1010900007D1FFF79BFA401BB0F57A7FF4D9032004
:1010A00038BD002038BD38B500285CD00446437FE9
:1010B000002B41D0022363772368CA225A62236837
:1010C00053225A622046FFF7D0FF0546002837D149
:1010D0002268936823F4E00323F0400393602168BF
:1010E0008A686368206903436069034313438B6024
:1010F0002368E2681A6122681369A16843EA014320
:1011000013612268D36823F08003D36023689B684F
:1011100013F0200F1BD02268136C23F48023136478
:101120002268136CA1690B4313642368FF225A627F
:1011300001236377284638BD037704F045F8B9E703
:101140002368FF225A62042363770125F2E72046D1
:10115000FFF772FF0028DED02368FF225A620423C3
:1011600063770125E6E70125E4E728B370B5044677
:1011700015460E4690F84930CBB104F108012068BD
:1011800000F094F9A2683146206800F0BBF9236BA7
:10119000A2682946606800F0D5F92268A16852F873
:1011A000213043F0010342F82130002070BD80F867
:1011B000483004F017F8E0E70120704770470268F4
:1011C000D36843F00103D3600268136843F001035E
:1011D000136000207047704770477047704710B524
:1011E000044603681A6912F0020F11D0DA6812F08F
:1011F000020F0DD06FF002021A610123037603681B
:101200009B6913F0030F70D0FFF7E6FF00232376EE
:1012100023681A6912F0040F12D0DA6812F0040F72
:101220000ED06FF004021A610223237623689B69B3
:1012300013F4407F5FD02046FFF7CEFF00232376D4
:1012400023681A6912F0080F12D0DA6812F0080F3A
:101250000ED06FF008021A61042323762368DB693D
:1012600013F0030F4ED02046FFF7B6FF002323767E
:1012700023681A6912F0100F12D0DA6812F0100FFA
:101280000ED06FF010021A61082323762368DB6901
:1012900013F4407F3DD02046FFF79EFF00232376C6
:1012A00023681A6912F0010F03D0DA6812F0010FF7
:1012B00036D123681A6912F0800F03D0DA6812F071
:1012C000800F34D123681A6912F0400F03D0DA6816
:1012D00012F0400F32D123681A6912F0200F03D0A8
:1012E000DA6812F0200F30D110BDFFF774FF2046EE
:1012F000FFF773FF8AE72046FFF76DFF2046FFF7F1
:101300006CFF9BE72046FFF766FF2046FFF765FF6F
:10131000ACE72046FFF75FFF2046FFF75EFFBDE723
:101320006FF001021A61204603F0B0FDC1E76FF0D3
:1013300080021A61204600F0B7F8C3E76FF0400260
:101340001A612046FFF74AFFC5E76FF020021A61D5
:10135000204600F0A8F8C7E70368454A90424AD003
:10136000B0F1804F49D0A2F57C42904247D002F5BF
:101370008062904245D002F58062904243D002F5EF
:101380007842904235D000221AB123F070034A68A7
:101390001343374A90423AD0B0F1804F50D0A2F573
:1013A0007C4290424ED002F5806290424CD002F5D1
:1013B000806290424AD002F57842904248D002F5CD
:1013C0007052904246D002F58062904244D002F5BD
:1013D0008062904242D0A2F59832904240D002F50D
:1013E000806290423ED002F5806290420DD0002291
:1013F0000EE00122C8E70122C6E70122C4E701226C
:10140000C2E70122C0E70122BEE7012200E001227B
:101410001AB123F44073CA68134303608B68C36234
:101420000B688362124B984220D003F58063984288
:101430001AD000230BB10B6903630123436170478A
:101440000122E5E70122E3E70122E1E70122DFE7EC
:101450000122DDE70122DBE70122D9E70122D7E7FC
:101460000122D5E70122D3E70123E3E70123E1E7E6
:1014700000000140A8B110B5044690F839305BB1C6
:10148000022384F83930211D2068FFF765FF01230E
:1014900084F83930002010BD80F83830FFF78EFE18
:1014A000EEE70120704770477047000070B40C6889
:1014B00050F82430124A1A404B688D682B43CE688E
:1014C00033430E6933434E6933438E693343CE69E8
:1014D00033430E6A33434E6A33438E6A3343CE6AD4
:1014E0003343CE6B3343096B0B431343082D04D0B6
:1014F00040F82430002070BC704743F04003F7E709
:101500008000F0FF30B4013250F8224004F0404433
:101510000B684D6843EA05138D6843EA0523CD68DF
:1015200043EA05430D69013D43EA05534D69023D18
:1015300043EA056389690B43234340F822300020C6
:1015400030BC7047B3F5804F05D06FF0704340F862
:1015500022300020704730B450F82230094C1C4033
:101560000B684D6843EA05138D6843EA0523CD688F
:1015700043EA054389690B43234340F822300020A6
:1015800030BC70470000F0CF842801D00330704792
:1015900000207047EFF30580003018BF012070472E
:1015A00008B501F097F9002008BD08B5FFF7F2FF74
:1015B00010B901F0D9F908BD01F0DCF908BDF0B5AA
:1015C00085B00F46446805680669B0F90800FFF762
:1015D000DBFF03AB019300903B46B2B229462046A5
:1015E00001F046F9012802D1039805B0F0BD0020B2
:1015F000FBE708B5034600B90123184601F0D0FA0D
:10160000002008BD00B583B01346012909D000228F
:10161000016800910121044801F0C6FD03B05DF8A6
:1016200004FB0122F4E700BF9064002030B585B0D0
:101630000546002303930C4601B90124FFF7AAFFD6
:10164000C0B10023009303AB22460921284601F0D4
:10165000C5FD012802D0FF2005B030BD039BB3B10A
:101660004FF080520B4B1A60BFF34F8FBFF36F8F59
:101670000020F1E70023009322460421284601F0D0
:10168000ADFD012801D0FF20E6E70020E4E70020BF
:10169000E2E700BF04ED00E008B5012000F066FDC0
:1016A00008BD10B501290DD103220021012000F051
:1016B00069FC044620B100231A46194600F086FC56
:1016C000204610BD0024FBE730B583B00023019312
:1016D00060B30C460546B1F1FF3F0DD001B91C4681
:1016E000FFF758FFB8B101AA0021284600F0EEFE2E
:1016F000012804D0FF2017E04FF0FF34F0E7019BF2
:10170000B3B14FF080520C4B1A60BFF34F8FBFF351
:101710006F8F002008E0002322461946284600F07B
:10172000FDFD012806D0FF2003B030BD8020FBE77F
:101730000020F9E70020F7E704ED00E010B582B0E3
:10174000044600230193FFF725FFA0B101A920461D
:1017500000F086FD012802D0FF2002B010BD019BE1
:10176000ABB14FF080520B4B1A60BFF34F8FBFF3FA
:101770006F8F0020F1E700231A461946204600F03B
:1017800025FC012801D0FF20E7E70020E5E7002045
:10179000E3E700BF04ED00E008B501F08FFB01288E
:1017A00001D000F017F908BD00F1080343604FF0C5
:1017B000FF328260C360036100230360704700232F
:1017C0000361704743684B609A688A609A68516009
:1017D00099600861036801330360704730B40D6895
:1017E000B5F1FF3F02D000F1080202E0026904E017
:1017F0001A4653681C68A542FAD253684B60996038
:101800008A605160086103680133036030BC70472F
:1018100003694268816891608268416851605A68D2
:10182000904205D0002202611868013818607047A4
:1018300082685A60F6E700000B4B1B68B3F1FF3F6C
:1018400008D04FF0500383F31188BFF36F8FBFF3BD
:101850004F8FFEE74FF0500383F31188BFF36F8F74
:10186000BFF34F8FFEE700BF0480012006480068E9
:10187000006880F3088862B661B6BFF34F8FBFF38C
:101880006F8F00DF00BF000008ED00E0DFF80C0004
:10189000016841F4700101607047000088ED00E0CC
:1018A0004FF0807340F8043C21F0010140F8081C1F
:1018B000054B40F80C3C40F8202C6FF0020340F838
:1018C000243C4438704700BF391800200000000055
:1018D000074B19680868B0E8F04F80F30988BFF338
:1018E0006F8F4FF0000080F311887047AFF30080D6
:1018F0001CBD01204FF0500383F31188BFF36F8F9D
:10190000BFF34F8F0A4A136801331360012B0DD1C7
:10191000084B1B6813F0FF0F08D04FF0500383F300
:101920001188BFF36F8FBFF34F8FFEE7704700BF83
:101930000480012004ED00E0094B1B6843B94FF01F
:10194000500383F31188BFF36F8FBFF34F8FFEE710
:10195000013B034A13600BB983F31188704700BF42
:1019600004800120000000000000000000000000D2
:10197000EFF30980BFF36F8F154B1A681EF0100F3D
:1019800008BF20ED108A20E9F04F10604DF8043DAB
:101990004FF0500080F31188BFF34F8FBFF36F8F6C
:1019A00001F068F94FF0000080F3118808BC196855
:1019B0000868B0E8F04F1EF0100F08BFB0EC108AB6
:1019C00080F30988BFF36F8F704700BFAFF30080CB
:1019D0001CBD012008B54FF0500383F31188BFF3FD
:1019E0006F8FBFF34F8F00F0CDFF18B14FF08052D3
:1019F000024B1A60002383F3118808BD04ED00E058
:101A0000064B1B68064AA2FB03239B09013B054AC0
:101A100013600722044B1A60704700BF78800120D2
:101A2000D34D621014E000E010E000E0314B1A6882
:101A3000314B9A421AD02F4B1A68304B9A421ED023
:101A400000B583B02E4B1A78D2B20192FF221A70E1
:101A50001B78DBB28DF803309DF8033003F05003A0
:101A6000284A13700722284B1A601BE04FF05003DE
:101A700083F31188BFF36F8FBFF34F8FFEE74FF0F3
:101A8000500383F31188BFF36F8FBFF34F8FFEE7CF
:101A90001D4A1368013B13609DF803305B00DBB205
:101AA0008DF803309DF8033013F0800FF0D1164A03
:101AB00013681B0203F4E0631360019BDBB2104A5E
:101AC0001370124B1A6842F470021A601A6842F0DE
:101AD00070421A60FFF794FF00220D4B1A60FFF767
:101AE000D5FE0C4A136843F040431360FFF7BEFE77
:101AF000FFF7A2FE00ED00E071C20F4170C20F417E
:101B000000E400E0FC8001200081012020ED00E0E5
:101B10000480012034EF00E0EFF305830F2B0FD991
:101B2000104A9B5CDBB2104A1278934208D24FF005
:101B3000500383F31188BFF36F8FBFF34F8FFEE71E
:101B40000A4B1B6803F4E063094A1268934208D900
:101B50004FF0500383F31188BFF36F8FBFF34F8FA4
:101B6000FEE77047F0E300E0FC8001200CED00E0B0
:101B700000810120124A12F0070F1ED0D11D21F062
:101B80000701C1F5705313440A460E480260002154
:101B900041601344083B23F007030B48036059607E
:101BA0001960991A51601360084B1960084B19604D
:101BB0004FF00042074B1A6070474FF47053E4E750
:101BC0000881012014BD01200481012010BD0120E5
:101BD0000CBD012008BD012010B4134B1A688242CD
:101BE0001BD359685C18A04203D140680144596076
:101BF000184641684418A24213D10C4C2468A242F2
:101C00000DD05268114441601A681268026098420F
:101C100000D018605DF8044B70471346DEE704609F
:101C2000F5E70260F3E700BF14BD01200481012045
:101C300070B5044600F090FE3A4B1B68BBB13A4BBE
:101C40001B681C4263D1ACB1083414F0070F11D0EB
:101C500024F00704083404F007035BB14FF050038D
:101C600083F31188BFF36F8FBFF34F8FFEE7FFF74A
:101C700081FFE4E7002C4CD02C4B1B689C424AD8D7
:101C80002B4B1D6801E02B4615466A68944202D929
:101C90002A68002AF7D1234A126895423DD01E686F
:101CA00008362A681A606B681B1B102B10D928197C
:101CB00010F0070F08D04FF0500383F31188BFF3E3
:101CC0006F8FBFF34F8FFEE743606C60FFF784FFB9
:101CD0006A6816490B689B1A0B60164909688B42A3
:101CE00001D214490B60104B1B6813436B60002337
:101CF0002B6000F0D7FE16F0070F10D04FF0500306
:101D000083F31188BFF36F8FBFF34F8FFEE7002679
:101D1000EFE70026EDE70026EBE70026E9E730468F
:101D200070BD00BF0481012008BD01200CBD012051
:101D300014BD012010BD012080B338B50446A0F1C8
:101D4000080550F8042C164909680A4208D14FF0DA
:101D5000500383F31188BFF36F8FBFF34F8FFEE7FC
:101D600050F8080C40B14FF0500383F31188BFF3D3
:101D70006F8FBFF34F8FFEE722EA010244F8042C75
:101D800000F0EAFD54F8041C064A13680B44136083
:101D90002846FFF721FF00F085FE38BD704700BFE1
:101DA00008BD01200CBD012010B50446FFF7A2FDBF
:101DB000A26BE36B9A4204D00024FFF7BDFD2046DE
:101DC00010BD0124F9E710B50446FFF793FDA36B9E
:101DD00023B10024FFF7B0FD204610BD0124F9E730
:101DE00070B504461646856B026C4AB9036853BB4E
:101DF000406801F0C5F8002363600135A56370BD3C
:101E00006EB9806803F014FB226CA3681344A360CE
:101E10006268934219D32368A3600020EDE7C0688D
:101E200003F006FB236C5B42E2681A44E26021681F
:101E30008A4202D262681344E360022E07D145B1A0
:101E4000013D0020D9E70020D7E70020D5E700209A
:101E5000D3E70020D1E7026C72B110B50346C46825
:101E60001444C4604068844201D31868D8600846AE
:101E7000D96803F0DDFA10BD704738B50546FFF7A5
:101E800039FD95F8454064B201E0013C64B2002C94
:101E90000ADD6B6A43B105F1240000F06DFF0028F4
:101EA000F3D001F005F8F0E7FF2385F84530FFF7A0
:101EB00043FDFFF71FFD95F8444064B201E0013C8B
:101EC00064B2002C0ADD2B6943B105F1100000F06B
:101ED00053FF0028F3D000F0EBFFF0E7FF2385F875
:101EE0004430FFF729FD38BD38B530B304460D4600
:101EF000FFF700FD2168E26B236C03FB02106060BA
:101F00000020A063A160013A02FB0313E360FF23FA
:101F100084F8443084F84530C5B92369F3B104F13D
:101F2000100000F029FFC8B14FF080520D4B1A602D
:101F3000BFF34F8FBFF36F8F10E04FF0500383F369
:101F40001188BFF36F8FBFF34F8FFEE704F11000CE
:101F5000FFF72AFC04F12400FFF726FCFFF7ECFC56
:101F6000012038BD04ED00E010B5029B0C4639B1EC
:101F70001A60D8631C6401211846FFF7B5FF10BD35
:101F80001B60F6E740B94FF0500383F31188BFF3AD
:101F90006F8FBFF34F8FFEE7F0B583B0054611B1E9
:101FA00001FB00F000E0002017460C464830FFF728
:101FB0003FFE064638B100903B4600F148022146FC
:101FC0002846FFF7D1FF304603B0F0BDF0B585B02D
:101FD000019260B1044699B10125BDB94FF050039B
:101FE00083F31188BFF36F8FBFF34F8FFEE74FF07E
:101FF000500383F31188BFF36F8FBFF34F8FFEE75A
:10200000026C0AB90125E8E70025E6E7022B09D0B2
:102010006DB94FF0500383F31188BFF36F8FBFF397
:102020004F8FFEE7E26B012AF2D00025F0E71E4653
:102030000F4600F043FF10B9019B03B1002545B9DD
:102040004FF0500383F31188BFF36F8FBFF34F8FAF
:10205000FEE700252CE0324639462046FFF7C0FE59
:10206000636A8BB104F1240000F086FE38B14FF0B2
:102070008052374B1A60BFF34F8FBFF36F8FFFF75C
:102080005BFC012005B0F0BD0028F8D04FF0805275
:102090002F4B1A60BFF34F8FBFF36F8FEFE7FFF740
:1020A0004BFC0020EEE72046FFF7E7FE00F0FAFCCD
:1020B000FFF720FCA26BE36B9A42CCD3022ECAD06E
:1020C000019B002BEBD01DB902A800F09BFE01255F
:1020D000FFF732FC00F040FCFFF70CFC94F84430B2
:1020E0005BB2B3F1FF3F02D1002384F8443094F88F
:1020F00045305BB2B3F1FF3F02D1002384F8453095
:10210000FFF71AFC01A902A800F092FEC8B9204608
:10211000FFF74AFE0028C6D0019904F1100000F034
:10212000F7FD2046FFF7A9FE00F0BCFC0028BFD158
:102130004FF08052064B1A60BFF34F8FBFF36F8F83
:10214000B6E72046FFF799FE00F0ACFC002099E7C7
:1021500004ED00E048B108B5002141600160C160B4
:102160000B460A46FFF732FF08BD704710B502461E
:1021700000210120FFF706FF0446FFF7EBFF204692
:1021800010BD2DE9F84360B1044699B10120B8B9FA
:102190004FF0500383F31188BFF36F8FBFF34F8F5E
:1021A000FEE74FF0500383F31188BFF36F8FBFF347
:1021B0004F8FFEE7006C08B90120E8E70020E6E752
:1021C000022B09D068B94FF0500383F31188BFF395
:1021D0006F8FBFF34F8FFEE7E56B012DF2D000202C
:1021E000F0E71F4690468946FFF796FCEFF311860D
:1021F0004FF0500383F31188BFF36F8FBFF34F8FFE
:10220000A26BE36B9A4201D3022F21D194F845507F
:102210006DB23A4649462046FFF7E2FDB5F1FF3F71
:1022200010D1636AB3B104F1240000F0A5FD98B1A8
:10223000B8F1000F12D00120C8F8000086F3118811
:10224000BDE8F8836B1C5BB284F845300120F5E7EC
:102250000020F3E70120F1E70120EFE70120EDE79F
:1022600060B170B50446036C8BB14FF0500383F33B
:102270001188BFF36F8FBFF34F8FFEE74FF050030E
:1022800083F31188BFF36F8FBFF34F8FFEE70368AF
:1022900053B1012373B94FF0500383F31188BFF397
:1022A0006F8FBFF34F8FFEE743680BB90123F1E750
:1022B0000023EFE70E46FFF72FFCEFF311854FF0F9
:1022C000500383F31188BFF36F8FBFF34F8FA26B5F
:1022D000E36B9A421AD294F845305BB20132A263A2
:1022E000B3F1FF3F0CD1636A93B104F1240000F015
:1022F00043FD78B186B10120306085F3118870BD4F
:1023000001335BB284F845300120F6E70020F4E7A2
:102310000120F2E70120F0E70120EEE72DE9F0418E
:1023200084B0019260B1044699B10125BDB94FF066
:10233000500383F31188BFF36F8FBFF34F8FFEE716
:102340004FF0500383F31188BFF36F8FBFF34F8FAC
:10235000FEE7026C0AB90125E8E70025E6E71F461B
:10236000884600F0ABFD10B9019B03B1002545B9CB
:102370004FF0500383F31188BFF36F8FBFF34F8F7C
:10238000FEE700265DE0E66841462046FFF763FD74
:10239000DFB9013DA563236813B900F04BFE60600F
:1023A000236963B104F1100000F0E6FC38B14FF08E
:1023B0008052454B1A60BFF34F8FBFF36F8FFFF70B
:1023C000BBFA012004B0BDE8F081E660636A002B2F
:1023D000F5D004F1240000F0CFFC0028EFD04FF03E
:1023E0008052394B1A60BFF34F8FBFF36F8FE6E710
:1023F000FFF7A2FA0020E5E702A800F003FD01269E
:1024000029E0002384F8443031E0002384F845308B
:1024100033E0FFF76FFA606800F060FDFFF78CFAB9
:102420003BE02046FFF729FD00F03CFB09E0204699
:10243000FFF723FD00F036FB2046FFF7C4FC002821
:1024400040D1FFF757FAA56B002D9CD1019B002BC3
:10245000CED0002ED0D0FFF76FFA00F07DFAFFF754
:1024600049FA94F844305BB2B3F1FF3FC9D094F815
:1024700045305BB2B3F1FF3FC7D0FFF75DFA01A96A
:1024800002A800F0D5FC0028D1D12046FFF79BFC24
:102490000028C6D02368002BBBD0019904F124008A
:1024A00000F036FC2046FFF7E8FC00F0FBFA0028BD
:1024B000C7D14FF08052044B1A60BFF34F8FBFF368
:1024C0006F8FBEE700207DE704ED00E02DE9F843C3
:1024D00060B1044699B10123BBB94FF0500383F3B7
:1024E0001188BFF36F8FBFF34F8FFEE74FF050039C
:1024F00083F31188BFF36F8FBFF34F8FFEE7036C39
:102500000BB90123E8E70023E6E717468946FFF702
:1025100003FBEFF311864FF0500383F31188BFF3F1
:102520006F8FBFF34F8FD4F83880B8F1000F20D0F1
:1025300094F844506DB249462046FFF78CFC08F1F0
:10254000FF33A363B5F1FF3F0DD123699BB104F1C4
:10255000100000F011FC80B18FB10120386086F3CB
:102560001188BDE8F8836B1C5BB284F8443001200D
:10257000F5E70020F3E70120F1E70120EFE7012074
:10258000EDE700000023072B0CD8074A52F8332050
:102590000AB10133F7E7044A42F8331002EBC303F0
:1025A00058607047704700BF24C2012070B50446D0
:1025B0000D461646FFF79EF994F844305BB2B3F12E
:1025C000FF3F0DD094F845305BB2B3F1FF3F0BD025
:1025D000FFF7B2F9A36B5BB12046FFF74EFC70BD6D
:1025E000002384F84430EDE7002384F84530EFE71A
:1025F0003246294604F1240000F0A2FBECE700007B
:102600000A4B1B681B684BB901234BB9074B1B686E
:10261000DB68DB685A68064B1A6070470023F4E7F2
:102620004FF0FF32024B1A60704700BF20BD0120FF
:10263000F8BD012010B50446006BFFF77DFB204676
:10264000FFF77AFB10BD2DE9F04780469946089DBB
:10265000099F0A9C266B02F18042013A06EB820632
:1026600026F0070600230F2B07D8C85CE21882F873
:102670003400CA5C0AB10133F5E7002384F8433023
:10268000062D00D90625E56265644FF0000AC4F8FE
:1026900048A0201DFFF793F804F11800FFF78FF80A
:1026A0002461C5F10705A5616462C4F84CA084F8F3
:1026B00050A04A4641463046FFF7F2F8206007B185
:1026C0003C60BDE8F087000038B5002407E004EB6B
:1026D000840293000E481844FFF766F80134062C74
:1026E000F5D90C4D2846FFF75FF80B4C2046FFF755
:1026F0005BF80A48FFF758F80948FFF755F809480A
:10270000FFF752F8084B1D60084B1C6038BD00BF36
:1027100028BD0120CCBD0120E0BD012000BE01206C
:102720002CBE012018BE012020BD012024BD0120A7
:1027300010B50446FFF7DEF8204A13680133136032
:102740001F4B1B68002B31D01E4B1B683BB91C4B29
:102750001B68DA6AE36A9A4201D8194B1C601A4A6C
:10276000136801331360E36A01229A40174908682D
:1027700002430A6003EB83039A00211D14481044AE
:10278000FFF720F8FFF7D8F80E4B1B686BB10C4B26
:102790001B68DA6AE36A9A4207D24FF080520D4B07
:1027A0001A60BFF34F8FBFF36F8F10BD044B1C60D7
:1027B0001368012BD3D1FFF787FFD0E7B4BD012009
:1027C0001CBD012014BE0120C4BD0120C8BD0120D4
:1027D00028BD012004ED00E070B504460E461D4BF7
:1027E0001D681D4B18680430FFF712F850B91A4BDA
:1027F0001B68DA6A012303FA02F218490B6823EA1C
:1028000002030B60B4F1FF3F13D02C44124B1B6842
:102810005C60A54216D8124B18680F4B196804313A
:10282000FEF7DCFF0F4B1B689C4201D20D4B1C6076
:1028300070BD002EE9D0084B196804310A48FEF734
:10284000C1FF70BD094B1868034B19680431FEF7CE
:10285000C5FF70BD40BE01201CBD0120C8BD0120C8
:1028600020BD0120F8BD012018BE012024BD01209B
:102870002DE9F04385B006460F4615469846900070
:10288000FFF7D6F900B381465420FFF7D1F904468B
:10289000B0B1C0F83090CCB10023039302940D9BEB
:1028A00001930C9B009343462A4639463046FFF776
:1028B000CAFE2046FFF73CFF012005B0BDE8F083CB
:1028C0004846FFF739FAE6E70024E4E74FF0FF3027
:1028D000F3E7000000B583B0194B01930023009388
:1028E000802218491848FFF7C3FF012807D00128A4
:1028F00008D0B0F1FF3F1AD003B05DF804FB00F040
:1029000029FCF4E74FF0500383F31188BFF36F8F76
:10291000BFF34F8F4FF0FF320C4B1A6001220C4B6C
:102920001A6000220B4B1A60FFF780F8E4E74FF0C3
:10293000500383F31188BFF36F8FBFF34F8FFEE710
:10294000F4BD0120D86300204D2C0020F8BD0120EB
:1029500014BE012040BE0120024A136801331360F7
:10296000704700BFC0BD0120014B1868704700BF11
:1029700040BE012008B5FFF7CFF8014B186808BD2D
:1029800040BE0120F8B53C4B1B68002B68D13B4B87
:102990001D6801351D60C5B9394B1B681B6843B103
:1029A0004FF0500383F31188BFF36F8FBFF34F8F46
:1029B000FEE7334A1168334B186810601960324AD9
:1029C000136801331360FFF71BFE304B1B689D42F9
:1029D0003AD200242E4B1B68DB6A03EB83039A0078
:1029E0002C4B9B58012B40D901243EE00124244B61
:1029F0001B681B6853B3002353BB214B1B68DB6868
:102A0000DE6873689D4228D3371D3846FEF700FF05
:102A1000B36A1BB106F11800FEF7FAFEF36A012251
:102A20009A401D49086802430A6003EB83039A0039
:102A3000394618481044FEF7C5FEF26A144B1B686D
:102A4000DB6A9A42D2D2D2E70024D0E70123D3E74F
:102A50004FF0FF320D4B1A60BCE70C4A1360B9E728
:102A60000E4A13680133136000240D4B1B6803B139
:102A700001242046F8BD00BFC0BD012040BE01209A
:102A800020BD012024BD0120FCBD0120F8BD012096
:102A90001CBD012028BD0120C8BD0120BCBD0120F6
:102AA00044BE012038B5354B1B6843B94FF0500385
:102AB00083F31188BFF36F8FBFF34F8FFEE7FEF7ED
:102AC00019FF2E4B1A68013A1A601B68002B50D16F
:102AD0002B4B1B6823B90024FEF72EFF204638BD80
:102AE0000024284B1B681BB3264BDB68DC6804F111
:102AF0001800FEF78DFE251D2846FEF789FEE36AC5
:102B000001229A402049086802430A6003EB8303CC
:102B10009A0029461D481044FEF754FEE26A1C4BF9
:102B20001B68DB6A9A42DCD301221A4B1A60D8E791
:102B30000CB1FFF765FD184B1C6874B9154B1B6889
:102B4000CBB14FF08052154B1A60BFF34F8FBFF3DC
:102B50006F8F0124C0E7013C07D0FFF713FF002867
:102B6000F9D001220B4B1A60F5E700220A4B1A60DC
:102B7000E4E70024B0E70024AEE700BFC0BD0120B9
:102B8000B4BD012000BE0120C8BD012028BD012028
:102B90001CBD012044BE0120BCBD012004ED00E0AD
:102BA00010B5A8B10446104B1B6843B14FF0500359
:102BB00083F31188BFF36F8FBFF34F8FFEE7FFF7EB
:102BC000CBFE00212046FFF707FEFFF76BFF00E07A
:102BD000002038B94FF08052044B1A60BFF34F8F7A
:102BE000BFF36F8F10BD00BFC0BD012004ED00E03A
:102BF000134B1B6813B310B5FFF7AEFE114B1C68E7
:102C0000FFF750FF24B90E4B1B68002BF4D110BD09
:102C1000FEF770FE0B4BDB68DC68201DFEF7F8FD4D
:102C2000094A1368013B1360054A1368013B1360AE
:102C3000FEF782FE2046FFF7FDFCE4E7704700BF89
:102C4000B8BD01202CBE0120B4BD012008B5FFF79E
:102C5000CFFF064B1B68012BF9D94FF08052044B74
:102C60001A60BFF34F8FBFF36F8FF0E728BD0120CD
:102C700004ED00E0214B1B68C3B90022204B1A6011
:102C8000204B1B68B3FA83F3DBB2C3F11F0303EBE2
:102C900083018A001C498A5862B94FF0500383F3BC
:102CA0001188BFF36F8FBFF34F8FFEE70122144BE4
:102CB0001A60704710B414489A00D418A100014457
:102CC0004C6864684C601A4491000831084484429E
:102CD0000BD003EB83039A000B4B13445B68DA6859
:102CE0000A4B1A605DF8044B7047606803EB83027F
:102CF0009100054A0A445060EBE700BFC0BD0120C7
:102D000044BE0120C8BD012028BD01201CBD0120FA
:102D100040B94FF0500383F31188BFF36F8FBFF3B7
:102D20004F8FFEE710B50C46044B19681831FEF7BB
:102D300055FD01212046FFF74FFD10BD1CBD0120B0
:102D400038B570B10C4615460A4A11681831FEF7BD
:102D500039FD0DB14FF0FF3429462046FFF73CFD09
:102D600038BD4FF0500383F31188BFF36F8FBFF36B
:102D70004F8FFEE71CBD012038B5C368DC6824B363
:102D800004F118052846FEF743FD184B1B682BBBC2
:102D9000251D2846FEF73CFDE36A01229A401449AE
:102DA000086802430A6003EB83039A00294611482E
:102DB0001044FEF707FDE26A0F4B1B68DB6A9A427C
:102DC00011D901200D4B186038BD4FF0500383F32B
:102DD0001188BFF36F8FBFF34F8FFEE72946084876
:102DE000FEF7F0FCE7E7002038BD00BFC0BD0120C2
:102DF000C8BD012028BD01201CBD012044BE01200A
:102E000000BE012030B1084A12680260074A126809
:102E1000426070474FF0500383F31188BFF36F8F08
:102E2000BFF34F8FFEE700BFFCBD012040BE012075
:102E300038B5C0B10446F9B10D46FEF75BFD1A4B3B
:102E400019682B68B3F1FF3F2AD02068174A12682F
:102E5000904202D06268914224D26268881A83420A
:102E600013D8012418E04FF0500383F31188BFF307
:102E70006F8FBFF34F8FFEE74FF0500383F311883E
:102E8000BFF36F8FBFF34F8FFEE7521A13442B60CF
:102E90002046FFF7B7FF0024FEF74EFD204638BD61
:102EA0000024F9E70124F7E740BE0120FCBD012022
:102EB0000122014B1A60704744BE0120054B1B687C
:102EC00023B1054B1B681BB90220704701207047D6
:102ED0000020704714BE0120C0BD0120002847D04B
:102EE00038B50446C36A23490968C96A8B4216D2B9
:102EF0008169002905DB1F490968C96AC1F1070119
:102F00008161606903EB830399001B4B0B4498427A
:102F100006D0002333B9174B1B68DB6AE36238BD68
:102F20000123F7E7251D2846FEF772FC68B9E36A1E
:102F300003EB83018A0010498A5832B901229A4072
:102F40000E490B6823EA02030B600A4B1B68DB6A1D
:102F5000E36201229A400949086802430A6003EBD0
:102F600083039A00294604481044FEF72BFC38BD21
:102F7000704700BF1CBD012028BD0120C8BD012035
:102F800000284AD038B50446274A1268904208D033
:102F90004FF0500383F31188BFF36F8FBFF34F8F50
:102FA000FEE7826C42B94FF0500383F31188BFF300
:102FB0006F8FBFF34F8FFEE7013A8264C06A616C86
:102FC00088422CD06ABB251D2846FEF721FC70B92B
:102FD000E26A02EB82018B001449CB583BB9012312
:102FE00003FA02F212490B6823EA02030B60636CD6
:102FF000E362C3F10702A261012404FA03F20C495F
:10300000086802430A6003EB83039A0029460748D5
:103010001044FEF7D7FB204638BD00207047002043
:1030200038BD002038BD00BF1CBD012028BD0120D7
:10303000C8BD0120054B1B6823B1044B1A68936C73
:1030400001339364014B1868704700BF1CBD012019
:10305000064B1A681368B3FA83F35B09036013B96C
:10306000D368186870470020704700BF48BE012031
:1030700008B54160006191420CD8D21A83699A4226
:1030800001D3012008BD011D094B1868FEF7A6FBFE
:10309000002008BD9A4201D2994206D2011D054B7B
:1030A0001868FEF79BFB002008BD012008BD00BF8B
:1030B0004CBE012048BE012038B5FEF71BFC0F4B6B
:1030C0001B6813B1FEF738FC38BD0D4D2846FEF7DE
:1030D0006BFB0C4C2046FEF767FB0B4B1D600B4B4C
:1030E0001C6000220C210A20FEF74CFF034B1860E5
:1030F0000028E7D00649FFF745FAE3E77CBE012048
:1031000050BE012064BE012048BE01204CBE0120FB
:10311000E06300202DE9F041079C41B94FF05003D6
:1031200083F31188BFF36F8FBFF34F8FFEE70F4616
:1031300074B11D4616468046FFF7BEFFC4F80080F6
:10314000A761E6612562069B6362201DFEF737FBDF
:10315000BDE8F08100B583B0FFF7AEFF0E4B1B68F2
:10316000A3B10E4B01930223009300234FF480720E
:103170000B490C48FFF77CFB50B94FF0500383F329
:103180001188BFF36F8FBFF34F8FFEE70020F3E787
:1031900003B05DF804FB00BF7CBE012080BE0120AF
:1031A000E8630020A53400202DE9F04182B00546F7
:1031B0000E46174698462820FEF73AFD044640B1D1
:1031C0000190089B009343463A4631462846FFF754
:1031D000A1FF204602B0BDE8F0810000C0B130B5CB
:1031E00085B015460446174A106840B31A46019147
:1031F0000295039405291CDCFFF760FE022810D01D
:1032000000231A4601A90F480068FEF7DFFE14E00C
:103210004FF0500383F31188BFF36F8FBFF34F8FCD
:10322000FEE70023089A01A906480068FEF7CEFED3
:1032300003E0002301A9FEF7A4FF05B030BD002084
:10324000FBE700BF7CBE012070B582B01A4B1B6843
:103250001A6852B3DB681E68DC68251D2846FEF735
:10326000D7FA636A20469847E369012BEED1A36938
:1032700033449E4207D26360246129460E4B18688E
:10328000FEF7ACFAE2E7002100910B4632462046F9
:10329000FFF7A4FF0028D9D14FF0500383F3118822
:1032A000BFF36F8FBFF34F8FFEE7044A10680249E8
:1032B0000860136002B070BD48BE01204CBE012002
:1032C00038B50546FFF750FB0446074B1B6898428C
:1032D00005D300232B60044B1C60204638BDFFF74C
:1032E000B3FF01232B60F6E778BE012070B582B0F2
:1032F00005460E46144B1B68DB68DC68201DFEF794
:1033000087FAE369012B04D0636A2046984702B02C
:1033100070BDA1692B46324629442046FFF7A8FE1E
:103320000028F1D0002100910B462A462046FFF7E5
:1033300055FF0028E8D14FF0500383F31188BFF305
:103340006F8FBFF34F8FFEE748BE012070B582B08C
:1033500006460C46FFF700FB01A8FFF7B1FF019BF3
:1033600023BB05460CB9B04219D22CB1114B1B68D6
:103370001C68B4FA84F464092246711B0E4B186869
:10338000FFF714F9FFF78EFB38B94FF080520B4B63
:103390001A60BFF34F8FBFF36F8F02B070BDFFF79E
:1033A00081FB29463046FFF7A1FFF6E7FFF77AFBDE
:1033B000F3E700BF4CBE01207CBE012004ED00E01D
:1033C00030B587B000231A4603A935480068FEF7D8
:1033D000A5FF002861D0039B002BF3DB059C6369EC
:1033E00013B1201DFEF714FA02A8FFF769FF039B33
:1033F000092BE7D801A252F823F000BF25340020A2
:103400002534002025340020C53300206D340020F1
:10341000933400202534002025340020C5330020BB
:103420006D3400200499A5690B46024629442046C4
:10343000FFF71EFE0028C5D0636A20469847E3695F
:10344000012BBFD1A269002100910B4604980244D0
:103450002046FFF7C3FE0028B4D14FF0500383F39A
:103460001188BFF36F8FBFF34F8FFEE70499A161FF
:1034700031B10346024601442046FFF7F9FDA1E7BA
:103480004FF0500383F31188BFF36F8FBFF34F8F5B
:10349000FEE72046FEF750FC94E707B030BD00BFC2
:1034A0007CBE012000B583B001A8FFF7D1FD0199D2
:1034B000FFF74CFFFFF784FFF6E7000008B51D4B50
:1034C0001B6823BB1C4A1368002111601B4A126849
:1034D000E2B11B4A1268934201D2194A1360194A99
:1034E0001268934201D9174A1360174AD2E90001C2
:1034F000C01841F10001C2E90001144B1A68013201
:103500001A600023FCF7B4FE114B186008BD0023BD
:10351000084A1360002000210B4AC2E900014FF065
:10352000FF31074A1160074A1360094A1360074ACE
:10353000136008BD9CBE012084BE0120A0BE0120F6
:1035400098BE012094BE012088BE01200880012081
:1035500090BE012010B5FEF728F80446002001F0C7
:1035600083F9FEF722F8001B10BD00002DE9F84397
:103570000746FEF71AF88046002625E001F0E0FF36
:10358000054601F049F995FBF0F400FB1454A4B290
:1035900001F0D6FF814601F047F999FBF0F500FBF9
:1035A0001595ADB201F0CCFF0B4A82FB0032131827
:1035B000C217C2EBE332C2EB0242821A92B2294630
:1035C000204601F085F90136BE42D7D3FDF7EDFF65
:1035D000A0EB0800BDE8F883018000802DE9F84FDA
:1035E0008146FDF7E2FF82464FF000083FE001F020
:1035F000A7FF054601F010F995FBF0F400FB145409
:10360000A4B201F09DFF064601F00EF996FBF0F51D
:1036100000FB1565ADB201F093FF074601F0FCF821
:1036200097FBF0F600FB1676B6B201F089FF8346F1
:1036300001F0FAF89BFBF0F700FB17B7BFB201F0FF
:103640007FFF0F4B83FB00231A18C317C3EBE23332
:10365000C3EB0343C31A58BA80B201F0EDF83B46FE
:1036600032462946204601F07DF908F10108C84597
:10367000BDD3FDF79AFFA0EB0A00BDE8F88F00BFAD
:10368000018000802DE9F84F8146FDF78EFF8246CC
:103690004FF0000845E001F053FF054601F0BCF88B
:1036A000C0F34F0095FBF0F400FB1454A4B201F0FA
:1036B00047FF064601F0B8F8C0F34F0096FBF0F55F
:1036C00000FB1565ADB201F03BFF074601F0A4F821
:1036D000001B97FBF0F600FB1676B6B201F030FF48
:1036E000834601F0A1F8401B9BFBF0F700FB17B7E6
:1036F000BFB201F025FF0F4B83FB00231A18C3173D
:10370000C3EBE233C3EB0343C31A58BA80B201F0F0
:1037100093F82B4622463946304601F0C1FA08F1AB
:103720000108C845B7D3FDF740FFA0EB0A00BDE88C
:10373000F88F00BF018000802DE9F8430746FDF7B0
:1037400034FF8046002651E03F4801F081F801F047
:1037500085F8054601F0F4FE814601F05DF8AC887D
:10376000001B99FBF0F400FB149084B201F0E8FE1A
:10377000814601F059F8ED88401B99FBF0F500FBFC
:10378000159085B201F0DCFEDFF8D89089FB0023AC
:103790001A18C317C3EBE233C3EB0343C31A58BA77
:1037A00080B201F049F801F0CBFE89FB0039814479
:1037B000C317C3EBE933C3EB0343C31A58BA80B250
:1037C00001F040F801F0BCFE204B83FB0023C21740
:1037D000C2EB231202EB42025301C21AD2B22032D0
:1037E000D2B22946204601F047FA0136BE4225D220
:1037F00001F0A6FE164A82FB0032C317C3EB620338
:1038000003EB8303C31A13F0FF039DD0012B09D0F0
:10381000022B0BD0032B0DD0042B98D10D4801F0B7
:1038200017F894E70C4801F013F890E70B4801F003
:103830000FF88CE70A4801F00BF888E7FDF7B5FEB2
:10384000A0EB0800BDE8F8832C800120ABAAAA2ACF
:1038500067666666248001200C80012014800120A8
:103860001C800120018000802DE9F84F804600F087
:10387000D3FF064600F0D8FF864206D8C6F38F066F
:10388000FDF793FE8146002740E000F0CDFF06469D
:10389000F4E701F055FE90FBF6F406FB1404A5B224
:1038A000002DF6D001F04CFE834600F0B5FF1B4B17
:1038B00003EA4404001B9BFBF0FA00FB1ABA15FA5A
:1038C0008AFA1FFA8AFA01F03BFE834600F0ACFF49
:1038D000001B9BFBF0F400FB14B415FA84F4A4B2B3
:1038E00001F02EFE0E4B83FB00231A18C317C3EB07
:1038F000E233C3EB0343C31A58BA80B200F09CFF13
:103900002A462146504601F099F801374745C0D371
:10391000FDF74BFEA0EB0900BDE8F88FFEFF0100AC
:10392000018000802DE9F84F804600F075FF0646C3
:1039300000F07AFF864206D8C6F38F06FDF735FE03
:103940008146002740E000F06FFF0646F4E701F0F3
:10395000F7FD90FBF6F406FB1404A5B2002DF6D09B
:1039600001F0EEFD834600F057FF1B4B03EA4404D1
:10397000001B9BFBF0FA00FB1ABA15FA8AFA1FFA31
:103980008AFA01F0DDFD834600F04EFF001B9BFB31
:10399000F0F400FB14B415FA84F4A4B201F0D0FDE5
:1039A0000E4B83FB00231A18C317C3EBE233C3EBA0
:1039B0000343C31A58BA80B200F03EFF2A4621469C
:1039C000504601F07DF901374745C0D3FDF7EDFDC5
:1039D000A0EB0900BDE8F88FFEFF01000180008028
:1039E0002DE9F84FFDF7E1FD814600F015FF074690
:1039F00000F01AFF8046002542E02C02B4FBF7F4E9
:103A0000260226F4FF6323F0070318B24FEAC40A24
:103A10000AF4FF6A0AF4FC631843C4F3C4042043A5
:103A200040BA80B200F008FFC8F38F0B5A4600215D
:103A3000284600F077FF06F4784040BA80B200F0E4
:103A4000FBFE5A465946284600F06CFF0AF4FC601B
:103A500040BA80B200F0F0FEC8F34F065A46314635
:103A6000284600F05FFF60BA80B200F0E5FE0BEB85
:103A700006015A4689B2284600F054FF0135ADB21E
:103A8000BD42BAD3FDF791FDA0EB0900BDE8F88F68
:103A90002DE9F8430746FDF788FD804600261FE024
:103AA00001F04EFD814600F0B7FE114DD5F81240F1
:103AB000001BB9FBF0F400FB149084B201F040FD50
:103AC000814600F0B1FED5F81610401AB9FBF0F1AE
:103AD00000FB11912A4689B2204601F01DF80136FB
:103AE000BE42DDD3FDF761FDA0EB0800BDE8F88321
:103AF000286500202DE9F04F85B00446334AD2F8FE
:103B000012801FFA88F7D2F816A01FFA8AF9052149
:103B1000142001F001F8FDF748FD039018E01FFAAA
:103B200088F506FB0545711D04F1140089B280B2C9
:103B300001F03EF9264B23F815000134A4B2BC4233
:103B4000EDD30136B6B24E4501D20024F7E75C460C
:103B500004F1FF3B0CB10026F5E7FDF726FD039BC2
:103B6000C51A00201BE001339BB2BB4215D21FFADD
:103B700088F202FB0036164931F816601FFA8AF106
:103B80000139091A01FB02321832104901EB4202D5
:103B9000D2889642E7D00134E5E7013080B248454B
:103BA00001D20023E1E75CB9094B00934B463A464A
:103BB0000F21412001F008F9284605B0BDE8F08F3B
:103BC0002146044801F040FCEEE700BF28650020D4
:103BD00064C201200C6400202DE9F04782B0044645
:103BE000294AD2F81260B5B2D2F816701FFA87F8D7
:103BF0000521142000F090FFFDF7D7FC814608E076
:103C0000224B009343462A460521142001F0E8F890
:103C1000544604F1FF3A002CF2D1FDF7C6FCA0EBAC
:103C20000909002019E001339BB2AB4213D2B2B2B2
:103C300002FB003E154931F81EE0B9B20139091AFC
:103C400001FB02321832104901EB4202D28896453C
:103C5000E9D00134E7E7013080B2404501D20023CA
:103C6000E3E75CB9094B009343462A461921052036
:103C700001F0AAF8484602B0BDE8F08721460448A2
:103C800001F0E2FBEEE700BF2865002064C20120DE
:103C9000F063002008B54FF49670FDF7AAFC00F021
:103CA000F9FD01F04DFC6420FDF7A3FC01F074F870
:103CB0000146594801F0C8FB6420FDF79AFC574BB8
:103CC0001B689B6B00200021C3E90401FFF742FC45
:103CD0000146534801F0B8FB4FF47A70FDF789FCB8
:103CE0005048FFF743FC01464F4801F0ADFB4FF44D
:103CF0007A70FDF77EFC002000F0B6FD4FF47A707C
:103D0000FFF76CFC0146494801F09EFB4FF47A70C6
:103D1000FDF76FFC002000F0A7FDFA20FFF7B2FCD2
:103D20000146434801F090FB4FF47A70FDF761FCC7
:103D3000002000F099FD4FF47A70FFF795FD0146E1
:103D40003C4801F081FB4FF47A70FDF752FC0020F3
:103D500000F08AFDFA20FFF7E5FD0146364801F044
:103D600073FB4FF47A70FDF744FC002000F07CFDFB
:103D700041F28830FFF7E0FC0146304801F064FB77
:103D80004FF47A70FDF735FC002000F06DFD6420E3
:103D9000FFF77EFE01462A4801F056FB4FF47A7089
:103DA000FDF727FC002000F05FFD1420FFF7A2FEC6
:103DB0000146244801F048FB4FF47A70FDF719FCE6
:103DC000002000F051FD1420FFF706FF01461E48B9
:103DD00001F03AFB4FF47A70FDF70BFC002000F085
:103DE00043FDFFF7FDFD0146184801F02DFB40F6AD
:103DF000B830FDF7FEFB00F0C7FF4FF47A70FDF717
:103E0000F8FB00F0B9FF4FF47A70FDF7F2FB1048B1
:103E100001F08EFB53E700BF286400207C80012066
:103E20003C640020A0860100E06400205064002073
:103E3000646400207C64002094640020B06400204E
:103E4000C4640020DC640020F46400200C650020C1
:103E5000206500204FF4A0707047F02070470000EC
:103E600008B5954B1B7813F0010F40F0218143F00A
:103E70000103914A137013F0020F00F01A818E4A69
:103E8000137843F0020313704FF4734000F0FCFB0F
:103E90004FF4006000F0FCFB052000F091FB4FF4B4
:103EA000807000F0F1FB012000F0F2FB4FF4007095
:103EB00000F0EAFB072000F0EBFB4FF4407000F04D
:103EC000E3FB43F6100000F0E3FB4FF4006000F06A
:103ED000DBFB40F2032000F0DBFB4FF4106000F04E
:103EE000D3FB002000F0D4FB4FF4805000F0CCFB5B
:103EF000002000F0CDFB4FF4885000F0C5FB4FF4DC
:103F0000E06000F0C5FB4FF4905000F0BDFB0020D6
:103F100000F0BEFB4FF4985000F0B6FB002000F01C
:103F2000B7FB052000F04CFB4FF4805000F0ACFBD9
:103F30004BF2140000F0ACFB052000F041FB4FF405
:103F4000885000F0A1FB4FF4E06000F0A1FB0520D9
:103F500000F036FB4FF4905000F096FB4FF40E400B
:103F600000F096FB4FF4985000F08EFB0C2000F010
:103F70008FFB4FF4245000F087FB4FF4A85000F063
:103F800087FB052000F01CFB4FF4405000F07CFB49
:103F9000002000F07DFB4FF4445000F075FB40F230
:103FA000017000F075FB4FF4485000F06DFB0020ED
:103FB00000F06EFB4FF4545000F066FB40F202300C
:103FC00000F066FB4FF4585000F05EFB4FF40170B8
:103FD00000F05EFB4FF45C5000F056FB002000F058
:103FE00057FB4FF4605000F04FFB40F2027000F0BE
:103FF0004FFB4FF4645000F047FB002000F048FBFB
:104000004FF4705000F040FB40F2023000F040FBF3
:104010004FF4745000F038FB4FF4417000F038FB5F
:104020004FF4A04000F030FB002000F031FB4FF4D3
:10403000A24000F029FB4FF46F4000F029FB4FF441
:10404000A44000F021FB002000F022FB4FF4A6402A
:1040500000F01AFB43F6017000F01AFB4FF4C04069
:1040600000F012FB272000F013FB4FF4C24000F0D9
:104070000BFB4FF4807000F00BFB4FF4104000F08E
:1040800003FB4FF4245000F003FB052000F098FAE6
:104090004FF42C5000F0F8FA4FF4606000F0F8FA9A
:1040A0004FF4E06000F0F0FA43F2013000F0F0FA73
:1040B00008BD00F095FAE2E6A4BE012008B54FF471
:1040C000805000F0E1FA002000F0E2FA4FF488504E
:1040D00000F0DAFA002000F0DBFA4FF4905000F024
:1040E000D3FA002000F0D4FA4FF4985000F0CCFA44
:1040F000002000F0CDFA052000F062FA4FF4805065
:1041000000F0C2FA4BF2140000F0C2FA4FF48850EB
:1041100000F0BAFA4FF4E06000F0BAFA4FF49050B1
:1041200000F0B2FA4FF40E4000F0B2FA4FF498509B
:1041300000F0AAFA0C2000F0ABFA4FF4245000F083
:10414000A3FA4FF4A85000F0A3FA4FF42C5000F05B
:104150009BFA4FF4606000F09BFA4FF4E06000F0CF
:1041600093FA43F2013000F093FA012000F02CFAA8
:1041700008BD08B54FF4805000F086FA002000F02A
:1041800087FA4FF4885000F07FFA002000F080FAA0
:104190004FF4905000F078FA002000F079FA4FF4D4
:1041A000985000F071FA002000F072FA4FF4245099
:1041B00000F06AFA002000F06BFA4FF4E06000F0C3
:1041C00063FA002000F064FA002000F0FDF908BD59
:1041D00038B504460D464FF4005000F055FA68BA61
:1041E00080B200F055FA4FF4045000F04DFA60BA76
:1041F00080B200F04DFA38BD70B504460D46164643
:104200004FF4005000F040FA68BA80B200F040FA73
:104210004FF4045000F038FA60BA80B200F038FA77
:104220004FF4085000F030FA304600F031FA70BD1B
:10423000F8B506460F4614461D464FF4A04000F060
:1042400023FA78BA80B200F023FA4FF4A24000F0CB
:104250001BFAE819013840BA80B200F019FA4FF49D
:10426000A44000F011FA70BA80B200F011FA4FF4D5
:10427000A64000F009FAA019013840BA80B200F057
:1042800007FAF8BD00B583B0094B1B786BB1022368
:1042900001220DF10601002000F074FABDF80600BD
:1042A00040BA80B203B05DF804FBFFF7D9FDEEE73A
:1042B000A4BE012030B583B004460D464FF4005033
:1042C00000F0E2F968BA80B200F0E2F94FF404506D
:1042D00000F0DAF960BA80B200F0DAF902230122C4
:1042E0000DF106014FF4085000F04CFABDF806003D
:1042F00003B030BD2DE9F0470746894690469A46FF
:10430000089D0E461FE04FF4005000F0BDF970BA52
:1043100080B200F0BDF94FF4045000F0B5F960BA76
:1043200080B200F0B5F90223012229464FF408506B
:1043300000F028FA02350134A4B207EB08039C42CE
:10434000E1DB0136B6B209EB0A039E4201DA3C46D4
:10435000F3E7BDE8F087F8B506460C4615461F465C
:104360004FF4005000F090F968BA80B200F090F974
:104370004FF4045000F088F960BA80B200F088F978
:104380003A4631464FF4085000F088F9F8BDF8B5C8
:1043900006460C4615461F464FF4407000F074F96F
:1043A00043F2100000F074F94FF4005000F06CF983
:1043B00068BA80B200F06CF94FF4045000F064F970
:1043C00060BA80B200F064F93A4631464FF40850C2
:1043D00000F064F94FF4407000F056F943F6100015
:1043E00000F056F9F8BDF8B504460D4616461F46CE
:1043F000FFF71EFF4FF4005000F046F968BA80B294
:1044000000F046F94FF4045000F03EF960BA80B273
:1044100000F03EF907FB06F2BDF818104FF4085003
:1044200000F03CF94FF4A04000F02EF9002000F01D
:104430002FF94FF4A24000F027F94FF46F4000F03D
:1044400027F94FF4A44000F01FF9002000F020F9F4
:104450004FF4A64000F018F943F6017000F018F987
:10446000F8BDF8B50746947DD37D04EB032411FA1B
:1044700084F4A4B2013CA4B25688B6B2938846EA4A
:1044800003465589ADB2938945EA0345761B760804
:1044900015444FF4407000F0F7F842F6100000F0B9
:1044A000F7F84FF4005000F0EFF860BA80B200F077
:1044B000EFF84FF4045000F0E7F878BA80B200F05B
:1044C000E7F8324629464FF4085000F023F94FF43C
:1044D000407000F0D9F843F6100000F0D9F84FF41E
:1044E000A04000F0D1F8002000F0D2F84FF4A24034
:1044F00000F0CAF84FF46F4000F0CAF84FF4A4403F
:1045000000F0C2F8002000F0C3F84FF4A64000F01D
:10451000BBF843F6017000F0BBF8F8BDF8B50446EF
:104520000D4616461F46FFF783FE4FF4005000F07D
:10453000ABF868BA80B200F0ABF84FF4045000F06A
:10454000A3F860BA80B200F0A3F807FB06F2069960
:104550004FF4085000F0DEF84FF4A04000F094F85B
:10456000002000F095F84FF4A24000F08DF84FF4D1
:104570006F4000F08DF84FF4A44000F085F8002063
:1045800000F086F84FF4A64000F07EF843F6017084
:1045900000F07EF8F8BD000008B5074B5B6813F02B
:1045A000006F00D108BD4FF00062034BDA60034B8F
:1045B0001868FDF7C3F8F5E70064024048F10120F0
:1045C00008B5FCF709F808BD18B90122034B1A60B9
:1045D00070470022014B1A60704700BF848240423E
:1045E000F0B583B0224D6B6C43F004036B646B6CCD
:1045F00043F002036B6400261E4B1E601E4A1368C4
:1046000023F00C0343F00403136002F58062136887
:1046100023F4406343F480631360184F01243C602B
:104620002046FFF7CDFF3E602046FFF7C9FF3C6004
:104630002046FFF7C5FF124B1C602B6B43F4800331
:104640002B6302A840F8046D2146FDF72AF80D4DB2
:104650002860324605214620FBF7E4FF4620FCF7A0
:1046600013F821462868FDF72FF803B0F0BD00BF0E
:1046700000380240848240420004024094024142D9
:104680009C82414248F101204FF0C043188070479E
:10469000014B1880704700BF0000046010B582B065
:1046A00014464FF0C0431880ADF806100FE0144BCD
:1046B0005C600024124B134A1A601A6842F001022F
:1046C0001A604FF0FF31104B1868FCF7FDFFACB1DA
:1046D0000B4B00221A604FF000610C4AD1600DF1C3
:1046E00006029A600A4ADA60B4F5803FDFD34FF6DB
:1046F000FF725A60A4F57F44FF3CDBE702B010BDB7
:10470000B86402409028000E48F101200064024085
:104710000000046038B50D4614464FF0C0431880C1
:104720000FE0134B5C600024114B124A1A601A68A8
:1047300042F001021A604FF0FF310F4B1868FCF78E
:10474000C3FF9CB10A4B00221A604FF000610B4A74
:10475000D1609D600A4ADA60B4F5803FE1D34FF63C
:10476000FF725A60A4F57F44FF3CDDE738BD00BF0F
:10477000B8640240902A000E48F101200064024013
:104780000000046070B50E4614461D464FF0C0434D
:10479000188002E0164A12781D466B1E002DF9D1D2
:1047A0000FE0144B5C602C46124B134A1A601A68D7
:1047B00042F001021A604FF0FF31104B1868FCF70D
:1047C00083FF9CB10B4B00221A604FF000610C4A32
:1047D000D160074A9A60DE60B4F5803FE1D34FF6BE
:1047E000FF725A60A4F57F44FF3CDDE770BD00BF57
:1047F00000000460B8640240902C000E48F10120D3
:104800000064024010B5034C2468E46904B1A04779
:1048100010BD00BF7480012008B5024B1B689B6A65
:10482000984708BD7480012008B5024B1B68DB6AFD
:10483000984708BD74800120014B1860704700BF85
:104840004CF10120014B5860704700BF4CF1012032
:10485000014B9860704700BF4CF10120014B9868F4
:10486000704700BF4CF1012070B582B00646084B7E
:104870001B689C6BFFF7D0FF0546FFF7D5FF00963E
:1048800003462A4600210846A04702B070BD00BF7B
:104890007480012038B50A4B4FF6FF755D60094AF8
:1048A0009A6000241C60084B1B681B6898472846C8
:1048B000FFF7DAFF0548FFF7CBFF204638BD00BF02
:1048C0004CF1012024800120748001202C800120E3
:1048D00008B5034B1B685B6903B1984708BD00BF6F
:1048E00074800120F8B506460F4615460B4B1B6831
:1048F0001C6A8CB113460A46014609480088A04745
:10490000F8BD3019064B1A88394680B2FFF7E0FF30
:104910000134AC42F5D3F8BD0024FAE774800120DD
:104920004CF10120F8B506460F4615460B4B1B68A7
:104930005C6A8CB113460A46014609480088A047C4
:10494000F8BD3919064B1A8889B23046FFF7C0FF07
:104950000134AC42F5D3F8BD0024FAE7748001209D
:104960004CF101202DE9F04F85B0A2EB000ABAF11D
:10497000000FB8BFCAF1000A0FFA8AFAA3EB010BC5
:10498000BBF1000FB8BFCBF1000B0FFA8BFB05B2E8
:104990000FB2824213D3012202928B4213D301231E
:1049A0000393DA4513DB0AEBDA7444F34F04029BFA
:1049B00000930023029301934FF000091EE04FF093
:1049C000FF320292E9E74FF0FF330393E9E70BEB85
:1049D000DB7444F34F045346DA469B46039B019332
:1049E000002303930093E7E7009B1D442DB2019B36
:1049F0001F443FB209F101090FFA89F9CA4518DBD2
:104A00001FFA85F8BEB20C4B1A8831464046FFF7B4
:104A10005FFF5C44A3B21CB2A245E5DCA3EB0A0431
:104A200024B2029B08EB03052DB2039BF7183FB29B
:104A3000DAE705B0BDE8F08F4CF101202DE9F04F29
:104A400087B082468B465300C3F10303019391461E
:104A50004FF0000805E003EB88030633019308F1EB
:104A60000108C84553D81FFA88F404EB0A039BB227
:104A70001FFA89F5ABEB0507BFB2264E32883946DF
:104A800002931846FFF724FFAAEB04039AB21046DC
:104A9000328839460390FFF71BFF0AEB050399B2F2
:104AA0000F46ABEB040399B2328805910497384660
:104AB000FFF70EFFAAEB0507BFB23288059938460B
:104AC000FFF706FF5D44ADB2328829460298FFF732
:104AD000FFFE328829460398FFF7FAFE5C44A4B231
:104AE000328821460498FFF7F3FE32882146384683
:104AF000FFF7EEFE019B002BADDBA8EB0903019A4B
:104B000002EB83030A33019309F1FF39A7E707B0EA
:104B1000BDE8F08F4CF10120F8B505460E4614466D
:104B2000927CE37C02EB0322A37DE77D03EB07236A
:104B30009BB292B2FFF766FE094B1B681B6B1BB161
:104B40002246314628469847FFF766FE0446FFF79F
:104B50006BFE0346224600210846FFF753FEF8BDD0
:104B6000748001202DE9F04F83B000900191404BFB
:104B70009B68B3F806A0B3F804901AFB09F11B3147
:104B800049003C4B598009FB0AF11B31C1F3CF317D
:104B9000998036215981A3F8129000219982A3F8B7
:104BA00016A0198309F1070B4FEAEB0B4FEACB086C
:104BB0005FFA88F85FFA89F3A8EB03085FFA88F8D0
:104BC0000F468E462BE02A494968DFF8A8C00CF84A
:104BD00013100134C1F307210CF804100130A8426E
:104BE0001BD2A6EB0E03013B03FB05031B335C004A
:104BF000291A414401394FF0010C0CFA01F10F421E
:104C0000E1D01B490968DFF86CC00CF813100134BF
:104C1000C1F307210CF80410E0E70EF1010E56462F
:104C2000D6451DD20BFB0EF3D1184D46A9F111004C
:104C3000072806D8D05C4F783F0247EA00478878BB
:104C40000743A9F10900072803D8D05C4F7847EA49
:104C5000002709F1FF31072900D8D75C0020BEE703
:104C6000044A01990098FFF757FF03B0BDE8F08FA1
:104C70004CF10120A8BE012038B5084B9B681C6888
:104C8000A2F12005DA8802FB05F29B880733DB10CE
:104C900003FB0242FFF766FF38BD00BF4CF1012065
:104CA00030B583B0044C2468A46B044D2D88009566
:104CB000A04703B030BD00BF748001204CF101203B
:104CC0002DE9F04F83B08246894601925600C6F125
:104CD00003061546274B1888FFF7AEFD00241FE09A
:104CE000AFB2AAEB070B1FFA8BFB1FFA84F87F0009
:104CF000BFB208EB09013A4689B25846FFF7F2FD08
:104D0000A9EB08013A4689B25846FFF7EBFD0BE0E4
:104D1000002E23DB631B06EB83060A36013D0134BC
:104D2000AC421FD8002DDBD1002CF1D0A7B2AAEBEA
:104D3000070B1FFA8BFB1FFA85F87F00BFB2A9EBA8
:104D400008013A4689B25846FFF7CCFD09EB080145
:104D50003A4689B25846FFF7C5FDD9E706EB840607
:104D60000636DCE7019A49465046FFF767FE03B076
:104D7000BDE8F08F4CF1012008B5024B1B689B6821
:104D8000984708BD7480012008B5024B1B68DB689A
:104D9000984708BD7480012008B5044B1B685B6808
:104DA0000BB1984708BD002008BD00BF74800120EA
:104DB00008B5044B1B689B690BB1984708BD0020E0
:104DC00008BD00BF7480012030B583B0034C246857
:104DD000646B069D0095A04703B030BD7480012030
:104DE00030B583B0034C2468E46B069D0095A04762
:104DF00003B030BD7480012086B0002200921F4BAA
:104E0000196B41F004011963196B01F00401009161
:104E100000990192196B41F080011963196B01F03F
:104E20008001019101990292196B41F010011963FF
:104E3000196B01F01001029102990392196B41F074
:104E400008011963196B01F0080103910399049299
:104E5000196B41F001011963196B01F00101049113
:104E6000049905921A6B42F002021A631B6B03F05D
:104E700002030593059B06B0704700BF003802404F
:104E800008B50120FCF7B5FBFBE7000008B5026898
:104E9000034B9A4200D008BDFBF78CFBFBE700BF39
:104EA00000100040FEE7000008B50A480A4B036006
:104EB000002343607F228260FF22C260036143615E
:104EC0008361FCF7F0F800B908BD4FF48A7103481C
:104ED000FFF7E8FFB0F10120002800401CD10020BE
:104EE00000B589B018484FF02043036003F5827382
:104EF000436000228260C260026142618261C261DD
:104F0000026242624FF480538362C2620263426370
:104F100082634264052301930F23029308230393C2
:104F2000012304931023059311230693079201A9EB
:104F3000FCF71BF910B909B05DF804FB40F2511100
:104F40000248FFF7AFFF00BF5CF101201CD1002039
:104F500000B599B000230193314A116C41F08051A2
:104F60001164126C02F080520192019A02932D4A50
:104F7000116841F480411160126802F4804202928B
:104F8000029A06220C9201220E920F921022109287
:104F900002221292139308231493A82315931692B6
:104FA000042317930CA8FBF787FC68BB0F23079318
:104FB00002230893002309934FF4A0530A934FF45C
:104FC00080530B93052107A8FBF7ACFE00BB02231F
:104FD00003934FF48073069303A8FBF783FFD8B9BC
:104FE000FBF74CFF104BA3FB00308009FBF758FB8D
:104FF0000420FBF76BFB00220F214FF0FF30FBF783
:1050000011FB19B05DF804FBD9210848FFF74AFFEE
:10501000E7210648FFF746FFEE210448FFF742FF6D
:105020000038024000700040D34D62101CD10020B7
:1050300080B58CB0FBF7A4FAFFF78AFFFFF7DCFE20
:10504000FFF732FFFFF74CFF00270CA840F8047D64
:10505000FCF722FB154B18600CA8154B40F8083DD7
:105060003A460121FCF7CEFA124B1860FA21FCF700
:10507000DDFA114C05AD26460FCE0FC533682B6007
:10508000394605A8FCF79BFA0C4B18606D461434A2
:105090000FCC0FC523682B6039466846FCF78FFAA2
:1050A000074B1860FCF77CFAFEE700BFACF101206B
:1050B000BD34002044F10120B063002058F10120EC
:1050C000D0F10120174B1B6803B17047F0B587B0D2
:1050D0000122144B1A6000240094134B9A6B42F087
:1050E00001029A639B6B03F001030093009B4FF452
:1050F000F0630193022702970394032604960C257C
:10510000059501A90948FBF7F1FA4EF2B3030193A3
:10511000029703940496059501A90548FBF7E6FA62
:1051200007B0F0BD10C2012000380240001002405C
:10513000000C024010B582B000240094214B5A6C40
:1051400042F480425A645A6C02F480420092009AFF
:1051500001941A6C42F080521A641B6C03F0805365
:105160000193019B0320FBF74BFA224621466FF087
:105170000B00FBF757FA224621466FF00A00FBF7B7
:1051800051FA224621466FF00900FBF74BFA2246FE
:1051900021466FF00400FBF745FA224621466FF0E6
:1051A0000300FBF73FFA22460F216FF00100FBF7E7
:1051B00039FA22460F214FF0FF30FBF733FA02B0E5
:1051C00010BD00BF003802400268044B9A4200D074
:1051D00070470122024B1A60FAE700BF0028004026
:1051E0003C0E474208B5FFF76DFF08BD10B588B00B
:1051F000002201463620FBF715FA3620FBF744FA69
:1052000000240194144B1A6C42F010021A641B6CB7
:1052100003F010030193019B02A903A8FBF744FECE
:10522000FBF732FE43000D48A0FB03239B0C013B20
:105230000B480C4A026040F2E732C26043600461EE
:105240008460FCF717F910B1012008B010BD0448C4
:10525000FBF7B5FFF9E700BF0038024083DE1B43D0
:10526000D4F10120001000407047FEE7FEE7FEE7A2
:10527000FEE7704708B5FCF78FFA08BD08B502488D
:10528000FBF7ADFF08BD00BFD4F1012030B400240E
:105290000AE000BF4FF060431B68002BF9D04FF0CD
:1052A0006043197001342946944210DA4D1C097884
:1052B0004FF06043D3F8803E13F0010FF2D04FF06F
:1052C0006043D3F8003E13F0010FE3D1EAE7104644
:1052D00030BC70470346064A126822B1044A10687F
:1052E0000344136070470349014A1160F6E700BFA9
:1052F00014C2012014F201205822024B1A604FF010
:10530000FF30704710F201205822024B1A604FF014
:10531000FF30704710F201205822024B1A60002023
:10532000704700BF10F201205822024B1A604FF064
:10533000FF30704710F201205822024B1A604FF0E4
:10534000FF30704710F201200F49D1F8883043F444
:105350007003C1F888300D4B1A6842F001021A60E0
:10536000002098601A6822F0847222F480321A6059
:10537000074A5A601A6822F480221A60D8604FF0F7
:1053800000538B60704700BF00ED00E00038024022
:1053900010300024DFF834D0002103E00C4B5B58C0
:1053A000435004310B480C4B42189A42F6D30B4A37
:1053B00002E0002342F8043B094B9A42F9D3FFF77D
:1053C000C3FF00F011F8FFF733FE70470000022022
:1053D00008D2002000800120E0800120E080012030
:1053E00014F20120FEE7000070B50D4E0D4CA41B19
:1053F000A4100025A54209D10B4E0C4C00F0CAFFA9
:10540000A41BA4100025A54205D170BD56F8253077
:1054100098470135EEE756F8253098470135F2E711
:1054200000D2002000D2002000D2002004D20020B0
:1054300010B5431E0A44914200D110BD11F8014B32
:1054400003F8014FF7E700000FB40A4B13B51C68CF
:1054500024B1A36913B9204600F05EFA05AB049AA3
:10546000A1680193204600F02BFC02B0BDE810407B
:1054700004B070477C80012070B50E46054618B117
:1054800083690BB900F048FAAB69AC6813B92846D8
:1054900000F042FA234B9C4217D16C68A3891B078A
:1054A0001DD52369DBB1013EA36816F8011F013B3E
:1054B000A360E9B9002B2EDA22460A21284600F023
:1054C00079F8013011D00A2070BD174B9C4201D1F0
:1054D000AC68E3E7154B9C4208BFEC68DEE7214669
:1054E000284600F0B9F80028DDD04FF0FF3070BD3D
:1054F000002B04DAA269934206DB0A2904D0236850
:105500005A1C22601970CFE72246284600F052F854
:105510000130C9D1E9E723680A205A1C22601870BB
:1055200070BD00BF84D10020A4D1002064D1002030
:10553000024B01461868FFF79FBF00BF7C80012027
:10554000194B10B51C68A36BD3B9182000F0D2FA20
:1055500043F20E33A06303804AF6CD33438041F219
:10556000342383804EF26D63C3804DF6EC63038178
:10557000052343810B23838101220023C0E90423F7
:10558000A16B0A480A694B69094C504304FB0300AC
:10559000A2FB04230132034443F10003C1E90423C5
:1055A00023F0004010BD00BF7C8001202DF4515835
:1055B0002D7F954CF8B50E461446054618B1836903
:1055C0000BB900F0A9F9214B9C422AD16C68A36960
:1055D000A360A3891A072ED5236963B323692068C2
:1055E000C01A6369F6B29842374604DB2146284662
:1055F00000F028F928BBA368013BA36023685A1C6C
:1056000022601E7063690130984204D0A389DB07D1
:1056100019D50A2E17D12146284600F013F990B16A
:105620000FE00B4B9C4201D1AC68D0E7094B9C4288
:1056300008BFEC68CBE72146284600F00DF80028AB
:10564000CCD04FF0FF373846F8BD00BF84D10020E2
:10565000A4D1002064D10020324B70B51D680646ED
:105660000C4625B1AB6913B9284600F055F92E4B0D
:105670009C420FD16C68B4F90C309AB215072CD447
:10568000D00611D40922326043F04003A3814FF0C9
:10569000FF3070BD254B9C4201D1AC68EBE7244B39
:1056A0009C4208BFEC68E6E7510712D5616B41B137
:1056B00004F14403994202D0304600F02BFA002353
:1056C0006363A38923F02403A38100236360236918
:1056D0002360A38943F00803A38123694BB9A389FD
:1056E00003F42073B3F5007F03D02146304600F069
:1056F000C1F9A28912F001030CD00023A3606369F1
:105700005B42A361236953B9B4F90C3013F08000F4
:10571000BAD170BD920758BF6369A360F2E7002059
:10572000F7E700BF7C80012084D10020A4D10020B5
:1057300064D100208A892DE9F041054610070C4606
:105740005AD44B68002B05DC0B6C002B02DC0020CC
:10575000BDE8F081E66A002EF9D0002312F48052F1
:105760002F682B6033D0606DA3895A0705D5636815
:10577000C01A636B0BB1236CC01A00230246E66AA1
:10578000216A2846B047431CA38906D129681D29F0
:105790004BD82B4ACA40D60747D500226260D904AD
:1057A0002269226004D5421C01D12B6803B96065CF
:1057B000616B2F600029CAD004F14403994202D0E2
:1057C000284600F0A7F900206063BDE8F081216A57
:1057D00001232846B047411CC6D12B68002BC3D0FB
:1057E0001D2B01D0162B01D12F60B0E7A38943F008
:1057F0004003A381BDE8F0810F69002FA7D0930774
:105800000E6808BF4B690F6018BF0023A6EB07089E
:105810008B60B8F1000F9ADD43463A46216AA66ACA
:105820002846B047002807DCA38943F04003A38142
:105830004FF0FF30BDE8F0810744A8EB0008E8E72F
:105840000100402038B50B6905460C46DBB118B1A4
:1058500083690BB900F060F80C4B9C4209D16C686D
:10586000B4F90C307BB121462846BDE83840FFF73B
:1058700061BF074B9C4201D1AC68F1E7054B9C42EC
:1058800008BFEC68ECE7002038BD00BF84D10020E1
:10589000A4D1002064D10020014900F0A9B800BFC4
:1058A00045580020002310B5044603604360836020
:1058B00081814366C2810361436183611946082285
:1058C0005C3000F01FF9054B6362054BA362054B8A
:1058D000E362054B2462236310BD00BF39620020E0
:1058E0005B62002093620020B762002070B54A1E00
:1058F000682555430E4605F1740100F059F9044638
:1059000040B1002180E842000C30A06005F168023F
:1059100000F0F8F8204670BD836910B5044633BB2B
:105920008364C3640365124B124A1B688262984207
:1059300004BF0123836100F01FF86060204600F07F
:105940001BF8A060204600F017F80022E060042158
:105950006068FFF7A7FF01220921A068FFF7A2FFF7
:1059600002221221E068FFF79DFF0123A36110BD11
:1059700060D1002099580020F8B51C4B1E68B3690F
:10598000074613B93046FFF7C7FF4836B468736857
:10599000013B03D5336833B13668F7E7B4F90C50EF
:1059A0006DB16834F4E704213846FFF79FFF30609B
:1059B0000028F1D10C233B6004462046F8BD4FF689
:1059C000FF73E3810123A38165662560A56065609F
:1059D00025616561A5610822294604F15C0000F09B
:1059E00091F86563A563A564E564E6E760D10020EE
:1059F0002DE9F8438046894600F14804002614B991
:105A00003046BDE8F883A5686768013F01D5246882
:105A1000F5E7AB89012B07D9B5F90E30013303D077
:105A200029464046C84706436835EEE770B50E463E
:105A3000B1F90E10002990B014461D4607DA002374
:105A40002B60B3891A0610D44FF480630EE001AACC
:105A500000F058FC0028F2DB029A02F47042A2F532
:105A600000535A425A412A60EEE740230020236047
:105A700010B070BD8B8973B59D0706460C4607D5DF
:105A800004F14703236023610123636102B070BD09
:105A900001AB6A46FFF7CAFF00990546304600F0A1
:105AA00087F848B9B4F90C309A05EFD423F0030312
:105AB00043F00203A381E3E70D4BB362A3892060A7
:105AC00043F08003A381009B6361019B20615BB174
:105AD000B4F90E10304600F027FC28B1A38923F05A
